{
  "_format": "hh-sol-artifact-1",
  "contractName": "Api3Pool",
  "sourceName": "contracts/Api3Pool.sol",
  "abi": [
    {
      "inputs": [
        {
          "internalType": "address",
          "name": "api3TokenAddress",
          "type": "address"
        }
      ],
      "stateMutability": "nonpayable",
      "type": "constructor"
    },
    {
      "anonymous": false,
      "inputs": [
        {
          "indexed": true,
          "internalType": "address",
          "name": "user",
          "type": "address"
        },
        {
          "indexed": true,
          "internalType": "address",
          "name": "delegate",
          "type": "address"
        }
      ],
      "name": "Delegated",
      "type": "event"
    },
    {
      "anonymous": false,
      "inputs": [
        {
          "indexed": true,
          "internalType": "address",
          "name": "user",
          "type": "address"
        },
        {
          "indexed": false,
          "internalType": "uint256",
          "name": "amount",
          "type": "uint256"
        }
      ],
      "name": "Deposited",
      "type": "event"
    },
    {
      "anonymous": false,
      "inputs": [
        {
          "indexed": true,
          "internalType": "address",
          "name": "user",
          "type": "address"
        },
        {
          "indexed": false,
          "internalType": "uint256",
          "name": "amount",
          "type": "uint256"
        },
        {
          "indexed": false,
          "internalType": "uint256",
          "name": "start",
          "type": "uint256"
        },
        {
          "indexed": false,
          "internalType": "uint256",
          "name": "end",
          "type": "uint256"
        }
      ],
      "name": "DepositedVesting",
      "type": "event"
    },
    {
      "anonymous": false,
      "inputs": [
        {
          "indexed": true,
          "internalType": "address",
          "name": "recipient",
          "type": "address"
        },
        {
          "indexed": false,
          "internalType": "uint256",
          "name": "amount",
          "type": "uint256"
        }
      ],
      "name": "PaidOutClaim",
      "type": "event"
    },
    {
      "anonymous": false,
      "inputs": [
        {
          "indexed": true,
          "internalType": "uint256",
          "name": "epoch",
          "type": "uint256"
        },
        {
          "indexed": false,
          "internalType": "uint256",
          "name": "rewardAmount",
          "type": "uint256"
        },
        {
          "indexed": false,
          "internalType": "uint256",
          "name": "apr",
          "type": "uint256"
        }
      ],
      "name": "PaidReward",
      "type": "event"
    },
    {
      "anonymous": false,
      "inputs": [
        {
          "indexed": false,
          "internalType": "uint256",
          "name": "proposalIndex",
          "type": "uint256"
        },
        {
          "indexed": false,
          "internalType": "address",
          "name": "userAddress",
          "type": "address"
        },
        {
          "indexed": false,
          "internalType": "string",
          "name": "specsUrl",
          "type": "string"
        }
      ],
      "name": "PublishedSpecsUrl",
      "type": "event"
    },
    {
      "anonymous": false,
      "inputs": [
        {
          "indexed": true,
          "internalType": "address",
          "name": "user",
          "type": "address"
        },
        {
          "indexed": false,
          "internalType": "uint256",
          "name": "amount",
          "type": "uint256"
        },
        {
          "indexed": false,
          "internalType": "uint256",
          "name": "scheduledFor",
          "type": "uint256"
        }
      ],
      "name": "ScheduledUnstake",
      "type": "event"
    },
    {
      "anonymous": false,
      "inputs": [
        {
          "indexed": false,
          "internalType": "uint256",
          "name": "oldAprUpdateCoefficient",
          "type": "uint256"
        },
        {
          "indexed": false,
          "internalType": "uint256",
          "name": "aprUpdateCoefficient",
          "type": "uint256"
        }
      ],
      "name": "SetAprUpdateCoefficient",
      "type": "event"
    },
    {
      "anonymous": false,
      "inputs": [
        {
          "indexed": false,
          "internalType": "address",
          "name": "claimsManager",
          "type": "address"
        },
        {
          "indexed": false,
          "internalType": "bool",
          "name": "status",
          "type": "bool"
        }
      ],
      "name": "SetClaimsManagerStatus",
      "type": "event"
    },
    {
      "anonymous": false,
      "inputs": [
        {
          "indexed": false,
          "internalType": "address",
          "name": "daoAgent",
          "type": "address"
        }
      ],
      "name": "SetDaoAgent",
      "type": "event"
    },
    {
      "anonymous": false,
      "inputs": [
        {
          "indexed": false,
          "internalType": "uint256",
          "name": "oldMaxApr",
          "type": "uint256"
        },
        {
          "indexed": false,
          "internalType": "uint256",
          "name": "maxApr",
          "type": "uint256"
        }
      ],
      "name": "SetMaxApr",
      "type": "event"
    },
    {
      "anonymous": false,
      "inputs": [
        {
          "indexed": false,
          "internalType": "uint256",
          "name": "oldMinApr",
          "type": "uint256"
        },
        {
          "indexed": false,
          "internalType": "uint256",
          "name": "minApr",
          "type": "uint256"
        }
      ],
      "name": "SetMinApr",
      "type": "event"
    },
    {
      "anonymous": false,
      "inputs": [
        {
          "indexed": false,
          "internalType": "uint256",
          "name": "oldProposalVotingPowerThreshold",
          "type": "uint256"
        },
        {
          "indexed": false,
          "internalType": "uint256",
          "name": "proposalVotingPowerThreshold",
          "type": "uint256"
        }
      ],
      "name": "SetProposalVotingPowerThreshold",
      "type": "event"
    },
    {
      "anonymous": false,
      "inputs": [
        {
          "indexed": false,
          "internalType": "uint256",
          "name": "oldTarget",
          "type": "uint256"
        },
        {
          "indexed": false,
          "internalType": "uint256",
          "name": "newTarget",
          "type": "uint256"
        }
      ],
      "name": "SetStakeTarget",
      "type": "event"
    },
    {
      "anonymous": false,
      "inputs": [
        {
          "indexed": false,
          "internalType": "uint256",
          "name": "oldUnstakeWaitPeriod",
          "type": "uint256"
        },
        {
          "indexed": false,
          "internalType": "uint256",
          "name": "unstakeWaitPeriod",
          "type": "uint256"
        }
      ],
      "name": "SetUnstakeWaitPeriod",
      "type": "event"
    },
    {
      "anonymous": false,
      "inputs": [
        {
          "indexed": true,
          "internalType": "address",
          "name": "user",
          "type": "address"
        },
        {
          "indexed": false,
          "internalType": "uint256",
          "name": "amount",
          "type": "uint256"
        }
      ],
      "name": "Staked",
      "type": "event"
    },
    {
      "anonymous": false,
      "inputs": [
        {
          "indexed": true,
          "internalType": "address",
          "name": "user",
          "type": "address"
        },
        {
          "indexed": true,
          "internalType": "address",
          "name": "delegate",
          "type": "address"
        }
      ],
      "name": "Undelegated",
      "type": "event"
    },
    {
      "anonymous": false,
      "inputs": [
        {
          "indexed": true,
          "internalType": "address",
          "name": "user",
          "type": "address"
        },
        {
          "indexed": false,
          "internalType": "uint256",
          "name": "amount",
          "type": "uint256"
        }
      ],
      "name": "Unstaked",
      "type": "event"
    },
    {
      "anonymous": false,
      "inputs": [
        {
          "indexed": true,
          "internalType": "address",
          "name": "user",
          "type": "address"
        },
        {
          "indexed": true,
          "internalType": "address",
          "name": "timelockManagerAddress",
          "type": "address"
        },
        {
          "indexed": false,
          "internalType": "uint256",
          "name": "remainingAmount",
          "type": "uint256"
        }
      ],
      "name": "UpdatedTimelock",
      "type": "event"
    },
    {
      "anonymous": false,
      "inputs": [
        {
          "indexed": true,
          "internalType": "address",
          "name": "user",
          "type": "address"
        },
        {
          "indexed": true,
          "internalType": "address",
          "name": "destination",
          "type": "address"
        },
        {
          "indexed": false,
          "internalType": "uint256",
          "name": "amount",
          "type": "uint256"
        }
      ],
      "name": "Withdrawn",
      "type": "event"
    },
    {
      "inputs": [],
      "name": "EPOCH_LENGTH",
      "outputs": [
        {
          "internalType": "uint256",
          "name": "",
          "type": "uint256"
        }
      ],
      "stateMutability": "view",
      "type": "function"
    },
    {
      "inputs": [],
      "name": "REWARD_VESTING_PERIOD",
      "outputs": [
        {
          "internalType": "uint256",
          "name": "",
          "type": "uint256"
        }
      ],
      "stateMutability": "view",
      "type": "function"
    },
    {
      "inputs": [],
      "name": "api3Token",
      "outputs": [
        {
          "internalType": "contract IApi3Token",
          "name": "",
          "type": "address"
        }
      ],
      "stateMutability": "view",
      "type": "function"
    },
    {
      "inputs": [],
      "name": "aprUpdateCoefficient",
      "outputs": [
        {
          "internalType": "uint256",
          "name": "",
          "type": "uint256"
        }
      ],
      "stateMutability": "view",
      "type": "function"
    },
    {
      "inputs": [
        {
          "internalType": "address",
          "name": "userAddress",
          "type": "address"
        }
      ],
      "name": "balanceOf",
      "outputs": [
        {
          "internalType": "uint256",
          "name": "",
          "type": "uint256"
        }
      ],
      "stateMutability": "view",
      "type": "function"
    },
    {
      "inputs": [
        {
          "internalType": "address",
          "name": "userAddress",
          "type": "address"
        },
        {
          "internalType": "uint256",
          "name": "fromBlock",
          "type": "uint256"
        }
      ],
      "name": "balanceOfAt",
      "outputs": [
        {
          "internalType": "uint256",
          "name": "",
          "type": "uint256"
        }
      ],
      "stateMutability": "view",
      "type": "function"
    },
    {
      "inputs": [
        {
          "internalType": "address",
          "name": "",
          "type": "address"
        }
      ],
      "name": "claimsManagerStatus",
      "outputs": [
        {
          "internalType": "bool",
          "name": "",
          "type": "bool"
        }
      ],
      "stateMutability": "view",
      "type": "function"
    },
    {
      "inputs": [],
      "name": "currentApr",
      "outputs": [
        {
          "internalType": "uint256",
          "name": "",
          "type": "uint256"
        }
      ],
      "stateMutability": "view",
      "type": "function"
    },
    {
      "inputs": [],
      "name": "daoAgent",
      "outputs": [
        {
          "internalType": "address",
          "name": "",
          "type": "address"
        }
      ],
      "stateMutability": "view",
      "type": "function"
    },
    {
      "inputs": [
        {
          "internalType": "address",
          "name": "delegate",
          "type": "address"
        }
      ],
      "name": "delegateVotingPower",
      "outputs": [],
      "stateMutability": "nonpayable",
      "type": "function"
    },
    {
      "inputs": [
        {
          "internalType": "address",
          "name": "source",
          "type": "address"
        },
        {
          "internalType": "uint256",
          "name": "amount",
          "type": "uint256"
        },
        {
          "internalType": "address",
          "name": "userAddress",
          "type": "address"
        }
      ],
      "name": "deposit",
      "outputs": [],
      "stateMutability": "nonpayable",
      "type": "function"
    },
    {
      "inputs": [
        {
          "internalType": "address",
          "name": "source",
          "type": "address"
        },
        {
          "internalType": "uint256",
          "name": "amount",
          "type": "uint256"
        },
        {
          "internalType": "address",
          "name": "userAddress",
          "type": "address"
        }
      ],
      "name": "depositAndStake",
      "outputs": [],
      "stateMutability": "nonpayable",
      "type": "function"
    },
    {
      "inputs": [
        {
          "internalType": "address",
          "name": "source",
          "type": "address"
        },
        {
          "internalType": "uint256",
          "name": "amount",
          "type": "uint256"
        },
        {
          "internalType": "address",
          "name": "userAddress",
          "type": "address"
        },
        {
          "internalType": "uint256",
          "name": "releaseStart",
          "type": "uint256"
        },
        {
          "internalType": "uint256",
          "name": "releaseEnd",
          "type": "uint256"
        }
      ],
      "name": "depositWithVesting",
      "outputs": [],
      "stateMutability": "nonpayable",
      "type": "function"
    },
    {
      "inputs": [],
      "name": "epochIndexOfLastRewardPayment",
      "outputs": [
        {
          "internalType": "uint256",
          "name": "",
          "type": "uint256"
        }
      ],
      "stateMutability": "view",
      "type": "function"
    },
    {
      "inputs": [
        {
          "internalType": "uint256",
          "name": "",
          "type": "uint256"
        }
      ],
      "name": "epochIndexToReward",
      "outputs": [
        {
          "internalType": "uint256",
          "name": "atBlock",
          "type": "uint256"
        },
        {
          "internalType": "uint256",
          "name": "amount",
          "type": "uint256"
        },
        {
          "internalType": "uint256",
          "name": "totalSharesThen",
          "type": "uint256"
        }
      ],
      "stateMutability": "view",
      "type": "function"
    },
    {
      "inputs": [],
      "name": "genesisEpoch",
      "outputs": [
        {
          "internalType": "uint256",
          "name": "",
          "type": "uint256"
        }
      ],
      "stateMutability": "view",
      "type": "function"
    },
    {
      "inputs": [
        {
          "internalType": "address",
          "name": "userAddress",
          "type": "address"
        }
      ],
      "name": "getUserLocked",
      "outputs": [
        {
          "internalType": "uint256",
          "name": "",
          "type": "uint256"
        }
      ],
      "stateMutability": "nonpayable",
      "type": "function"
    },
    {
      "inputs": [
        {
          "internalType": "address",
          "name": "userAddress",
          "type": "address"
        },
        {
          "internalType": "uint256",
          "name": "targetEpoch",
          "type": "uint256"
        }
      ],
      "name": "getUserLockedAt",
      "outputs": [
        {
          "internalType": "uint256",
          "name": "",
          "type": "uint256"
        }
      ],
      "stateMutability": "nonpayable",
      "type": "function"
    },
    {
      "inputs": [],
      "name": "maxApr",
      "outputs": [
        {
          "internalType": "uint256",
          "name": "",
          "type": "uint256"
        }
      ],
      "stateMutability": "view",
      "type": "function"
    },
    {
      "inputs": [],
      "name": "minApr",
      "outputs": [
        {
          "internalType": "uint256",
          "name": "",
          "type": "uint256"
        }
      ],
      "stateMutability": "view",
      "type": "function"
    },
    {
      "inputs": [
        {
          "internalType": "address",
          "name": "recipient",
          "type": "address"
        },
        {
          "internalType": "uint256",
          "name": "amount",
          "type": "uint256"
        }
      ],
      "name": "payOutClaim",
      "outputs": [],
      "stateMutability": "nonpayable",
      "type": "function"
    },
    {
      "inputs": [],
      "name": "payReward",
      "outputs": [],
      "stateMutability": "nonpayable",
      "type": "function"
    },
    {
      "inputs": [],
      "name": "proposalVotingPowerThreshold",
      "outputs": [
        {
          "internalType": "uint256",
          "name": "",
          "type": "uint256"
        }
      ],
      "stateMutability": "view",
      "type": "function"
    },
    {
      "inputs": [
        {
          "internalType": "uint256",
          "name": "proposalIndex",
          "type": "uint256"
        },
        {
          "internalType": "string",
          "name": "specsUrl",
          "type": "string"
        }
      ],
      "name": "publishSpecsUrl",
      "outputs": [],
      "stateMutability": "nonpayable",
      "type": "function"
    },
    {
      "inputs": [
        {
          "internalType": "uint256",
          "name": "amount",
          "type": "uint256"
        }
      ],
      "name": "scheduleUnstake",
      "outputs": [],
      "stateMutability": "nonpayable",
      "type": "function"
    },
    {
      "inputs": [
        {
          "internalType": "uint256",
          "name": "_aprUpdateCoefficient",
          "type": "uint256"
        }
      ],
      "name": "setAprUpdateCoefficient",
      "outputs": [],
      "stateMutability": "nonpayable",
      "type": "function"
    },
    {
      "inputs": [
        {
          "internalType": "address",
          "name": "claimsManager",
          "type": "address"
        },
        {
          "internalType": "bool",
          "name": "status",
          "type": "bool"
        }
      ],
      "name": "setClaimsManagerStatus",
      "outputs": [],
      "stateMutability": "nonpayable",
      "type": "function"
    },
    {
      "inputs": [
        {
          "internalType": "address",
          "name": "_daoAgent",
          "type": "address"
        }
      ],
      "name": "setDaoAgent",
      "outputs": [],
      "stateMutability": "nonpayable",
      "type": "function"
    },
    {
      "inputs": [
        {
          "internalType": "uint256",
          "name": "_maxApr",
          "type": "uint256"
        }
      ],
      "name": "setMaxApr",
      "outputs": [],
      "stateMutability": "nonpayable",
      "type": "function"
    },
    {
      "inputs": [
        {
          "internalType": "uint256",
          "name": "_minApr",
          "type": "uint256"
        }
      ],
      "name": "setMinApr",
      "outputs": [],
      "stateMutability": "nonpayable",
      "type": "function"
    },
    {
      "inputs": [
        {
          "internalType": "uint256",
          "name": "_proposalVotingPowerThreshold",
          "type": "uint256"
        }
      ],
      "name": "setProposalVotingPowerThreshold",
      "outputs": [],
      "stateMutability": "nonpayable",
      "type": "function"
    },
    {
      "inputs": [
        {
          "internalType": "uint256",
          "name": "_stakeTarget",
          "type": "uint256"
        }
      ],
      "name": "setStakeTarget",
      "outputs": [],
      "stateMutability": "nonpayable",
      "type": "function"
    },
    {
      "inputs": [
        {
          "internalType": "uint256",
          "name": "_unstakeWaitPeriod",
          "type": "uint256"
        }
      ],
      "name": "setUnstakeWaitPeriod",
      "outputs": [],
      "stateMutability": "nonpayable",
      "type": "function"
    },
    {
      "inputs": [
        {
          "internalType": "uint256",
          "name": "amount",
          "type": "uint256"
        }
      ],
      "name": "stake",
      "outputs": [],
      "stateMutability": "nonpayable",
      "type": "function"
    },
    {
      "inputs": [],
      "name": "stakeTarget",
      "outputs": [
        {
          "internalType": "uint256",
          "name": "",
          "type": "uint256"
        }
      ],
      "stateMutability": "view",
      "type": "function"
    },
    {
      "inputs": [
        {
          "internalType": "uint256",
          "name": "",
          "type": "uint256"
        }
      ],
      "name": "totalShares",
      "outputs": [
        {
          "internalType": "uint256",
          "name": "fromBlock",
          "type": "uint256"
        },
        {
          "internalType": "uint256",
          "name": "value",
          "type": "uint256"
        }
      ],
      "stateMutability": "view",
      "type": "function"
    },
    {
      "inputs": [],
      "name": "totalStake",
      "outputs": [
        {
          "internalType": "uint256",
          "name": "",
          "type": "uint256"
        }
      ],
      "stateMutability": "view",
      "type": "function"
    },
    {
      "inputs": [
        {
          "internalType": "uint256",
          "name": "fromBlock",
          "type": "uint256"
        }
      ],
      "name": "totalStakeAt",
      "outputs": [
        {
          "internalType": "uint256",
          "name": "",
          "type": "uint256"
        }
      ],
      "stateMutability": "view",
      "type": "function"
    },
    {
      "inputs": [
        {
          "internalType": "uint256",
          "name": "",
          "type": "uint256"
        }
      ],
      "name": "totalStaked",
      "outputs": [
        {
          "internalType": "uint256",
          "name": "fromBlock",
          "type": "uint256"
        },
        {
          "internalType": "uint256",
          "name": "value",
          "type": "uint256"
        }
      ],
      "stateMutability": "view",
      "type": "function"
    },
    {
      "inputs": [],
      "name": "totalSupply",
      "outputs": [
        {
          "internalType": "uint256",
          "name": "",
          "type": "uint256"
        }
      ],
      "stateMutability": "view",
      "type": "function"
    },
    {
      "inputs": [
        {
          "internalType": "uint256",
          "name": "fromBlock",
          "type": "uint256"
        }
      ],
      "name": "totalSupplyAt",
      "outputs": [
        {
          "internalType": "uint256",
          "name": "",
          "type": "uint256"
        }
      ],
      "stateMutability": "view",
      "type": "function"
    },
    {
      "inputs": [],
      "name": "undelegateVotingPower",
      "outputs": [],
      "stateMutability": "nonpayable",
      "type": "function"
    },
    {
      "inputs": [],
      "name": "unstake",
      "outputs": [
        {
          "internalType": "uint256",
          "name": "",
          "type": "uint256"
        }
      ],
      "stateMutability": "nonpayable",
      "type": "function"
    },
    {
      "inputs": [
        {
          "internalType": "address",
          "name": "destination",
          "type": "address"
        }
      ],
      "name": "unstakeAndWithdraw",
      "outputs": [],
      "stateMutability": "nonpayable",
      "type": "function"
    },
    {
      "inputs": [],
      "name": "unstakeWaitPeriod",
      "outputs": [
        {
          "internalType": "uint256",
          "name": "",
          "type": "uint256"
        }
      ],
      "stateMutability": "view",
      "type": "function"
    },
    {
      "inputs": [
        {
          "internalType": "address",
          "name": "userAddress",
          "type": "address"
        },
        {
          "internalType": "address",
          "name": "timelockManagerAddress",
          "type": "address"
        }
      ],
      "name": "updateTimelockStatus",
      "outputs": [],
      "stateMutability": "nonpayable",
      "type": "function"
    },
    {
      "inputs": [
        {
          "internalType": "address",
          "name": "",
          "type": "address"
        },
        {
          "internalType": "uint256",
          "name": "",
          "type": "uint256"
        }
      ],
      "name": "userAddressToProposalIndexToSpecsUrl",
      "outputs": [
        {
          "internalType": "string",
          "name": "",
          "type": "string"
        }
      ],
      "stateMutability": "view",
      "type": "function"
    },
    {
      "inputs": [
        {
          "internalType": "address",
          "name": "userAddress",
          "type": "address"
        }
      ],
      "name": "userDelegate",
      "outputs": [
        {
          "internalType": "address",
          "name": "",
          "type": "address"
        }
      ],
      "stateMutability": "view",
      "type": "function"
    },
    {
      "inputs": [
        {
          "internalType": "uint256",
          "name": "_block",
          "type": "uint256"
        },
        {
          "internalType": "address",
          "name": "userAddress",
          "type": "address"
        }
      ],
      "name": "userDelegateAt",
      "outputs": [
        {
          "internalType": "address",
          "name": "",
          "type": "address"
        }
      ],
      "stateMutability": "view",
      "type": "function"
    },
    {
      "inputs": [
        {
          "internalType": "address",
          "name": "userAddress",
          "type": "address"
        }
      ],
      "name": "userReceivedDelegation",
      "outputs": [
        {
          "internalType": "uint256",
          "name": "",
          "type": "uint256"
        }
      ],
      "stateMutability": "view",
      "type": "function"
    },
    {
      "inputs": [
        {
          "internalType": "uint256",
          "name": "fromBlock",
          "type": "uint256"
        },
        {
          "internalType": "address",
          "name": "userAddress",
          "type": "address"
        }
      ],
      "name": "userReceivedDelegationAt",
      "outputs": [
        {
          "internalType": "uint256",
          "name": "",
          "type": "uint256"
        }
      ],
      "stateMutability": "view",
      "type": "function"
    },
    {
      "inputs": [
        {
          "internalType": "address",
          "name": "userAddress",
          "type": "address"
        }
      ],
      "name": "userShares",
      "outputs": [
        {
          "internalType": "uint256",
          "name": "",
          "type": "uint256"
        }
      ],
      "stateMutability": "view",
      "type": "function"
    },
    {
      "inputs": [
        {
          "internalType": "uint256",
          "name": "fromBlock",
          "type": "uint256"
        },
        {
          "internalType": "address",
          "name": "userAddress",
          "type": "address"
        }
      ],
      "name": "userSharesAt",
      "outputs": [
        {
          "internalType": "uint256",
          "name": "",
          "type": "uint256"
        }
      ],
      "stateMutability": "view",
      "type": "function"
    },
    {
      "inputs": [
        {
          "internalType": "address",
          "name": "userAddress",
          "type": "address"
        }
      ],
      "name": "userStake",
      "outputs": [
        {
          "internalType": "uint256",
          "name": "",
          "type": "uint256"
        }
      ],
      "stateMutability": "view",
      "type": "function"
    },
    {
      "inputs": [
        {
          "internalType": "uint256",
          "name": "fromBlock",
          "type": "uint256"
        },
        {
          "internalType": "address",
          "name": "userAddress",
          "type": "address"
        }
      ],
      "name": "userStakeAt",
      "outputs": [
        {
          "internalType": "uint256",
          "name": "",
          "type": "uint256"
        }
      ],
      "stateMutability": "view",
      "type": "function"
    },
    {
      "inputs": [
        {
          "internalType": "address",
          "name": "",
          "type": "address"
        },
        {
          "internalType": "address",
          "name": "",
          "type": "address"
        }
      ],
      "name": "userToDepositorToTimelock",
      "outputs": [
        {
          "internalType": "uint256",
          "name": "totalAmount",
          "type": "uint256"
        },
        {
          "internalType": "uint256",
          "name": "remainingAmount",
          "type": "uint256"
        },
        {
          "internalType": "uint256",
          "name": "releaseStart",
          "type": "uint256"
        },
        {
          "internalType": "uint256",
          "name": "releaseEnd",
          "type": "uint256"
        }
      ],
      "stateMutability": "view",
      "type": "function"
    },
    {
      "inputs": [
        {
          "internalType": "address",
          "name": "",
          "type": "address"
        }
      ],
      "name": "users",
      "outputs": [
        {
          "internalType": "uint256",
          "name": "unstaked",
          "type": "uint256"
        },
        {
          "internalType": "uint256",
          "name": "vesting",
          "type": "uint256"
        },
        {
          "internalType": "uint256",
          "name": "lastDelegationUpdateTimestamp",
          "type": "uint256"
        },
        {
          "internalType": "uint256",
          "name": "unstakeScheduledFor",
          "type": "uint256"
        },
        {
          "internalType": "uint256",
          "name": "unstakeAmount",
          "type": "uint256"
        }
      ],
      "stateMutability": "view",
      "type": "function"
    },
    {
      "inputs": [
        {
          "internalType": "address",
          "name": "destination",
          "type": "address"
        },
        {
          "internalType": "uint256",
          "name": "amount",
          "type": "uint256"
        }
      ],
      "name": "withdraw",
      "outputs": [],
      "stateMutability": "nonpayable",
      "type": "function"
    }
  ],
  "bytecode": "0x60a06040526301c9c380600855622625a060095563047868c0600a55620f4240600b5562093a80600c55620186a0600d55600a54600e553480156200004357600080fd5b50604051620037e5380380620037e58339810160408190526200006691620001a1565b600080546001600160a01b0383166001600160a01b03199091161781556040805180820182524380825260016020808401828152600780548085018255908852945160029586027fa66cc928b5edb82af9bd49922954155ab7b0942694bea4ce44661d9a8736c68881019190915590517fa66cc928b5edb82af9bd49922954155ab7b0942694bea4ce44661d9a8736c6899091015584518086019095529184529083018181526006805492830181558552925191027ff652222313e28459528d920b65115c16c04f3efc82aaedc97be59f3f377c0d3f81019190915590517ff652222313e28459528d920b65115c16c04f3efc82aaedc97be59f3f377c0d4090910155819081908190819081908190819081906200018862093a8042620001d1565b608081905260045550620001f298505050505050505050565b600060208284031215620001b3578081fd5b81516001600160a01b0381168114620001ca578182fd5b9392505050565b600082620001ed57634e487b7160e01b81526012600452602481fd5b500490565b6080516135c96200021c6000396000818161074301528181612250015261228401526135c96000f3fe608060405234801561001057600080fd5b506004361061038e5760003560e01c80637fd63875116101de578063b3609b531161010f578063ea26afd7116100ad578063f45346dc1161007c578063f45346dc14610853578063f68308c714610866578063f8b7652714610879578063fcde28cc1461088c5761038e565b8063ea26afd714610807578063f32ca51f1461081a578063f3fef3a31461082d578063f3ff955a146108405761038e565b8063e14b5fac116100e9578063e14b5fac14610778578063e3b341741461078b578063e45bebc11461079e578063e7460a52146107fe5761038e565b8063b3609b5314610735578063b70e6be61461073e578063de69b3aa146107655761038e565b8063975f25341161017c578063a694fc3a11610156578063a694fc3a146106a0578063a87430ba146106b3578063ac4746ab14610718578063b330fc53146107225761038e565b8063975f253414610671578063981b24d01461067a578063a17824fe1461068d5761038e565b80638e1998f4116101b85780638e1998f41461060f57806392093b361461062257806393b824e41461062b5780639745f5631461063e5761038e565b80637fd63875146105e157806389bb1d62146105f45780638b0e9f3f146106075761038e565b80634c44bbea116102c357806361b9ebf31161026157806372484d141161023057806372484d14146105aa578063756b2a8b146105bd5780637842a3a4146105d0578063784b3c5d146105d85761038e565b806361b9ebf3146105515780636367f36f1461057157806368e5585d1461058457806370a08231146105975761038e565b80634f322ae81161029d5780634f322ae81461051a57806356d4a7fe146105235780635856130a14610536578063613d517d1461053e5761038e565b80634c44bbea146104eb5780634eb05c47146104fe5780634ee2cd7e146105075761038e565b80632cacc0cb116103305780634091fd3f1161030a5780634091fd3f1461047257806341cb8c20146104bc5780634a03d92c146104cf5780634b6be8d2146104e25761038e565b80632cacc0cb1461044f5780632def6620146104625780633c37d05a1461046a5761038e565b806313f2dad01161036c57806313f2dad0146103ce57806317060b28146103fb57806318160ddd14610426578063276e00581461043c5761038e565b8063054fbb8414610393578063106d08df146103a857806311281a19146103bb575b600080fd5b6103a66103a1366004613227565b61089f565b005b6103a66103b6366004613363565b610a9e565b6103a66103c93660046132b8565b610db9565b6103e16103dc366004613363565b610e1f565b604080519283526020830191909152015b60405180910390f35b60015461040e906001600160a01b031681565b6040516001600160a01b0390911681526020016103f2565b61042e610e4d565b6040519081526020016103f2565b61042e61044a366004613363565b610e5d565b6103a661045d36600461328f565b610e72565b61042e61107b565b6103a6611345565b6104a1610480366004613363565b60036020526000908152604090208054600182015460029092015490919083565b604080519384526020840192909252908201526060016103f2565b6103e16104ca366004613363565b6114d2565b61040e6104dd366004613393565b6114e2565b61042e600b5481565b6103a66104f9366004613363565b611510565b61042e60085481565b61042e61051536600461328f565b6115ff565b61042e600e5481565b6103a66105313660046132f3565b611651565b61042e603481565b60005461040e906001600160a01b031681565b61056461055f36600461328f565b6118a5565b6040516103f2919061342c565b6103a661057f36600461320d565b61194a565b61042e61059236600461320d565b611964565b61042e6105a536600461320d565b611970565b6103a66105b83660046133b5565b61197c565b6103a66105cb366004613363565b6119e4565b6103a6611abd565b61042e60095481565b6103a66105ef366004613363565b611ceb565b61042e610602366004613393565b611dcf565b61042e611df4565b61042e61061d366004613393565b611dff565b61042e600a5481565b61042e610639366004613393565b611e24565b61066161064c36600461320d565b60026020526000908152604090205460ff1681565b60405190151581526020016103f2565b61042e60045481565b61042e610688366004613363565b611e56565b61042e61069b36600461320d565b611e63565b6103a66106ae366004613363565b611e6f565b6106f06106c136600461320d565b600560208190526000918252604090912080546001820154928201546006830154600790930154919392909185565b604080519586526020860194909452928401919091526060830152608082015260a0016103f2565b61042e62093a8081565b61040e61073036600461320d565b612042565b61042e600d5481565b61042e7f000000000000000000000000000000000000000000000000000000000000000081565b61042e61077336600461320d565b61204e565b61042e61078636600461320d565b61205a565b6103a6610799366004613363565b61206d565b6107de6107ac366004613227565b601060209081526000928352604080842090915290825290208054600182015460028301546003909301549192909184565b6040805194855260208501939093529183015260608201526080016103f2565b61042e600c5481565b6103a6610815366004613363565b612146565b61042e61082836600461328f565b61222b565b6103a661083b36600461328f565b612346565b6103a661084e36600461320d565b612506565b6103a66108613660046132b8565b6127af565b6103a6610874366004613259565b6128ba565b6103a661088736600461320d565b612966565b6103a661089a366004613363565b612a5b565b6001600160a01b03808316600090815260106020908152604080832093851683529281529082902060028101548351808501909452600c84526b155b985d5d1a1bdc9a5e995960a21b92840192909252919042116109195760405162461bcd60e51b8152600401610910919061342c565b60405180910390fd5b5060008160010154116040518060400160405280600c81526020016b155b985d5d1a1bdc9a5e995960a21b815250906109655760405162461bcd60e51b8152600401610910919061342c565b5060008160030154421061097b575080546109c7565b600082600201544261098d919061351d565b90506000836002015484600301546109a5919061351d565b9050808285600001546109b891906134fe565b6109c291906134de565b925050505b600182015482546000916109da9161351d565b905060006109e8828461351d565b6001600160a01b0387166000908152600560205260409020600181015491925090610a1490839061351d565b81600101819055506000828660010154610a2e919061351d565b6001600160a01b038981166000818152601060209081526040808320948d16808452948252918290206001018590559051848152939450919290917f760cee05d81d0fd6dddc4db40caa8754661e5fb9f9910b9b2390e43c728d1816910160405180910390a35050505050505050565b610aa6611abd565b6000610ab26006612b32565b90506000610ac06007612b32565b336000908152600560205260408120919250610ade60028301612b32565b9050600083610aed86846134fe565b610af791906134de565b9050858110156040518060400160405280600d81526020016c496e76616c69642076616c756560981b81525090610b415760405162461bcd60e51b8152600401610910919061342c565b506000610b5162093a80426134de565b600081815260088601602052604090205490915060ff16610d54576000818152600360205260409020600181015415610d52576000610b9560078360000154612b3a565b610ba6876002018460000154612b3a565b8360010154610bb591906134fe565b610bbf91906134de565b9050600084610bce838b6134c6565b610bd8919061351d565b610be289876134fe565b610bec8b896134fe565b610bf68b866134fe565b610c0091906134c6565b610c0a919061351d565b610c1491906134de565b90508015610d4f5760408051808201909152600c81526b155b985d5d1a1bdc9a5e995960a21b6020820152868210610c5f5760405162461bcd60e51b8152600401610910919061342c565b50610c6a818761351d565b9550610c76818961351d565b6040805180820182524380825260208083018b81526002808e0180546001818101835560009283528583209751918402909701908155925192860192909255855180870190965292855290840185815260078054948501815582529351929091027fa66cc928b5edb82af9bd49922954155ab7b0942694bea4ce44661d9a8736c68881019290925591517fa66cc928b5edb82af9bd49922954155ab7b0942694bea4ce44661d9a8736c68990910155909850610d33908290612ced565b60008481526008880160205260409020805460ff191660011790555b50505b505b600c54610d6190426134c6565b600685018190556007850188905560405133917fe0ac335d66944a141a2309a52c28f3ebe4313106ef590045c27a46336d66254891610da8918b8252602082015260400190565b60405180910390a250505050505050565b60408051808201909152600c81526b155b985d5d1a1bdc9a5e995960a21b60208201526001600160a01b0382163314610e055760405162461bcd60e51b8152600401610910919061342c565b50610e118383836127af565b610e1a82611e6f565b505050565b60078181548110610e2f57600080fd5b60009182526020909120600290910201805460019091015490915082565b6000610e5843611e56565b905090565b6000610e6a600683612b3a565b90505b919050565b610e7a611abd565b33600090815260026020908152604091829020548251808401909352600c83526b155b985d5d1a1bdc9a5e995960a21b9183019190915260ff16610ed15760405162461bcd60e51b8152600401610910919061342c565b506000610ede6006612b32565b90508181116040518060400160405280600d81526020016c496e76616c69642076616c756560981b81525090610f275760405162461bcd60e51b8152600401610910919061342c565b506000610f34838361351d565b6040805180820182524381526020810183815260068054600181018255600091825292517ff652222313e28459528d920b65115c16c04f3efc82aaedc97be59f3f377c0d3f60029094029384015590517ff652222313e28459528d920b65115c16c04f3efc82aaedc97be59f3f377c0d409092019190915554905163a9059cbb60e01b81526001600160a01b0387811660048301526024820187905292935091169063a9059cbb90604401602060405180830381600087803b158015610ff957600080fd5b505af115801561100d573d6000803e3d6000fd5b505050506040513d601f19601f820116820180604052508101906110319190613340565b50836001600160a01b03167f69012b8bdee54006564cf8bf08b89cccd4d86713e4ebc2443760c02fe9a9a0928460405161106d91815260200190565b60405180910390a250505050565b6000611085611abd565b3360009081526005602090815260409182902060068101548351808501909452600c84526b155b985d5d1a1bdc9a5e995960a21b92840192909252919042116110e15760405162461bcd60e51b8152600401610910919061342c565b5062093a8081600601546110f591906134c6565b42106040518060400160405280600c81526020016b155b985d5d1a1bdc9a5e995960a21b8152509061113a5760405162461bcd60e51b8152600401610910919061342c565b5060008160070154905060006111506007612b32565b9050600061115e6006612b32565b9050600061116e85600201612b32565b905060008261117d86866134fe565b61118791906134de565b9050818111156111ab5750808361119e84836134fe565b6111a891906134de565b94505b85546111b89086906134c6565b8655604080518082019091524381526002870190602081016111da848661351d565b9052815460018181018455600093845260209384902083516002909302019182559183015191015560408051808201909152438152600791810183871161122257600161122c565b61122c848861351d565b90528154600181810184556000938452602080852084516002909402019283559092015191015561125e908290612ced565b600085841161126e576001611278565b611278868561351d565b60408051808201825243815260208101838152600680546001810182556000828152935160029091027ff652222313e28459528d920b65115c16c04f3efc82aaedc97be59f3f377c0d3f81019190915591517ff652222313e28459528d920b65115c16c04f3efc82aaedc97be59f3f377c0d40909201919091558a0181905560078a01555190915033907f0f5bb82176feb1b5e747e28471aa92156a04d9f3ab9f45f28e2d704232b93f75906113319089815260200190565b60405180910390a250939550505050505090565b3360009081526005602052604081209061136160038301612dc0565b90506001600160a01b0381161580159061138b575061138362093a804261351d565b826005015411155b6040518060400160405280600c81526020016b155b985d5d1a1bdc9a5e995960a21b815250906113ce5760405162461bcd60e51b8152600401610910919061342c565b5060006113dd83600201612b32565b6001600160a01b038316600090815260056020908152604091829020825180840190935243835292935060048301919081018461141984612b32565b611423919061351d565b90528154600180820184556000938452602080852084516002948502909101908155938101519382019390935560408051808201825243815280850186815260038b0180548086018255908852958720915195909402019384559151920180546001600160a01b0319166001600160a01b03938416179055426005880155519085169133917f1af5b1c85495b3618ea659a1ba256c8b8974b437297d3b914e321e086a28da729190a350505050565b60068181548110610e2f57600080fd5b6001600160a01b03811660009081526005602052604081206115079060030184612dc8565b90505b92915050565b60015460408051808201909152600c81526b155b985d5d1a1bdc9a5e995960a21b6020820152906001600160a01b0316331461155f5760405162461bcd60e51b8152600401610910919061342c565b50633b9aca0081111580156115745750600081115b6040518060400160405280600d81526020016c496e76616c69642076616c756560981b815250906115b85760405162461bcd60e51b8152600401610910919061342c565b50600b80549082905560408051828152602081018490527f4de420187ffacdcdd815dbe0650c4876104766f6b77ab447b45613747c23903791015b60405180910390a15050565b60008061160c83856114e2565b6001600160a01b0316146116225750600061150a565b600061162e8385611dcf565b9050600061163c8486611dff565b905061164881836134c6565b95945050505050565b6001600160a01b0383166000908152601060209081526040808320338452825291829020600101548251808401909352600c83526b155b985d5d1a1bdc9a5e995960a21b91830191909152156116ba5760405162461bcd60e51b8152600401610910919061342c565b5081811180156116c957508315155b6040518060400160405280600d81526020016c496e76616c69642076616c756560981b8152509061170d5760405162461bcd60e51b8152600401610910919061342c565b506001600160a01b0383166000908152600560205260409020546117329085906134c6565b6001600160a01b03841660009081526005602052604090209081556001015461175c9085906134c6565b6001600160a01b03848116600081815260056020908152604080832060019081019690965580516080810182528a81528083018b81528183018a8152606083018a815296865260108552838620338752909452828520915182555196810196909655905160028601559151600390940193909355915491516323b872dd60e01b81528782166004820152306024820152604481018790529116906323b872dd90606401602060405180830381600087803b15801561181957600080fd5b505af115801561182d573d6000803e3d6000fd5b505050506040513d601f19601f820116820180604052508101906118519190613340565b5060408051858152602081018490529081018290526001600160a01b038416907f4d2c5169b0ade12232f4f69bf95492a67a25767a255e750d3bc5c7505a4ec0da9060600160405180910390a25050505050565b600f602090815260009283526040808420909152908252902080546118c990613534565b80601f01602080910402602001604051908101604052809291908181526020018280546118f590613534565b80156119425780601f1061191757610100808354040283529160200191611942565b820191906000526020600020905b81548152906001019060200180831161192557829003601f168201915b505050505081565b600061195461107b565b90506119608282612346565b5050565b6000610e6a4383611e24565b6000610e6a82436115ff565b336000908152600f6020908152604080832086845290915290206119a190838361315d565b507f012313fee6bf5cebf32e8b879022ca7b1772ad88caea3dba4cdb0d08a3cf5718833384846040516119d7949392919061347f565b60405180910390a1505050565b60015460408051808201909152600c81526b155b985d5d1a1bdc9a5e995960a21b6020820152906001600160a01b03163314611a335760405162461bcd60e51b8152600401610910919061342c565b50600a548111156040518060400160405280600d81526020016c496e76616c69642076616c756560981b81525090611a7e5760405162461bcd60e51b8152600401610910919061342c565b50600980549082905560408051828152602081018490527fb716ede46671849441c512fd11a9c5a2dc35c8e2527f276d423088a871be09e191016115f3565b6000611acc62093a80426134de565b9050806004541015611ce85760005460405163bbb30c5d60e01b81523060048201526001600160a01b039091169063bbb30c5d9060240160206040518083038186803b158015611b1b57600080fd5b505afa158015611b2f573d6000803e3d6000fd5b505050506040513d601f19601f82011682018060405250810190611b539190613340565b15611ce2576000611b646006612b32565b9050611b6f81612f90565b60006305f5e1006034600e5484611b8691906134fe565b611b9091906134de565b611b9a91906134de565b90506040518060600160405280438152602001828152602001611bbd6007612b32565b9052600084815260036020908152604091829020835181559083015160018201559101516002909101558015611c9a576000546040516340c10f1960e01b8152306004820152602481018390526001600160a01b03909116906340c10f1990604401600060405180830381600087803b158015611c3957600080fd5b505af1158015611c4d573d6000803e3d6000fd5b50505050600660405180604001604052804381526020018385611c7091906134c6565b90528154600181810184556000938452602093849020835160029093020191825592909101519101555b827f460c3d9eee711013ca19dcb5315db471a382857fbd2d4361958a465c93bf9aad82600e54604051611cd7929190918252602082015260400190565b60405180910390a250505b60048190555b50565b60015460408051808201909152600c81526b155b985d5d1a1bdc9a5e995960a21b6020820152906001600160a01b03163314611d3a5760405162461bcd60e51b8152600401610910919061342c565b50611d49620f4240600a6134fe565b8111156040518060400160405280600d81526020016c496e76616c69642076616c756560981b81525090611d905760405162461bcd60e51b8152600401610910919061342c565b50600d80549082905560408051828152602081018490527fc0f8b066382313a28d6946c6b16228545528bfc5bdf98fcc5c481aa0c85654ef91016115f3565b6001600160a01b03811660009081526005602052604081206115079060020184612b3a565b6000610e5843610e5d565b6001600160a01b03811660009081526005602052604081206115079060040184612b3a565b6000611e2f83611e56565b611e3884610e5d565b611e428585611dcf565b611e4c91906134fe565b61150791906134de565b6000610e6a600783612b3a565b6000610e6a4383611dff565b611e77611abd565b3360009081526005602090815260409182902080548351808501909452600d84526c496e76616c69642076616c756560981b928401929092529190831115611ed25760405162461bcd60e51b8152600401610910919061342c565b508054611ee090839061351d565b81556000611eee6007612b32565b90506000611efc6006612b32565b9050600081611f0b86856134fe565b611f1591906134de565b90506000611f2585600201612b32565b90508460020160405180604001604052804381526020018484611f4891906134c6565b90528154600181810184556000938452602093849020835160029093020191825591830151910155604080518082019091524381526007918101611f8c85886134c6565b90528154600181810184556000938452602093849020835160029093020191825591830151910155604080518082019091524381526006918101611fd089876134c6565b905281546001818101845560009384526020938490208351600290930201918255929091015190820155612005908390612ced565b60405186815233907f9e71bc8eea02a63969f509818f2dafb9254532904319f9dbda79b67bd34a5f3d9060200160405180910390a2505050505050565b6000610e6a43836114e2565b6000610e6a4383611dcf565b6000610e6a8261082862093a80426134de565b60015460408051808201909152600c81526b155b985d5d1a1bdc9a5e995960a21b6020820152906001600160a01b031633146120bc5760405162461bcd60e51b8152600401610910919061342c565b506009548110156040518060400160405280600d81526020016c496e76616c69642076616c756560981b815250906121075760405162461bcd60e51b8152600401610910919061342c565b50600a80549082905560408051828152602081018490527f5fcfc26d11c92c09c71d9eae2b49aea32896b4203b9b9ec08b3d13e574eb5ec391016115f3565b60015460408051808201909152600c81526b155b985d5d1a1bdc9a5e995960a21b6020820152906001600160a01b031633146121955760405162461bcd60e51b8152600401610910919061342c565b506305f5e10081111580156121a8575060015b6040518060400160405280600d81526020016c496e76616c69642076616c756560981b815250906121ec5760405162461bcd60e51b8152600401610910919061342c565b50600880549082905560408051828152602081018490527f700ec58170a757bdf5c02a43e18d9708f88d1159fc6eb3b446f421dfe769ef3691016115f3565b6000612235611abd565b6001600160a01b0383166000908152600560205260408120907f000000000000000000000000000000000000000000000000000000000000000061227a60348661351d565b116122af576122aa7f000000000000000000000000000000000000000000000000000000000000000060016134c6565b6122c5565b6122ba60348561351d565b6122c59060016134c6565b90506000815b85811161233c5760008181526003602052604090208054156123295760006122fa866002018360000154612b3a565b9050816002015481836001015461231191906134fe565b61231b91906134de565b61232590856134c6565b9350505b506123358160016134c6565b90506122cb565b5095945050505050565b3360008181526005602052604081209161235f9061205a565b9050600082600101548261237391906134c6565b9050600061238033611964565b845461238c91906134c6565b905061239885836134c6565b8110156040518060400160405280600d81526020016c496e76616c69642076616c756560981b815250906123df5760405162461bcd60e51b8152600401610910919061342c565b50835460408051808201909152600d81526c496e76616c69642076616c756560981b6020820152908611156124275760405162461bcd60e51b8152600401610910919061342c565b50835461243590869061351d565b845560005460405163a9059cbb60e01b81526001600160a01b038881166004830152602482018890529091169063a9059cbb90604401602060405180830381600087803b15801561248557600080fd5b505af1158015612499573d6000803e3d6000fd5b505050506040513d601f19601f820116820180604052508101906124bd9190613340565b506040518581526001600160a01b0387169033907fd1c19fbcd4551a5edfb66d43d2e337c04837afda3482b42bdf569a8fccdae5fb9060200160405180910390a3505050505050565b6001600160a01b0381161580159061252757506001600160a01b0381163314155b80156125445750600061253982612042565b6001600160a01b0316145b6040518060400160405280600f81526020016e496e76616c6964206164647265737360881b8152509061258a5760405162461bcd60e51b8152600401610910919061342c565b503360009081526005602052604090206125a762093a804261351d565b816005015411156040518060400160405280600c81526020016b155b985d5d1a1bdc9a5e995960a21b815250906125f15760405162461bcd60e51b8152600401610910919061342c565b50426005820155600061260660028301612b32565b9050600061261683600301612dc0565b9050836001600160a01b0316816001600160a01b0316141561263a57505050611ce8565b6001600160a01b038116156126b7576001600160a01b038116600090815260056020908152604091829020825180840190935243835291600483019181018561268284612b32565b61268c919061351d565b9052815460018181018455600093845260209384902083516002909302019182559290910151910155505b6001600160a01b03841660009081526005602090815260409182902082518084019093524383529160048301918101856126f084612b32565b6126fa91906134c6565b9052815460018082018455600093845260208085208451600294850290910190815593810151938201939093556040805180820182524381526001600160a01b038b811682870181815260038d0180548088018255908a5297892093519790960290920195865593519490920180546001600160a01b03191694909316939093179091559051909133917f4bc154dd35d6a5cb9206482ecb473cdbf2473006d6bce728b9cc0741bcc59ea29190a35050505050565b6001600160a01b0381166000908152600560205260409020546127d39083906134c6565b6001600160a01b03828116600090815260056020526040808220939093555491516323b872dd60e01b81528582166004820152306024820152604481018590529116906323b872dd90606401602060405180830381600087803b15801561283957600080fd5b505af115801561284d573d6000803e3d6000fd5b505050506040513d601f19601f820116820180604052508101906128719190613340565b50806001600160a01b03167f2da466a7b24304f47e87fa2e1e5a81b9831ce54fec19055ce277ca2f39ba42c4836040516128ad91815260200190565b60405180910390a2505050565b60015460408051808201909152600c81526b155b985d5d1a1bdc9a5e995960a21b6020820152906001600160a01b031633146129095760405162461bcd60e51b8152600401610910919061342c565b506001600160a01b038216600081815260026020908152604091829020805460ff19168515159081179091558251938452908301527fbf0d659300b2b4f4ddd43c45c5f2a7deafbf3e8bc8617173b6ef8937b19ca32191016115f3565b60408051808201909152600f81526e496e76616c6964206164647265737360881b60208201526001600160a01b0382166129b35760405162461bcd60e51b8152600401610910919061342c565b5060015460408051808201909152600c81526b155b985d5d1a1bdc9a5e995960a21b6020820152906001600160a01b031615612a025760405162461bcd60e51b8152600401610910919061342c565b50600180546001600160a01b0319166001600160a01b038381169190911791829055604051911681527f1bc4b7bcc13839f8cd29ee58c66ba452ca79257be15e5795ccbec42f797035499060200160405180910390a150565b60015460408051808201909152600c81526b155b985d5d1a1bdc9a5e995960a21b6020820152906001600160a01b03163314612aaa5760405162461bcd60e51b8152600401610910919061342c565b5060408051808201909152600d81526c496e76616c69642076616c756560981b602082015262093a80821015612af35760405162461bcd60e51b8152600401610910919061342c565b50600c80549082905560408051828152602081018490527f2a566195a06f0ea25345d21a827d0a95deae8b4cb308a2c85c89deb35071aff991016115f3565b6000610e6a82435b8154600090612b4b5750600061150a565b82548390612b5b9060019061351d565b81548110612b7957634e487b7160e01b600052603260045260246000fd5b9060005260206000209060020201600001548210612bd85782548390612ba19060019061351d565b81548110612bbf57634e487b7160e01b600052603260045260246000fd5b906000526020600020906002020160010154905061150a565b82600081548110612bf957634e487b7160e01b600052603260045260246000fd5b906000526020600020906002020160000154821015612c1a5750600061150a565b82546000908190612c2d9060019061351d565b90505b81811115612cb15760006002612c4684846134c6565b612c519060016134c6565b612c5b91906134de565b905084868281548110612c7e57634e487b7160e01b600052603260045260246000fd5b90600052602060002090600202016000015411612c9d57809250612cab565b612ca860018261351d565b91505b50612c30565b848281548110612cd157634e487b7160e01b600052603260045260246000fd5b9060005260206000209060020201600101549250505092915050565b336000908152600560205260408120612d0890600301612dc0565b90506001600160a01b038116612d1e5750611960565b6001600160a01b038116600090815260056020526040812090612d4360048301612b32565b905060008415612d5e57612d5786836134c6565b9050612d79565b858211612d6c576000612d76565b612d76868361351d565b90505b604080518082019091524381526020808201928352600490940180546001818101835560009283529590912091516002909102909101908155905192019190915550505050565b6000610e6a82435b8154600090612dd95750600061150a565b82548390612de99060019061351d565b81548110612e0757634e487b7160e01b600052603260045260246000fd5b9060005260206000209060020201600001548210612e715782548390612e2f9060019061351d565b81548110612e4d57634e487b7160e01b600052603260045260246000fd5b60009182526020909120600160029092020101546001600160a01b0316905061150a565b82600081548110612e9257634e487b7160e01b600052603260045260246000fd5b906000526020600020906002020160000154821015612eb35750600061150a565b82546000908190612ec69060019061351d565b90505b81811115612f4a5760006002612edf84846134c6565b612eea9060016134c6565b612ef491906134de565b905084868281548110612f1757634e487b7160e01b600052603260045260246000fd5b90600052602060002090600202016000015411612f3657809250612f44565b612f4160018261351d565b91505b50612ec9565b848281548110612f6a57634e487b7160e01b600052603260045260246000fd5b60009182526020909120600290910201600101546001600160a01b031695945050505050565b600854612fa257600954600e55611ce8565b60008060009054906101000a90046001600160a01b03166001600160a01b03166318160ddd6040518163ffffffff1660e01b815260040160206040518083038186803b158015612ff157600080fd5b505afa158015613005573d6000803e3d6000fd5b505050506040513d601f19601f82011682018060405250810190613029919061337b565b6130376305f5e100846134fe565b61304191906134de565b9050600060085482106130605760085461305b908361351d565b61306e565b8160085461306e919061351d565b905060006008546305f5e1008361308591906134fe565b61308f91906134de565b90506000620f4240600b54836130a591906134fe565b6130af91906134de565b905060006008548510156130ea576305f5e1006130cc83826134c6565b600e546130d991906134fe565b6130e391906134de565b9050613125565b816305f5e100116130fc576000613122565b6305f5e10061310b838261351d565b600e5461311891906134fe565b61312291906134de565b90505b60095481101561313a57600954600e55613155565b600a5481111561314f57600a54600e55613155565b600e8190555b505050505050565b82805461316990613534565b90600052602060002090601f01602090048101928261318b57600085556131d1565b82601f106131a45782800160ff198235161785556131d1565b828001600101855582156131d1579182015b828111156131d15782358255916020019190600101906131b6565b506131dd9291506131e1565b5090565b5b808211156131dd57600081556001016131e2565b80356001600160a01b0381168114610e6d57600080fd5b60006020828403121561321e578081fd5b611507826131f6565b60008060408385031215613239578081fd5b613242836131f6565b9150613250602084016131f6565b90509250929050565b6000806040838503121561326b578182fd5b613274836131f6565b9150602083013561328481613585565b809150509250929050565b600080604083850312156132a1578182fd5b6132aa836131f6565b946020939093013593505050565b6000806000606084860312156132cc578081fd5b6132d5846131f6565b9250602084013591506132ea604085016131f6565b90509250925092565b600080600080600060a0868803121561330a578081fd5b613313866131f6565b945060208601359350613328604087016131f6565b94979396509394606081013594506080013592915050565b600060208284031215613351578081fd5b815161335c81613585565b9392505050565b600060208284031215613374578081fd5b5035919050565b60006020828403121561338c578081fd5b5051919050565b600080604083850312156133a5578182fd5b82359150613250602084016131f6565b6000806000604084860312156133c9578283fd5b83359250602084013567ffffffffffffffff808211156133e7578384fd5b818601915086601f8301126133fa578384fd5b813581811115613408578485fd5b876020828501011115613419578485fd5b6020830194508093505050509250925092565b6000602080835283518082850152825b818110156134585785810183015185820160400152820161343c565b818111156134695783604083870101525b50601f01601f1916929092016040019392505050565b8481526001600160a01b03841660208201526060604082018190528101829052600082846080840137818301608090810191909152601f909201601f191601019392505050565b600082198211156134d9576134d961356f565b500190565b6000826134f957634e487b7160e01b81526012600452602481fd5b500490565b60008160001904831182151516156135185761351861356f565b500290565b60008282101561352f5761352f61356f565b500390565b60028104600182168061354857607f821691505b6020821081141561356957634e487b7160e01b600052602260045260246000fd5b50919050565b634e487b7160e01b600052601160045260246000fd5b8015158114611ce857600080fdfea2646970667358221220cdd696fdc23e388d39c1ee57315df6dd16c6082bda752c0208dd9af34cf7afee64736f6c63430008020033",
  "linkReferences": {},
  "deployedLinkReferences": {}
}