{
  "contractName": "Api3Template",
  "abi": [
    {
      "inputs": [
        {
          "name": "_daoFactory",
          "type": "address"
        },
        {
          "name": "_ens",
          "type": "address"
        },
        {
          "name": "_minimeTokenFactory",
          "type": "address"
        },
        {
          "name": "_aragonID",
          "type": "address"
        }
      ],
      "payable": false,
      "stateMutability": "nonpayable",
      "type": "constructor"
    },
    {
      "anonymous": false,
      "inputs": [
        {
          "indexed": false,
          "name": "dao",
          "type": "address"
        },
        {
          "indexed": false,
          "name": "acl",
          "type": "address"
        },
        {
          "indexed": false,
          "name": "api3Pool",
          "type": "address"
        },
        {
          "indexed": false,
          "name": "voting",
          "type": "address"
        },
        {
          "indexed": false,
          "name": "agent",
          "type": "address"
        }
      ],
      "name": "Api3DaoDeployed",
      "type": "event"
    },
    {
      "anonymous": false,
      "inputs": [
        {
          "indexed": false,
          "name": "dao",
          "type": "address"
        }
      ],
      "name": "DeployDao",
      "type": "event"
    },
    {
      "anonymous": false,
      "inputs": [
        {
          "indexed": false,
          "name": "dao",
          "type": "address"
        }
      ],
      "name": "SetupDao",
      "type": "event"
    },
    {
      "anonymous": false,
      "inputs": [
        {
          "indexed": false,
          "name": "token",
          "type": "address"
        }
      ],
      "name": "DeployToken",
      "type": "event"
    },
    {
      "anonymous": false,
      "inputs": [
        {
          "indexed": false,
          "name": "appProxy",
          "type": "address"
        },
        {
          "indexed": false,
          "name": "appId",
          "type": "bytes32"
        }
      ],
      "name": "InstalledApp",
      "type": "event"
    },
    {
      "constant": false,
      "inputs": [
        {
          "name": "_id",
          "type": "string"
        },
        {
          "name": "_api3Pool",
          "type": "address"
        },
        {
          "name": "_votingSettings",
          "type": "uint64[3]"
        },
        {
          "name": "_permissionManager",
          "type": "address"
        }
      ],
      "name": "newInstance",
      "outputs": [],
      "payable": false,
      "stateMutability": "nonpayable",
      "type": "function"
    }
  ],
  "bytecode": "0x60806040523480156200001157600080fd5b506040516080806200208883398101604090815281516020830151918301516060909301519092908383838362000051836401000000006200024d810204565b60408051808201909152601981527f54454d504c4154455f454e535f4e4f545f434f4e54524143540000000000000060208201529015156200012e576040517f08c379a00000000000000000000000000000000000000000000000000000000081526004018080602001828103825283818151815260200191508051906020019080838360005b83811015620000f2578181015183820152602001620000d8565b50505050905090810190601f168015620001205780820380516001836020036101000a031916815260200191505b509250505060405180910390fd5b5062000143846401000000006200024d810204565b60408051808201909152601d81527f54454d504c4154455f44414f5f4641435f4e4f545f434f4e54524143540000006020820152901515620001e3576040517f08c379a000000000000000000000000000000000000000000000000000000000815260040180806020018281038252838181518152602001915080519060200190808383600083811015620000f2578181015183820152602001620000d8565b5060008054600160a060020a0319908116600160a060020a0395861617909155600380548216928516929092179091556001805482169484169490941790935560028054909316911617905562000243816401000000006200027c810204565b5050505062000334565b600080600160a060020a03831615156200026b576000915062000276565b823b90506000811191505b50919050565b62000290816401000000006200024d810204565b60408051808201909152601f81527f54454d504c4154455f415241474f4e5f49445f4e4f545f434f4e545241435400602082015290151562000330576040517f08c379a000000000000000000000000000000000000000000000000000000000815260040180806020018281038252838181518152602001915080519060200190808383600083811015620000f2578181015183820152602001620000d8565b5050565b611d4480620003446000396000f3006080604052600436106100405763ffffffff7c010000000000000000000000000000000000000000000000000000000060003504166374ed34e68114610045575b600080fd5b34801561005157600080fd5b506040805160206004803580820135601f81018490048402850184019095528484526100fb94369492936024939284019190819084018382808284375050604080516060818101909252959873ffffffffffffffffffffffffffffffffffffffff883516989097909660808201965094506020019250600391508390839080828437509396505050913573ffffffffffffffffffffffffffffffffffffffff1692506100fd915050565b005b600080808073ffffffffffffffffffffffffffffffffffffffff8716151561018657604080517f08c379a000000000000000000000000000000000000000000000000000000000815260206004820152601a60248201527f496e76616c6964204150493320566f74696e6720526967687473000000000000604482015290519081900360640190fd5b61018f8861023b565b6101988661031b565b6101a0610354565b935093506101b1848489898961057c565b915091506101bf84866105b3565b6101c988856105be565b6040805173ffffffffffffffffffffffffffffffffffffffff80871682528086166020830152808a168284015280851660608301528316608082015290517fa61fb069566434f6e7f7d4cae254388995df32a31acad69550f1a25c15b82e4e9181900360a00190a15050505050505050565b805160408051808201909152601381527f54454d504c4154455f494e56414c49445f494400000000000000000000000000602082015290600010610317576040517f08c379a00000000000000000000000000000000000000000000000000000000081526004018080602001828103825283818151815260200191508051906020019080838360005b838110156102dc5781810151838201526020016102c4565b50505050905090810190601f1680156103095780820380516001836020036101000a031916815260200191505b509250505060405180910390fd5b5050565b60408051808201909152601a81527f415049335f44414f5f4241445f564f54455f53455454494e47530000000000006020820152610317565b600154604080517f216874440000000000000000000000000000000000000000000000000000000081523060048201529051600092839273ffffffffffffffffffffffffffffffffffffffff9091169163216874449160248082019260209290919082900301818787803b1580156103cb57600080fd5b505af11580156103df573d6000803e3d6000fd5b505050506040513d60208110156103f557600080fd5b50516040805173ffffffffffffffffffffffffffffffffffffffff8316815290519193507f0b13a9ab90735191cd544fd95ba68d1385144561cbdeb8acb8035de9a86432f5919081900360200190a18173ffffffffffffffffffffffffffffffffffffffff1663de2873596040518163ffffffff167c0100000000000000000000000000000000000000000000000000000000028152600401602060405180830381600087803b1580156104a857600080fd5b505af11580156104bc573d6000803e3d6000fd5b505050506040513d60208110156104d257600080fd5b5051604080517f8ea8dc9d0000000000000000000000000000000000000000000000000000000081529051919250610578918391859173ffffffffffffffffffffffffffffffffffffffff831691638ea8dc9d9160048083019260209291908290030181600087803b15801561054757600080fd5b505af115801561055b573d6000803e3d6000fd5b505050506040513d602081101561057157600080fd5b5051610840565b9091565b60008060008061058b896108e5565b9150610598898888610a1c565b90506105a688838388610a42565b9890975095505050505050565b610317828283610a98565b60035460408051808201909152601f81527f54454d504c4154455f415241474f4e5f49445f4e4f545f50524f56494445440060208201529073ffffffffffffffffffffffffffffffffffffffff161515610674576040517f08c379a0000000000000000000000000000000000000000000000000000000008152600401808060200182810382528381815181526020019150805190602001908083836000838110156102dc5781810151838201526020016102c4565b50600354604051835173ffffffffffffffffffffffffffffffffffffffff9092169163d22057a99185916020918201918291908401908083835b602083106106eb57805182527fffffffffffffffffffffffffffffffffffffffffffffffffffffffffffffffe090920191602091820191016106ae565b6001836020036101000a0380198251168184511680821785525050505050509050019150506040516020818303038152906040526040518082805190602001908083835b6020831061076c57805182527fffffffffffffffffffffffffffffffffffffffffffffffffffffffffffffffe0909201916020918201910161072f565b5181516020939093036101000a7fffffffffffffffffffffffffffffffffffffffffffffffffffffffffffffffff01801990911692169190911790526040805191909301819003812063ffffffff87167c0100000000000000000000000000000000000000000000000000000000028252600482015273ffffffffffffffffffffffffffffffffffffffff88166024820152915160448084019550600094509092839003019050818387803b15801561082457600080fd5b505af1158015610838573d6000803e3d6000fd5b505050505050565b604080517fbe038478000000000000000000000000000000000000000000000000000000008152306004820181905273ffffffffffffffffffffffffffffffffffffffff858116602484015260448301859052606483019190915291519185169163be0384789160848082019260009290919082900301818387803b1580156108c857600080fd5b505af11580156108dc573d6000803e3d6000fd5b50505050505050565b6040805160048152602481019091526020810180517bffffffffffffffffffffffffffffffffffffffffffffffffffffffff167f8129fc1c000000000000000000000000000000000000000000000000000000001790526000908161096b847f9ac98dc5f995bf0211ed589ef022719d1487e5cb2bab505676f0d084c07cf89a84610c8b565b604080517f8c61757d0000000000000000000000000000000000000000000000000000000081527f9ac98dc5f995bf0211ed589ef022719d1487e5cb2bab505676f0d084c07cf89a6004820152905191925073ffffffffffffffffffffffffffffffffffffffff861691638c61757d9160248082019260009290919082900301818387803b1580156109fc57600080fd5b505af1158015610a10573d6000803e3d6000fd5b50929695505050505050565b805160208201516040830151600092610a3a92879287929190610c9a565b949350505050565b610a4e84848484610d71565b610a5a84848484611009565b610a6584828361108b565b610a928483847fffffffffffffffffffffffffffffffffffffffffffffffffffffffffffffffff8561138f565b50505050565b60008373ffffffffffffffffffffffffffffffffffffffff1663de2873596040518163ffffffff167c0100000000000000000000000000000000000000000000000000000000028152600401602060405180830381600087803b158015610afe57600080fd5b505af1158015610b12573d6000803e3d6000fd5b505050506040513d6020811015610b2857600080fd5b5051604080517f8ea8dc9d0000000000000000000000000000000000000000000000000000000081529051919250610bd29183918791879173ffffffffffffffffffffffffffffffffffffffff841691638ea8dc9d916004808201926020929091908290030181600087803b158015610ba057600080fd5b505af1158015610bb4573d6000803e3d6000fd5b505050506040513d6020811015610bca57600080fd5b505186611771565b610c3c8182858473ffffffffffffffffffffffffffffffffffffffff16633d6ab68f6040518163ffffffff167c0100000000000000000000000000000000000000000000000000000000028152600401602060405180830381600087803b158015610ba057600080fd5b6040805173ffffffffffffffffffffffffffffffffffffffff8616815290517f17592627a66846ce06d92a1708275bc653b2a3f34aec855584b819872a8ba4139181900360200190a150505050565b6000610a3a848484600161191f565b6040805173ffffffffffffffffffffffffffffffffffffffff8616602482015267ffffffffffffffff8086166044830152808516606483015283166084808301919091528251808303909101815260a49091019091526020810180517bffffffffffffffffffffffffffffffffffffffffffffffffffffffff167fdf3d330500000000000000000000000000000000000000000000000000000000179052600090610d66877f9fa3927f639745e587912d4b0fea7ef9013bf93fb907d29faeab57417ba6e1d483611aa6565b979650505050505050565b8373ffffffffffffffffffffffffffffffffffffffff1663be03847883858673ffffffffffffffffffffffffffffffffffffffff16635fa5e4e66040518163ffffffff167c0100000000000000000000000000000000000000000000000000000000028152600401602060405180830381600087803b158015610df357600080fd5b505af1158015610e07573d6000803e3d6000fd5b505050506040513d6020811015610e1d57600080fd5b5051604080517c010000000000000000000000000000000000000000000000000000000063ffffffff871602815273ffffffffffffffffffffffffffffffffffffffff94851660048201529284166024840152604483019190915291851660648201529051608480830192600092919082900301818387803b158015610ea257600080fd5b505af1158015610eb6573d6000803e3d6000fd5b505050508373ffffffffffffffffffffffffffffffffffffffff1663be03847883858673ffffffffffffffffffffffffffffffffffffffff1663368c3c346040518163ffffffff167c0100000000000000000000000000000000000000000000000000000000028152600401602060405180830381600087803b158015610f3c57600080fd5b505af1158015610f50573d6000803e3d6000fd5b505050506040513d6020811015610f6657600080fd5b5051604080517c010000000000000000000000000000000000000000000000000000000063ffffffff871602815273ffffffffffffffffffffffffffffffffffffffff94851660048201529284166024840152604483019190915291851660648201529051608480830192600092919082900301818387803b158015610feb57600080fd5b505af1158015610fff573d6000803e3d6000fd5b5050505050505050565b8373ffffffffffffffffffffffffffffffffffffffff1663be03847883858673ffffffffffffffffffffffffffffffffffffffff1663206b60f96040518163ffffffff167c0100000000000000000000000000000000000000000000000000000000028152600401602060405180830381600087803b158015610f3c57600080fd5b60008373ffffffffffffffffffffffffffffffffffffffff1663a479e5086040518163ffffffff167c0100000000000000000000000000000000000000000000000000000000028152600401602060405180830381600087803b1580156110f157600080fd5b505af1158015611105573d6000803e3d6000fd5b505050506040513d602081101561111b57600080fd5b5051604080517fbd8fde1c000000000000000000000000000000000000000000000000000000008152905191925073ffffffffffffffffffffffffffffffffffffffff8087169263be03847892879286929083169163bd8fde1c9160048083019260209291908290030181600087803b15801561119757600080fd5b505af11580156111ab573d6000803e3d6000fd5b505050506040513d60208110156111c157600080fd5b5051604080517c010000000000000000000000000000000000000000000000000000000063ffffffff871602815273ffffffffffffffffffffffffffffffffffffffff94851660048201529284166024840152604483019190915291861660648201529051608480830192600092919082900301818387803b15801561124657600080fd5b505af115801561125a573d6000803e3d6000fd5b505050508373ffffffffffffffffffffffffffffffffffffffff1663be03847884838473ffffffffffffffffffffffffffffffffffffffff166319f3d10f6040518163ffffffff167c0100000000000000000000000000000000000000000000000000000000028152600401602060405180830381600087803b1580156112e057600080fd5b505af11580156112f4573d6000803e3d6000fd5b505050506040513d602081101561130a57600080fd5b5051604080517c010000000000000000000000000000000000000000000000000000000063ffffffff871602815273ffffffffffffffffffffffffffffffffffffffff94851660048201529284166024840152604483019190915291861660648201529051608480830192600092919082900301818387803b158015610feb57600080fd5b8473ffffffffffffffffffffffffffffffffffffffff1663be03847884868773ffffffffffffffffffffffffffffffffffffffff16633c624c756040518163ffffffff167c0100000000000000000000000000000000000000000000000000000000028152600401602060405180830381600087803b15801561141157600080fd5b505af1158015611425573d6000803e3d6000fd5b505050506040513d602081101561143b57600080fd5b5051604080517c010000000000000000000000000000000000000000000000000000000063ffffffff871602815273ffffffffffffffffffffffffffffffffffffffff94851660048201529284166024840152604483019190915291851660648201529051608480830192600092919082900301818387803b1580156114c057600080fd5b505af11580156114d4573d6000803e3d6000fd5b505050508473ffffffffffffffffffffffffffffffffffffffff1663be03847884868773ffffffffffffffffffffffffffffffffffffffff166362de7e5a6040518163ffffffff167c0100000000000000000000000000000000000000000000000000000000028152600401602060405180830381600087803b15801561155a57600080fd5b505af115801561156e573d6000803e3d6000fd5b505050506040513d602081101561158457600080fd5b5051604080517c010000000000000000000000000000000000000000000000000000000063ffffffff871602815273ffffffffffffffffffffffffffffffffffffffff94851660048201529284166024840152604483019190915291851660648201529051608480830192600092919082900301818387803b15801561160957600080fd5b505af115801561161d573d6000803e3d6000fd5b505050508473ffffffffffffffffffffffffffffffffffffffff1663be03847883868773ffffffffffffffffffffffffffffffffffffffff1663be2c64d46040518163ffffffff167c0100000000000000000000000000000000000000000000000000000000028152600401602060405180830381600087803b1580156116a357600080fd5b505af11580156116b7573d6000803e3d6000fd5b505050506040513d60208110156116cd57600080fd5b5051604080517c010000000000000000000000000000000000000000000000000000000063ffffffff871602815273ffffffffffffffffffffffffffffffffffffffff94851660048201529284166024840152604483019190915291851660648201529051608480830192600092919082900301818387803b15801561175257600080fd5b505af1158015611766573d6000803e3d6000fd5b505050505050505050565b604080517f0a8ed3db00000000000000000000000000000000000000000000000000000000815273ffffffffffffffffffffffffffffffffffffffff8581166004830152868116602483015260448201859052915191871691630a8ed3db9160648082019260009290919082900301818387803b1580156117f157600080fd5b505af1158015611805573d6000803e3d6000fd5b5050604080517f9d0effdb00000000000000000000000000000000000000000000000000000000815230600482015273ffffffffffffffffffffffffffffffffffffffff88811660248301526044820187905291519189169350639d0effdb925060648082019260009290919082900301818387803b15801561188757600080fd5b505af115801561189b573d6000803e3d6000fd5b5050604080517fafd925df00000000000000000000000000000000000000000000000000000000815273ffffffffffffffffffffffffffffffffffffffff85811660048301528881166024830152604482018790529151918916935063afd925df925060648082019260009290919082900301818387803b15801561175257600080fd5b600080600061192d86611ab5565b6040517f397edd410000000000000000000000000000000000000000000000000000000081526004810188815273ffffffffffffffffffffffffffffffffffffffff80841660248401528715156064840152608060448401908152895160848501528951949650908b169363397edd41938b9388938c938c9360a40190602086019080838360005b838110156119cd5781810151838201526020016119b5565b50505050905090810190601f1680156119fa5780820380516001836020036101000a031916815260200191505b5095505050505050602060405180830381600087803b158015611a1c57600080fd5b505af1158015611a30573d6000803e3d6000fd5b505050506040513d6020811015611a4657600080fd5b50516040805173ffffffffffffffffffffffffffffffffffffffff831681526020810189905281519293507f2b183a501d4b1bbd30e6611ebac40ab18a00390e6c6bed324bf92a265c9ce6e3929081900390910190a19695505050505050565b6000610a3a848484600061191f565b60008054604080517f0178b8bf000000000000000000000000000000000000000000000000000000008152600481018590529051839273ffffffffffffffffffffffffffffffffffffffff1691630178b8bf91602480830192602092919082900301818787803b158015611b2857600080fd5b505af1158015611b3c573d6000803e3d6000fd5b505050506040513d6020811015611b5257600080fd5b5051604080517f3b3b57de00000000000000000000000000000000000000000000000000000000815260048101869052905173ffffffffffffffffffffffffffffffffffffffff90921691633b3b57de916024808201926020929091908290030181600087803b158015611bc557600080fd5b505af1158015611bd9573d6000803e3d6000fd5b505050506040513d6020811015611bef57600080fd5b5051604080517fc36af460000000000000000000000000000000000000000000000000000000008152905191925073ffffffffffffffffffffffffffffffffffffffff83169163c36af4609160048082019260009290919082900301818387803b158015611c5c57600080fd5b505af1158015611c70573d6000803e3d6000fd5b505050506040513d6000823e601f3d9081017fffffffffffffffffffffffffffffffffffffffffffffffffffffffffffffffe016820160405260a0811015611cb757600080fd5b60608201516080830180519192840191849190640100000000811115611cdc57600080fd5b82016020810184811115611cef57600080fd5b8151640100000000811182820187101715611d0957600080fd5b509499985050505050505050505600a165627a7a7230582051b3e1506a0f8be16aff15cfa3ab3ac5c0e5885a2763ece9391519ec202e00aa0029",
  "source": "//SPDX-License-Identifier: MIT\npragma solidity 0.4.24;\n\nimport \"./Api3BaseTemplate.sol\";\n\ncontract Api3Template is Api3BaseTemplate {\n  string constant private ERROR_BAD_VOTE_SETTINGS = \"API3_DAO_BAD_VOTE_SETTINGS\";\n\n  address private constant ANY_ENTITY = address(-1);\n\n  event Api3DaoDeployed(\n    address dao,\n    address acl,\n    address api3Pool,\n    address voting,\n    address agent\n  );\n\n  constructor(\n    DAOFactory _daoFactory,\n    ENS _ens,\n    MiniMeTokenFactory _minimeTokenFactory,\n    IFIFSResolvingRegistrar _aragonID\n  )\n  public\n  Api3BaseTemplate(_daoFactory, _ens, _minimeTokenFactory, _aragonID)\n  {\n    _ensureAragonIdIsValid(_aragonID);\n  }\n\n  /**\n  * @dev Deploy an authoritative DAO using the API3 Staking Pool\n  * @param _id String with the name for org, will assign `[id].aragonid.eth`\n  * @param _api3Pool Address of the API3 staking pool, supplies voting power\n  * @param _votingSettings Array of [supportRequired, minAcceptanceQuorum, voteDuration] to set up the voting app of the organization NOTE: deleted minProposerPower\n  * @param _permissionManager The administrator that's initially granted control over the DAO's permissions\n  */\n  function newInstance(\n    string memory _id,\n    MiniMeToken _api3Pool,\n    uint64[3] memory _votingSettings,\n    address _permissionManager\n  )\n  public\n  {\n    require(_api3Pool != address(0), \"Invalid API3 Voting Rights\");\n\n    _validateId(_id);\n    _validateVotingSettings(_votingSettings);\n\n    (Kernel dao, ACL acl) = _createDAO();\n    (Voting voting, Agent agent) = _setupApps(\n      dao, acl, _api3Pool, _votingSettings, _permissionManager\n    );\n    _transferRootPermissionsFromTemplateAndFinalizeDAO(dao, _permissionManager);\n    _registerID(_id, dao);\n\n    emit Api3DaoDeployed(\n      address(dao),\n      address(acl),\n      address(_api3Pool),\n      address(voting),\n      address(agent)\n    );\n  }\n\n  function _setupApps(\n    Kernel _dao,\n    ACL _acl,\n    MiniMeToken _api3Pool,\n    uint64[3] memory _votingSettings,\n    address _permissionManager\n  )\n  internal\n  returns (Voting, Agent)\n  {\n    Agent agent = _installDefaultAgentApp(_dao);\n    Voting voting = _installVotingApp(_dao, _api3Pool, _votingSettings);\n\n    _setupPermissions(\n      _acl,\n      agent,\n      voting,\n      _permissionManager\n    );\n\n    return (voting, agent);\n  }\n\n  function _setupPermissions(\n    ACL _acl,\n    Agent _agent,\n    Voting _voting,\n    address _permissionManager\n  )\n  internal\n  {\n    _createAgentPermissions(_acl, _agent, _voting, _permissionManager);\n    _createVaultPermissions(_acl, Vault(_agent), _voting, _permissionManager);\n    _createEvmScriptsRegistryPermissions(_acl, _permissionManager, _permissionManager);\n    _createVotingPermissions(_acl, _voting, _voting, ANY_ENTITY, _permissionManager);\n  }\n\n  function _validateVotingSettings(uint64[3] memory _votingSettings) private pure {\n    require(_votingSettings.length == 3, ERROR_BAD_VOTE_SETTINGS);\n  }\n}\n",
  "sourcePath": "/home/tengree/Projects/api3/api3-dao/packages/dao/contracts/Api3Template.sol",
  "compiler": {
    "name": "solc",
    "version": "0.4.24+commit.e67f0147.Emscripten.clang"
  },
  "schemaVersion": "2.0.1",
  "updatedAt": "2021-04-01T16:02:51.397Z"
}