{
  "contractName": "AppProxyFactory",
  "abi": [
    {
      "anonymous": false,
      "inputs": [
        {
          "indexed": false,
          "name": "proxy",
          "type": "address"
        },
        {
          "indexed": false,
          "name": "isUpgradeable",
          "type": "bool"
        },
        {
          "indexed": false,
          "name": "appId",
          "type": "bytes32"
        }
      ],
      "name": "NewAppProxy",
      "type": "event"
    },
    {
      "constant": false,
      "inputs": [
        {
          "name": "_kernel",
          "type": "address"
        },
        {
          "name": "_appId",
          "type": "bytes32"
        }
      ],
      "name": "newAppProxy",
      "outputs": [
        {
          "name": "",
          "type": "address"
        }
      ],
      "payable": false,
      "stateMutability": "nonpayable",
      "type": "function"
    },
    {
      "constant": false,
      "inputs": [
        {
          "name": "_kernel",
          "type": "address"
        },
        {
          "name": "_appId",
          "type": "bytes32"
        },
        {
          "name": "_initializePayload",
          "type": "bytes"
        }
      ],
      "name": "newAppProxy",
      "outputs": [
        {
          "name": "",
          "type": "address"
        }
      ],
      "payable": false,
      "stateMutability": "nonpayable",
      "type": "function"
    },
    {
      "constant": false,
      "inputs": [
        {
          "name": "_kernel",
          "type": "address"
        },
        {
          "name": "_appId",
          "type": "bytes32"
        },
        {
          "name": "_initializePayload",
          "type": "bytes"
        }
      ],
      "name": "newAppProxyPinned",
      "outputs": [
        {
          "name": "",
          "type": "address"
        }
      ],
      "payable": false,
      "stateMutability": "nonpayable",
      "type": "function"
    },
    {
      "constant": false,
      "inputs": [
        {
          "name": "_kernel",
          "type": "address"
        },
        {
          "name": "_appId",
          "type": "bytes32"
        }
      ],
      "name": "newAppProxyPinned",
      "outputs": [
        {
          "name": "",
          "type": "address"
        }
      ],
      "payable": false,
      "stateMutability": "nonpayable",
      "type": "function"
    }
  ],
  "bytecode": "0x608060405234801561001057600080fd5b50611292806100206000396000f3006080604052600436106100615763ffffffff7c0100000000000000000000000000000000000000000000000000000000600035041663d162f8b08114610066578063e156a8f314610105578063ede658b014610136578063ff289fc5146101ac575b600080fd5b34801561007257600080fd5b50604080516020600460443581810135601f81018490048402850184019095528484526100dc94823573ffffffffffffffffffffffffffffffffffffffff169460248035953695946064949201919081908401838280828437509497506101dd9650505050505050565b6040805173ffffffffffffffffffffffffffffffffffffffff9092168252519081900360200190f35b34801561011157600080fd5b506100dc73ffffffffffffffffffffffffffffffffffffffff600435166024356102fc565b34801561014257600080fd5b50604080516020600460443581810135601f81018490048402850184019095528484526100dc94823573ffffffffffffffffffffffffffffffffffffffff169460248035953695946064949201919081908401838280828437509497506103209650505050505050565b3480156101b857600080fd5b506100dc73ffffffffffffffffffffffffffffffffffffffff6004351660243561043f565b6000808484846101eb61045c565b73ffffffffffffffffffffffffffffffffffffffff8416815260208082018490526060604083018181528451918401919091528351909160808401919085019080838360005b83811015610249578181015183820152602001610231565b50505050905090810190601f1680156102765780820380516001836020036101000a031916815260200191505b50945050505050604051809103906000f080158015610299573d6000803e3d6000fd5b506040805173ffffffffffffffffffffffffffffffffffffffff831681526000602082015280820187905290519192507fd880e726dced8808d727f02dd0e6fdd3a945b24bfee77e13367bcbe61ddbaf47919081900360600190a1949350505050565b604080516000808252602082019092526103199084908490610320565b9392505050565b60008084848461032e61046c565b73ffffffffffffffffffffffffffffffffffffffff8416815260208082018490526060604083018181528451918401919091528351909160808401919085019080838360005b8381101561038c578181015183820152602001610374565b50505050905090810190601f1680156103b95780820380516001836020036101000a031916815260200191505b50945050505050604051809103906000f0801580156103dc573d6000803e3d6000fd5b506040805173ffffffffffffffffffffffffffffffffffffffff831681526001602082015280820187905290519192507fd880e726dced8808d727f02dd0e6fdd3a945b24bfee77e13367bcbe61ddbaf47919081900360600190a1949350505050565b6040805160008082526020820190925261031990849084906101dd565b6040516106fd8061047d83390190565b6040516106ed80610b7a833901905600608060405234801561001057600080fd5b506040516106fd3803806106fd8339810160409081528151602083015191830151909201828282600061004b8464010000000061017a810204565b61005d836401000000006101a2810204565b61006f836401000000006101d9810204565b90506000825111156101185761008d816401000000006102a9810204565b151561009857600080fd5b80600160a060020a03168260405180828051906020019080838360005b838110156100cd5781810151838201526020016100b5565b50505050905090810190601f1680156100fa5780820380516001836020036101000a031916815260200191505b50915050600060405180830381855af4915050151561011857600080fd5b50505050610145610137836101d9640100000000026401000000009004565b6401000000006102d6810204565b6101676101596401000000006102fb810204565b6401000000006102a9810204565b151561017257600080fd5b505050610354565b61019f6000805160206106bd8339815191528264010000000061032661032682021704565b50565b61019f7fd625496217aa6a3453eecb9c3489dc5a53e6c67b444329ea2b2cbc9ff547639b8264010000000061032661032682021704565b60006101ec64010000000061032a810204565b604080517fbe00bbd80000000000000000000000000000000000000000000000000000000081527ff1f3eb40f5bc1ad1344716ced8b8a0431d840b5783aea1fd01786bc26f35ac0f6004820152602481018590529051600160a060020a03929092169163be00bbd8916044808201926020929091908290030181600087803b15801561027757600080fd5b505af115801561028b573d6000803e3d6000fd5b505050506040513d60208110156102a157600080fd5b505192915050565b600080600160a060020a03831615156102c557600091506102d0565b823b90506000811191505b50919050565b61019f6000805160206106dd8339815191528264010000000061032661032682021704565b60006103216000805160206106dd83398151915264010000000061031e61035082021704565b905090565b9055565b60006103216000805160206106bd83398151915264010000000061031e61035082021704565b5490565b61035a806103636000396000f30060806040526004361061006c5763ffffffff7c01000000000000000000000000000000000000000000000000000000006000350416634555d5c9811461012b57806348a0c8dd146101525780635c60da1b1461017b57806380afdea8146101b9578063d4aae0c4146101ce575b6127107f665fd576fbbe6f247aff98f5c94a561e3f71ec2d3c988d56f12d342396c50cea6000825a10156100e15760003411361583541616156100dc576040513381523460208201527f15eeaa57c7bd188c1388020bcadc2c436ec60d647d36ef5b9eb3c742217ddee1604082a1005b600080fd5b6100e96101e3565b9050610126816000368080601f016020809104026020016040519081016040528093929190818152602001838380828437506101f2945050505050565b505050005b34801561013757600080fd5b50610140610233565b60408051918252519081900360200190f35b34801561015e57600080fd5b50610167610238565b604080519115158252519081900360200190f35b34801561018757600080fd5b506101906101e3565b6040805173ffffffffffffffffffffffffffffffffffffffff9092168252519081900360200190f35b3480156101c557600080fd5b50610140610263565b3480156101da57600080fd5b5061019061028e565b60006101ed6102b9565b905090565b60006101fd836102e4565b151561020857600080fd5b612710905060008083516020850186855a03f43d604051816000823e82801561022f578282f35b8282fd5b600190565b60006101ed7f665fd576fbbe6f247aff98f5c94a561e3f71ec2d3c988d56f12d342396c50cea61031e565b60006101ed7fd625496217aa6a3453eecb9c3489dc5a53e6c67b444329ea2b2cbc9ff547639b61031e565b60006101ed7f4172f0f7d2289153072b0a6ca36959e0cbe2efc3afe50fc81636caa96338137b61031e565b60006101ed7fdee64df20d65e53d7f51cb6ab6d921a0a6a638a91e942e1d8d02df28e31c038e61031e565b60008073ffffffffffffffffffffffffffffffffffffffff8316151561030d5760009150610318565b823b90506000811191505b50919050565b5490565b5490565b9055565b90555600a165627a7a7230582011dde276c5373896f3034af8449357ad9bb5fbfcfd199a85aeef252b0a933c3b00294172f0f7d2289153072b0a6ca36959e0cbe2efc3afe50fc81636caa96338137bdee64df20d65e53d7f51cb6ab6d921a0a6a638a91e942e1d8d02df28e31c038e608060405234801561001057600080fd5b506040516106ed3803806106ed8339810160409081528151602083015191830151909201828282600061004b84640100000000610124810204565b61005d8364010000000061014c810204565b61006f83640100000000610183810204565b90506000825111156101185761008d81640100000000610253810204565b151561009857600080fd5b80600160a060020a03168260405180828051906020019080838360005b838110156100cd5781810151838201526020016100b5565b50505050905090810190601f1680156100fa5780820380516001836020036101000a031916815260200191505b50915050600060405180830381855af4915050151561011857600080fd5b505050505050506102b3565b6101496000805160206106cd833981519152826401000000006103d761028082021704565b50565b6101497fd625496217aa6a3453eecb9c3489dc5a53e6c67b444329ea2b2cbc9ff547639b826401000000006103d761028082021704565b6000610196640100000000610284810204565b604080517fbe00bbd80000000000000000000000000000000000000000000000000000000081527ff1f3eb40f5bc1ad1344716ced8b8a0431d840b5783aea1fd01786bc26f35ac0f6004820152602481018590529051600160a060020a03929092169163be00bbd8916044808201926020929091908290030181600087803b15801561022157600080fd5b505af1158015610235573d6000803e3d6000fd5b505050506040513d602081101561024b57600080fd5b505192915050565b600080600160a060020a038316151561026f576000915061027a565b823b90506000811191505b50919050565b9055565b60006102aa6000805160206106cd8339815191526401000000006103cf6102af82021704565b905090565b5490565b61040b806102c26000396000f30060806040526004361061006c5763ffffffff7c01000000000000000000000000000000000000000000000000000000006000350416634555d5c9811461012b57806348a0c8dd146101525780635c60da1b1461017b57806380afdea8146101b9578063d4aae0c4146101ce575b6127107f665fd576fbbe6f247aff98f5c94a561e3f71ec2d3c988d56f12d342396c50cea6000825a10156100e15760003411361583541616156100dc576040513381523460208201527f15eeaa57c7bd188c1388020bcadc2c436ec60d647d36ef5b9eb3c742217ddee1604082a1005b600080fd5b6100e96101e3565b9050610126816000368080601f016020809104026020016040519081016040528093929190818152602001838380828437506101fa945050505050565b505050005b34801561013757600080fd5b5061014061023b565b60408051918252519081900360200190f35b34801561015e57600080fd5b50610167610240565b604080519115158252519081900360200190f35b34801561018757600080fd5b506101906101e3565b6040805173ffffffffffffffffffffffffffffffffffffffff9092168252519081900360200190f35b3480156101c557600080fd5b5061014061026b565b3480156101da57600080fd5b50610190610296565b60006101f56101f061026b565b6102c1565b905090565b600061020583610395565b151561021057600080fd5b612710905060008083516020850186855a03f43d604051816000823e828015610237578282f35b8282fd5b600290565b60006101f57f665fd576fbbe6f247aff98f5c94a561e3f71ec2d3c988d56f12d342396c50cea6103cf565b60006101f57fd625496217aa6a3453eecb9c3489dc5a53e6c67b444329ea2b2cbc9ff547639b6103cf565b60006101f57f4172f0f7d2289153072b0a6ca36959e0cbe2efc3afe50fc81636caa96338137b6103cf565b60006102cb610296565b604080517fbe00bbd80000000000000000000000000000000000000000000000000000000081527ff1f3eb40f5bc1ad1344716ced8b8a0431d840b5783aea1fd01786bc26f35ac0f600482015260248101859052905173ffffffffffffffffffffffffffffffffffffffff929092169163be00bbd8916044808201926020929091908290030181600087803b15801561036357600080fd5b505af1158015610377573d6000803e3d6000fd5b505050506040513d602081101561038d57600080fd5b505192915050565b60008073ffffffffffffffffffffffffffffffffffffffff831615156103be57600091506103c9565b823b90506000811191505b50919050565b5490565b5490565b9055565b90555600a165627a7a7230582037fda6007dae017dcd94ca2548a6ac816a59129ff8c0a1770a132538939f53c200294172f0f7d2289153072b0a6ca36959e0cbe2efc3afe50fc81636caa96338137ba165627a7a7230582073c80e3ee9c0676e36242a187c6a19791c0193a0cea6ad9624208df43f6f664b0029",
  "source": "pragma solidity 0.4.24;\n\nimport \"../apps/AppProxyUpgradeable.sol\";\nimport \"../apps/AppProxyPinned.sol\";\n\n\ncontract AppProxyFactory {\n    event NewAppProxy(address proxy, bool isUpgradeable, bytes32 appId);\n\n    /**\n    * @notice Create a new upgradeable app instance on `_kernel` with identifier `_appId`\n    * @param _kernel App's Kernel reference\n    * @param _appId Identifier for app\n    * @return AppProxyUpgradeable\n    */\n    function newAppProxy(IKernel _kernel, bytes32 _appId) public returns (AppProxyUpgradeable) {\n        return newAppProxy(_kernel, _appId, new bytes(0));\n    }\n\n    /**\n    * @notice Create a new upgradeable app instance on `_kernel` with identifier `_appId` and initialization payload `_initializePayload`\n    * @param _kernel App's Kernel reference\n    * @param _appId Identifier for app\n    * @return AppProxyUpgradeable\n    */\n    function newAppProxy(IKernel _kernel, bytes32 _appId, bytes _initializePayload) public returns (AppProxyUpgradeable) {\n        AppProxyUpgradeable proxy = new AppProxyUpgradeable(_kernel, _appId, _initializePayload);\n        emit NewAppProxy(address(proxy), true, _appId);\n        return proxy;\n    }\n\n    /**\n    * @notice Create a new pinned app instance on `_kernel` with identifier `_appId`\n    * @param _kernel App's Kernel reference\n    * @param _appId Identifier for app\n    * @return AppProxyPinned\n    */\n    function newAppProxyPinned(IKernel _kernel, bytes32 _appId) public returns (AppProxyPinned) {\n        return newAppProxyPinned(_kernel, _appId, new bytes(0));\n    }\n\n    /**\n    * @notice Create a new pinned app instance on `_kernel` with identifier `_appId` and initialization payload `_initializePayload`\n    * @param _kernel App's Kernel reference\n    * @param _appId Identifier for app\n    * @param _initializePayload Proxy initialization payload\n    * @return AppProxyPinned\n    */\n    function newAppProxyPinned(IKernel _kernel, bytes32 _appId, bytes _initializePayload) public returns (AppProxyPinned) {\n        AppProxyPinned proxy = new AppProxyPinned(_kernel, _appId, _initializePayload);\n        emit NewAppProxy(address(proxy), false, _appId);\n        return proxy;\n    }\n}\n",
  "sourcePath": "@aragon/os/contracts/factory/AppProxyFactory.sol",
  "compiler": {
    "name": "solc",
    "version": "0.4.24+commit.e67f0147.Emscripten.clang"
  },
  "schemaVersion": "2.0.1",
  "updatedAt": "2021-04-01T16:02:51.319Z"
}