{
  "contractName": "AragonApp",
  "abi": [
    {
      "constant": true,
      "inputs": [],
      "name": "hasInitialized",
      "outputs": [
        {
          "name": "",
          "type": "bool"
        }
      ],
      "payable": false,
      "stateMutability": "view",
      "type": "function"
    },
    {
      "constant": true,
      "inputs": [
        {
          "name": "_script",
          "type": "bytes"
        }
      ],
      "name": "getEVMScriptExecutor",
      "outputs": [
        {
          "name": "",
          "type": "address"
        }
      ],
      "payable": false,
      "stateMutability": "view",
      "type": "function"
    },
    {
      "constant": true,
      "inputs": [
        {
          "name": "token",
          "type": "address"
        }
      ],
      "name": "allowRecoverability",
      "outputs": [
        {
          "name": "",
          "type": "bool"
        }
      ],
      "payable": false,
      "stateMutability": "view",
      "type": "function"
    },
    {
      "constant": true,
      "inputs": [],
      "name": "appId",
      "outputs": [
        {
          "name": "",
          "type": "bytes32"
        }
      ],
      "payable": false,
      "stateMutability": "view",
      "type": "function"
    },
    {
      "constant": true,
      "inputs": [],
      "name": "getInitializationBlock",
      "outputs": [
        {
          "name": "",
          "type": "uint256"
        }
      ],
      "payable": false,
      "stateMutability": "view",
      "type": "function"
    },
    {
      "constant": false,
      "inputs": [
        {
          "name": "_token",
          "type": "address"
        }
      ],
      "name": "transferToVault",
      "outputs": [],
      "payable": false,
      "stateMutability": "nonpayable",
      "type": "function"
    },
    {
      "constant": true,
      "inputs": [],
      "name": "getEVMScriptRegistry",
      "outputs": [
        {
          "name": "",
          "type": "address"
        }
      ],
      "payable": false,
      "stateMutability": "view",
      "type": "function"
    },
    {
      "constant": true,
      "inputs": [],
      "name": "kernel",
      "outputs": [
        {
          "name": "",
          "type": "address"
        }
      ],
      "payable": false,
      "stateMutability": "view",
      "type": "function"
    },
    {
      "constant": true,
      "inputs": [],
      "name": "isPetrified",
      "outputs": [
        {
          "name": "",
          "type": "bool"
        }
      ],
      "payable": false,
      "stateMutability": "view",
      "type": "function"
    },
    {
      "anonymous": false,
      "inputs": [
        {
          "indexed": true,
          "name": "executor",
          "type": "address"
        },
        {
          "indexed": false,
          "name": "script",
          "type": "bytes"
        },
        {
          "indexed": false,
          "name": "input",
          "type": "bytes"
        },
        {
          "indexed": false,
          "name": "returnData",
          "type": "bytes"
        }
      ],
      "name": "ScriptResult",
      "type": "event"
    },
    {
      "anonymous": false,
      "inputs": [
        {
          "indexed": true,
          "name": "vault",
          "type": "address"
        },
        {
          "indexed": true,
          "name": "token",
          "type": "address"
        },
        {
          "indexed": false,
          "name": "amount",
          "type": "uint256"
        }
      ],
      "name": "RecoverToVault",
      "type": "event"
    },
    {
      "constant": true,
      "inputs": [
        {
          "name": "_sender",
          "type": "address"
        },
        {
          "name": "_role",
          "type": "bytes32"
        },
        {
          "name": "_params",
          "type": "uint256[]"
        }
      ],
      "name": "canPerform",
      "outputs": [
        {
          "name": "",
          "type": "bool"
        }
      ],
      "payable": false,
      "stateMutability": "view",
      "type": "function"
    },
    {
      "constant": true,
      "inputs": [],
      "name": "getRecoveryVault",
      "outputs": [
        {
          "name": "",
          "type": "address"
        }
      ],
      "payable": false,
      "stateMutability": "view",
      "type": "function"
    }
  ],
  "bytecode": "0x6080604052620000176401000000006200001d810204565b6200023b565b6200003064010000000062000125810204565b60408051808201909152601881527f494e49545f414c52454144595f494e495449414c495a45440000000000000000602082015290156200010c576040517f08c379a00000000000000000000000000000000000000000000000000000000081526004018080602001828103825283818151815260200191508051906020019080838360005b83811015620000d0578181015183820152602001620000b6565b50505050905090810190601f168015620000fe5780820380516001836020036101000a031916815260200191505b509250505060405180910390fd5b506200012360001964010000000062000154810204565b565b60006200014f6000805160206200101b83398151915264010000000062000b046200023382021704565b905090565b6200016764010000000062000125810204565b60408051808201909152601881527f494e49545f414c52454144595f494e495449414c495a454400000000000000006020820152901562000206576040517f08c379a000000000000000000000000000000000000000000000000000000000815260040180806020018281038252838181518152602001915080519060200190808383600083811015620000d0578181015183820152602001620000b6565b50620002306000805160206200101b8339815191528264010000000062000da06200023782021704565b50565b5490565b9055565b610dd0806200024b6000396000f3006080604052600436106100ae5763ffffffff7c01000000000000000000000000000000000000000000000000000000006000350416630803fac081146100b35780632914b9bd146100dc57806332f0a3b51461015e5780637e7db6e11461017357806380afdea8146101a15780638b3dd749146101c85780639d4941d8146101dd578063a1658fad1461020d578063a479e50814610281578063d4aae0c414610296578063de4796ed146102ab575b600080fd5b3480156100bf57600080fd5b506100c86102c0565b604080519115158252519081900360200190f35b3480156100e857600080fd5b506040805160206004803580820135601f81018490048402850184019095528484526101359436949293602493928401919081908401838280828437509497506102e99650505050505050565b6040805173ffffffffffffffffffffffffffffffffffffffff9092168252519081900360200190f35b34801561016a57600080fd5b506101356103f5565b34801561017f57600080fd5b506100c873ffffffffffffffffffffffffffffffffffffffff60043516610493565b3480156101ad57600080fd5b506101b6610499565b60408051918252519081900360200190f35b3480156101d457600080fd5b506101b66104c9565b3480156101e957600080fd5b5061020b73ffffffffffffffffffffffffffffffffffffffff600435166104f4565b005b34801561021957600080fd5b5060408051602060046044358181013583810280860185019096528085526100c895833573ffffffffffffffffffffffffffffffffffffffff169560248035963696956064959394920192918291850190849080828437509497506108529650505050505050565b34801561028d57600080fd5b506101356109e2565b3480156102a257600080fd5b50610135610aa4565b3480156102b757600080fd5b506100c8610acf565b6000806102cb6104c9565b905080158015906102e35750806102e0610b00565b10155b91505090565b60006102f36109e2565b73ffffffffffffffffffffffffffffffffffffffff166304bf2a7f836040518263ffffffff167c01000000000000000000000000000000000000000000000000000000000281526004018080602001828103825283818151815260200191508051906020019080838360005b8381101561037757818101518382015260200161035f565b50505050905090810190601f1680156103a45780820380516001836020036101000a031916815260200191505b5092505050602060405180830381600087803b1580156103c357600080fd5b505af11580156103d7573d6000803e3d6000fd5b505050506040513d60208110156103ed57600080fd5b505192915050565b60006103ff610aa4565b73ffffffffffffffffffffffffffffffffffffffff166332f0a3b56040518163ffffffff167c0100000000000000000000000000000000000000000000000000000000028152600401602060405180830381600087803b15801561046257600080fd5b505af1158015610476573d6000803e3d6000fd5b505050506040513d602081101561048c57600080fd5b5051905090565b50600190565b60006104c47fd625496217aa6a3453eecb9c3489dc5a53e6c67b444329ea2b2cbc9ff547639b610b04565b905090565b60006104c47febb05b386a8d34882b8711d156f463690983dc47815980fb82aeeff1aa43579e610b04565b600080600061050284610493565b60408051808201909152601281527f5245434f5645525f444953414c4c4f574544000000000000000000000000000060208201529015156105db576040517f08c379a00000000000000000000000000000000000000000000000000000000081526004018080602001828103825283818151815260200191508051906020019080838360005b838110156105a0578181015183820152602001610588565b50505050905090810190601f1680156105cd5780820380516001836020036101000a031916815260200191505b509250505060405180910390fd5b506105e46103f5565b92506105ef83610b0c565b60408051808201909152601a81527f5245434f5645525f5641554c545f4e4f545f434f4e5452414354000000000000602082015290151561068c576040517f08c379a0000000000000000000000000000000000000000000000000000000008152600401808060200182810382528381815181526020019150805190602001908083836000838110156105a0578181015183820152602001610588565b5073ffffffffffffffffffffffffffffffffffffffff841615156106f7576040513031925073ffffffffffffffffffffffffffffffffffffffff84169083156108fc029084906000818181858888f193505050501580156106f1573d6000803e3d6000fd5b506107e7565b508261071f73ffffffffffffffffffffffffffffffffffffffff82163063ffffffff610b4616565b915061074873ffffffffffffffffffffffffffffffffffffffff8216848463ffffffff610c7f16565b60408051808201909152601d81527f5245434f5645525f544f4b454e5f5452414e534645525f4641494c454400000060208201529015156107e5576040517f08c379a0000000000000000000000000000000000000000000000000000000008152600401808060200182810382528381815181526020019150805190602001908083836000838110156105a0578181015183820152602001610588565b505b8373ffffffffffffffffffffffffffffffffffffffff168373ffffffffffffffffffffffffffffffffffffffff167f596caf56044b55fb8c4ca640089bbc2b63cae3e978b851f5745cbb7c5b288e02846040518082815260200191505060405180910390a350505050565b60008061085d6102c0565b151561086c57600091506109da565b610874610aa4565b905073ffffffffffffffffffffffffffffffffffffffff8116151561089c57600091506109da565b8073ffffffffffffffffffffffffffffffffffffffff1663fdef91068630876108c488610d17565b6040517c010000000000000000000000000000000000000000000000000000000063ffffffff871602815273ffffffffffffffffffffffffffffffffffffffff808616600483019081529085166024830152604482018490526080606483019081528351608484015283519192909160a490910190602085019080838360005b8381101561095c578181015183820152602001610944565b50505050905090810190601f1680156109895780820380516001836020036101000a031916815260200191505b5095505050505050602060405180830381600087803b1580156109ab57600080fd5b505af11580156109bf573d6000803e3d6000fd5b505050506040513d60208110156109d557600080fd5b505191505b509392505050565b6000806109ed610aa4565b604080517fbe00bbd80000000000000000000000000000000000000000000000000000000081527fd6f028ca0e8edb4a8c9757ca4fdccab25fa1e0317da1188108f7d2dee14902fb60048201527fddbcfd564f642ab5627cf68b9b7d374fb4f8a36e941a75d89c87998cef03bd616024820152905173ffffffffffffffffffffffffffffffffffffffff929092169163be00bbd8916044808201926020929091908290030181600087803b1580156103c357600080fd5b60006104c47f4172f0f7d2289153072b0a6ca36959e0cbe2efc3afe50fc81636caa96338137b610b04565b60007fffffffffffffffffffffffffffffffffffffffffffffffffffffffffffffffff610afa6104c9565b14905090565b4390565b5490565b5490565b60008073ffffffffffffffffffffffffffffffffffffffff83161515610b355760009150610b40565b823b90506000811191505b50919050565b6040805173ffffffffffffffffffffffffffffffffffffffff83166024808301919091528251808303909101815260449091019091526020810180517bffffffffffffffffffffffffffffffffffffffffffffffffffffffff167f70a08231000000000000000000000000000000000000000000000000000000001790526000908180610bd38684610d21565b60408051808201909152601c81527f534146455f4552435f32305f42414c414e43455f52455645525445440000000060208201529193509150821515610c75576040517f08c379a0000000000000000000000000000000000000000000000000000000008152600401808060200182810382528381815181526020019150805190602001908083836000838110156105a0578181015183820152602001610588565b5095945050505050565b6040805173ffffffffffffffffffffffffffffffffffffffff8416602482015260448082018490528251808303909101815260649091019091526020810180517bffffffffffffffffffffffffffffffffffffffffffffffffffffffff167fa9059cbb00000000000000000000000000000000000000000000000000000000179052600090610d0e8582610d52565b95945050505050565b8051602002815290565b6000806000806040516020818751602089018a5afa92506000831115610d4657805191505b50909590945092505050565b6000806040516020818551602087016000895af16000811115610d96573d8015610d835760208114610d8c57610d94565b60019350610d94565b600183511493505b505b5090949350505050565b90555600a165627a7a723058206112fff0dee4b5de8214052207cbe8210f7f498d85aef634e3146f0e0c3c76cd0029ebb05b386a8d34882b8711d156f463690983dc47815980fb82aeeff1aa43579e",
  "source": "/*\n * SPDX-License-Identitifer:    MIT\n */\n\npragma solidity ^0.4.24;\n\nimport \"./AppStorage.sol\";\nimport \"../acl/ACLSyntaxSugar.sol\";\nimport \"../common/Autopetrified.sol\";\nimport \"../common/ConversionHelpers.sol\";\nimport \"../common/ReentrancyGuard.sol\";\nimport \"../common/VaultRecoverable.sol\";\nimport \"../evmscript/EVMScriptRunner.sol\";\n\n\n// Contracts inheriting from AragonApp are, by default, immediately petrified upon deployment so\n// that they can never be initialized.\n// Unless overriden, this behaviour enforces those contracts to be usable only behind an AppProxy.\n// ReentrancyGuard, EVMScriptRunner, and ACLSyntaxSugar are not directly used by this contract, but\n// are included so that they are automatically usable by subclassing contracts\ncontract AragonApp is AppStorage, Autopetrified, VaultRecoverable, ReentrancyGuard, EVMScriptRunner, ACLSyntaxSugar {\n    string private constant ERROR_AUTH_FAILED = \"APP_AUTH_FAILED\";\n\n    modifier auth(bytes32 _role) {\n        require(canPerform(msg.sender, _role, new uint256[](0)), ERROR_AUTH_FAILED);\n        _;\n    }\n\n    modifier authP(bytes32 _role, uint256[] _params) {\n        require(canPerform(msg.sender, _role, _params), ERROR_AUTH_FAILED);\n        _;\n    }\n\n    /**\n    * @dev Check whether an action can be performed by a sender for a particular role on this app\n    * @param _sender Sender of the call\n    * @param _role Role on this app\n    * @param _params Permission params for the role\n    * @return Boolean indicating whether the sender has the permissions to perform the action.\n    *         Always returns false if the app hasn't been initialized yet.\n    */\n    function canPerform(address _sender, bytes32 _role, uint256[] _params) public view returns (bool) {\n        if (!hasInitialized()) {\n            return false;\n        }\n\n        IKernel linkedKernel = kernel();\n        if (address(linkedKernel) == address(0)) {\n            return false;\n        }\n\n        return linkedKernel.hasPermission(\n            _sender,\n            address(this),\n            _role,\n            ConversionHelpers.dangerouslyCastUintArrayToBytes(_params)\n        );\n    }\n\n    /**\n    * @dev Get the recovery vault for the app\n    * @return Recovery vault address for the app\n    */\n    function getRecoveryVault() public view returns (address) {\n        // Funds recovery via a vault is only available when used with a kernel\n        return kernel().getRecoveryVault(); // if kernel is not set, it will revert\n    }\n}\n",
  "sourcePath": "@aragon/os/contracts/apps/AragonApp.sol",
  "compiler": {
    "name": "solc",
    "version": "0.4.24+commit.e67f0147.Emscripten.clang"
  },
  "schemaVersion": "2.0.1",
  "updatedAt": "2021-04-01T16:02:51.339Z"
}