{
  "contractName": "BareTemplate",
  "abi": [
    {
      "inputs": [
        {
          "name": "_daoFactory",
          "type": "address"
        },
        {
          "name": "_ens",
          "type": "address"
        },
        {
          "name": "_miniMeFactory",
          "type": "address"
        },
        {
          "name": "_aragonID",
          "type": "address"
        }
      ],
      "payable": false,
      "stateMutability": "nonpayable",
      "type": "constructor"
    },
    {
      "anonymous": false,
      "inputs": [
        {
          "indexed": false,
          "name": "dao",
          "type": "address"
        }
      ],
      "name": "DeployDao",
      "type": "event"
    },
    {
      "anonymous": false,
      "inputs": [
        {
          "indexed": false,
          "name": "dao",
          "type": "address"
        }
      ],
      "name": "SetupDao",
      "type": "event"
    },
    {
      "anonymous": false,
      "inputs": [
        {
          "indexed": false,
          "name": "token",
          "type": "address"
        }
      ],
      "name": "DeployToken",
      "type": "event"
    },
    {
      "anonymous": false,
      "inputs": [
        {
          "indexed": false,
          "name": "appProxy",
          "type": "address"
        },
        {
          "indexed": false,
          "name": "appId",
          "type": "bytes32"
        }
      ],
      "name": "InstalledApp",
      "type": "event"
    },
    {
      "constant": false,
      "inputs": [
        {
          "name": "_appId",
          "type": "bytes32"
        },
        {
          "name": "_roles",
          "type": "bytes32[]"
        },
        {
          "name": "_authorizedAddress",
          "type": "address"
        },
        {
          "name": "_initializeCallData",
          "type": "bytes"
        }
      ],
      "name": "newInstance",
      "outputs": [],
      "payable": false,
      "stateMutability": "nonpayable",
      "type": "function"
    },
    {
      "constant": false,
      "inputs": [],
      "name": "newInstance",
      "outputs": [],
      "payable": false,
      "stateMutability": "nonpayable",
      "type": "function"
    }
  ],
  "bytecode": "0x608060405234801561001057600080fd5b50604051608080610f7883398101604090815281516020830151918301516060909301519092908383838361004d8364010000000061022c810204565b60408051808201909152601981527f54454d504c4154455f454e535f4e4f545f434f4e5452414354000000000000006020820152901515610126576040517f08c379a00000000000000000000000000000000000000000000000000000000081526004018080602001828103825283818151815260200191508051906020019080838360005b838110156100eb5781810151838201526020016100d3565b50505050905090810190601f1680156101185780820380516001836020036101000a031916815260200191505b509250505060405180910390fd5b506101398464010000000061022c810204565b60408051808201909152601d81527f54454d504c4154455f44414f5f4641435f4e4f545f434f4e545241435400000060208201529015156101d6576040517f08c379a0000000000000000000000000000000000000000000000000000000008152600401808060200182810382528381815181526020019150805190602001908083836000838110156100eb5781810151838201526020016100d3565b5060008054600160a060020a0319908116600160a060020a039586161790915560038054821692851692909217909155600180548216948416949094179093556002805490931691161790555061025992505050565b600080600160a060020a03831615156102485760009150610253565b823b90506000811191505b50919050565b610d10806102686000396000f30060806040526004361061004b5763ffffffff7c010000000000000000000000000000000000000000000000000000000060003504166316fda24681146100505780635219cfa514610106575b600080fd5b34801561005c57600080fd5b506040805160206004602480358281013584810280870186019097528086526101049684359636966044959194909101929182918501908490808284375050604080516020601f818a01358b0180359182018390048302840183018552818452989b73ffffffffffffffffffffffffffffffffffffffff8b35169b909a90999401975091955091820193509150819084018382808284375094975061011b9650505050505050565b005b34801561011257600080fd5b50610104610243565b336000808080610129610269565b9094509250881561022e57610141848a886000610491565b9150600090505b875181101561022e578273ffffffffffffffffffffffffffffffffffffffff1663be03847888848b8581518110151561017d57fe5b60209081029091010151604080517c010000000000000000000000000000000000000000000000000000000063ffffffff871602815273ffffffffffffffffffffffffffffffffffffffff94851660048201529284166024840152604483019190915291891660648201529051608480830192600092919082900301818387803b15801561020a57600080fd5b505af115801561021e573d6000803e3d6000fd5b5050600190920191506101489050565b6102388486610618565b505050505050505050565b6040805160008082526020820181815282840190935261026792909190829061011b565b565b600154604080517f216874440000000000000000000000000000000000000000000000000000000081523060048201529051600092839273ffffffffffffffffffffffffffffffffffffffff9091169163216874449160248082019260209290919082900301818787803b1580156102e057600080fd5b505af11580156102f4573d6000803e3d6000fd5b505050506040513d602081101561030a57600080fd5b50516040805173ffffffffffffffffffffffffffffffffffffffff8316815290519193507f0b13a9ab90735191cd544fd95ba68d1385144561cbdeb8acb8035de9a86432f5919081900360200190a18173ffffffffffffffffffffffffffffffffffffffff1663de2873596040518163ffffffff167c0100000000000000000000000000000000000000000000000000000000028152600401602060405180830381600087803b1580156103bd57600080fd5b505af11580156103d1573d6000803e3d6000fd5b505050506040513d60208110156103e757600080fd5b5051604080517f8ea8dc9d000000000000000000000000000000000000000000000000000000008152905191925061048d918391859173ffffffffffffffffffffffffffffffffffffffff831691638ea8dc9d9160048083019260209291908290030181600087803b15801561045c57600080fd5b505af1158015610470573d6000803e3d6000fd5b505050506040513d602081101561048657600080fd5b5051610627565b9091565b600080600061049f866106cc565b6040517f397edd410000000000000000000000000000000000000000000000000000000081526004810188815273ffffffffffffffffffffffffffffffffffffffff80841660248401528715156064840152608060448401908152895160848501528951949650908b169363397edd41938b9388938c938c9360a40190602086019080838360005b8381101561053f578181015183820152602001610527565b50505050905090810190601f16801561056c5780820380516001836020036101000a031916815260200191505b5095505050505050602060405180830381600087803b15801561058e57600080fd5b505af11580156105a2573d6000803e3d6000fd5b505050506040513d60208110156105b857600080fd5b50516040805173ffffffffffffffffffffffffffffffffffffffff831681526020810189905281519293507f2b183a501d4b1bbd30e6611ebac40ab18a00390e6c6bed324bf92a265c9ce6e3929081900390910190a19695505050505050565b61062382828361092f565b5050565b604080517fbe038478000000000000000000000000000000000000000000000000000000008152306004820181905273ffffffffffffffffffffffffffffffffffffffff858116602484015260448301859052606483019190915291519185169163be0384789160848082019260009290919082900301818387803b1580156106af57600080fd5b505af11580156106c3573d6000803e3d6000fd5b50505050505050565b60008054604080517f0178b8bf000000000000000000000000000000000000000000000000000000008152600481018590529051839273ffffffffffffffffffffffffffffffffffffffff1691630178b8bf91602480830192602092919082900301818787803b15801561073f57600080fd5b505af1158015610753573d6000803e3d6000fd5b505050506040513d602081101561076957600080fd5b5051604080517f3b3b57de00000000000000000000000000000000000000000000000000000000815260048101869052905173ffffffffffffffffffffffffffffffffffffffff90921691633b3b57de916024808201926020929091908290030181600087803b1580156107dc57600080fd5b505af11580156107f0573d6000803e3d6000fd5b505050506040513d602081101561080657600080fd5b5051604080517fc36af460000000000000000000000000000000000000000000000000000000008152905191925073ffffffffffffffffffffffffffffffffffffffff83169163c36af4609160048082019260009290919082900301818387803b15801561087357600080fd5b505af1158015610887573d6000803e3d6000fd5b505050506040513d6000823e601f3d9081017fffffffffffffffffffffffffffffffffffffffffffffffffffffffffffffffe016820160405260a08110156108ce57600080fd5b606082015160808301805191928401918491906401000000008111156108f357600080fd5b8201602081018481111561090657600080fd5b815164010000000081118282018710171561092057600080fd5b50949998505050505050505050565b60008373ffffffffffffffffffffffffffffffffffffffff1663de2873596040518163ffffffff167c0100000000000000000000000000000000000000000000000000000000028152600401602060405180830381600087803b15801561099557600080fd5b505af11580156109a9573d6000803e3d6000fd5b505050506040513d60208110156109bf57600080fd5b5051604080517f8ea8dc9d0000000000000000000000000000000000000000000000000000000081529051919250610a699183918791879173ffffffffffffffffffffffffffffffffffffffff841691638ea8dc9d916004808201926020929091908290030181600087803b158015610a3757600080fd5b505af1158015610a4b573d6000803e3d6000fd5b505050506040513d6020811015610a6157600080fd5b505186610b22565b610ad38182858473ffffffffffffffffffffffffffffffffffffffff16633d6ab68f6040518163ffffffff167c0100000000000000000000000000000000000000000000000000000000028152600401602060405180830381600087803b158015610a3757600080fd5b6040805173ffffffffffffffffffffffffffffffffffffffff8616815290517f17592627a66846ce06d92a1708275bc653b2a3f34aec855584b819872a8ba4139181900360200190a150505050565b604080517f0a8ed3db00000000000000000000000000000000000000000000000000000000815273ffffffffffffffffffffffffffffffffffffffff8581166004830152868116602483015260448201859052915191871691630a8ed3db9160648082019260009290919082900301818387803b158015610ba257600080fd5b505af1158015610bb6573d6000803e3d6000fd5b5050604080517f9d0effdb00000000000000000000000000000000000000000000000000000000815230600482015273ffffffffffffffffffffffffffffffffffffffff88811660248301526044820187905291519189169350639d0effdb925060648082019260009290919082900301818387803b158015610c3857600080fd5b505af1158015610c4c573d6000803e3d6000fd5b5050604080517fafd925df00000000000000000000000000000000000000000000000000000000815273ffffffffffffffffffffffffffffffffffffffff85811660048301528881166024830152604482018790529151918916935063afd925df925060648082019260009290919082900301818387803b158015610cd057600080fd5b505af1158015610238573d6000803e3d6000fd00a165627a7a72305820750d7305a0ce19ac25941bf64274e82f54c1595bb83d4d039e2cb5ffc4f65d530029",
  "source": "pragma solidity 0.4.24;\n\nimport \"@aragon/templates-shared/contracts/BaseTemplate.sol\";\n\n\ncontract BareTemplate is BaseTemplate {\n\n    constructor(DAOFactory _daoFactory, ENS _ens, MiniMeTokenFactory _miniMeFactory, IFIFSResolvingRegistrar _aragonID)\n        BaseTemplate(_daoFactory, _ens, _miniMeFactory, _aragonID)\n        public\n    {\n        // solium-disable-previous-line no-empty-blocks\n    }\n\n    function newInstance() public {\n        newInstance(bytes32(0), new bytes32[](0), address(0), new bytes(0));\n    }\n\n    function newInstance(bytes32 _appId, bytes32[] memory _roles, address _authorizedAddress, bytes memory _initializeCallData) public {\n        address root = msg.sender;\n        (Kernel dao, ACL acl) = _createDAO();\n\n        // If there is no appId, an empty DAO will be created\n        if (_appId != bytes32(0)) {\n            address proxy = _installApp(dao, _appId, _initializeCallData, false);\n            for (uint256 i = 0; i < _roles.length; i++) {\n                acl.createPermission(_authorizedAddress, proxy, _roles[i], root);\n            }\n        }\n\n        _transferRootPermissionsFromTemplateAndFinalizeDAO(dao, root);\n    }\n}\n",
  "sourcePath": "/home/tengree/Projects/api3/api3-dao/packages/dao/contracts/BareTemplate.sol",
  "compiler": {
    "name": "solc",
    "version": "0.4.24+commit.e67f0147.Emscripten.clang"
  },
  "schemaVersion": "2.0.1",
  "updatedAt": "2021-04-01T16:02:51.330Z"
}