{
  "contractName": "PublicResolver",
  "abi": [
    {
      "inputs": [
        {
          "name": "ensAddr",
          "type": "address"
        }
      ],
      "payable": false,
      "stateMutability": "nonpayable",
      "type": "constructor"
    },
    {
      "anonymous": false,
      "inputs": [
        {
          "indexed": true,
          "name": "node",
          "type": "bytes32"
        },
        {
          "indexed": false,
          "name": "a",
          "type": "address"
        }
      ],
      "name": "AddrChanged",
      "type": "event"
    },
    {
      "anonymous": false,
      "inputs": [
        {
          "indexed": true,
          "name": "node",
          "type": "bytes32"
        },
        {
          "indexed": false,
          "name": "hash",
          "type": "bytes32"
        }
      ],
      "name": "ContentChanged",
      "type": "event"
    },
    {
      "anonymous": false,
      "inputs": [
        {
          "indexed": true,
          "name": "node",
          "type": "bytes32"
        },
        {
          "indexed": false,
          "name": "name",
          "type": "string"
        }
      ],
      "name": "NameChanged",
      "type": "event"
    },
    {
      "anonymous": false,
      "inputs": [
        {
          "indexed": true,
          "name": "node",
          "type": "bytes32"
        },
        {
          "indexed": true,
          "name": "contentType",
          "type": "uint256"
        }
      ],
      "name": "ABIChanged",
      "type": "event"
    },
    {
      "anonymous": false,
      "inputs": [
        {
          "indexed": true,
          "name": "node",
          "type": "bytes32"
        },
        {
          "indexed": false,
          "name": "x",
          "type": "bytes32"
        },
        {
          "indexed": false,
          "name": "y",
          "type": "bytes32"
        }
      ],
      "name": "PubkeyChanged",
      "type": "event"
    },
    {
      "anonymous": false,
      "inputs": [
        {
          "indexed": true,
          "name": "node",
          "type": "bytes32"
        },
        {
          "indexed": true,
          "name": "indexedKey",
          "type": "string"
        },
        {
          "indexed": false,
          "name": "key",
          "type": "string"
        }
      ],
      "name": "TextChanged",
      "type": "event"
    },
    {
      "constant": true,
      "inputs": [
        {
          "name": "interfaceID",
          "type": "bytes4"
        }
      ],
      "name": "supportsInterface",
      "outputs": [
        {
          "name": "",
          "type": "bool"
        }
      ],
      "payable": false,
      "stateMutability": "pure",
      "type": "function"
    },
    {
      "constant": true,
      "inputs": [
        {
          "name": "node",
          "type": "bytes32"
        }
      ],
      "name": "addr",
      "outputs": [
        {
          "name": "ret",
          "type": "address"
        }
      ],
      "payable": false,
      "stateMutability": "view",
      "type": "function"
    },
    {
      "constant": false,
      "inputs": [
        {
          "name": "node",
          "type": "bytes32"
        },
        {
          "name": "addr",
          "type": "address"
        }
      ],
      "name": "setAddr",
      "outputs": [],
      "payable": false,
      "stateMutability": "nonpayable",
      "type": "function"
    },
    {
      "constant": true,
      "inputs": [
        {
          "name": "node",
          "type": "bytes32"
        }
      ],
      "name": "content",
      "outputs": [
        {
          "name": "ret",
          "type": "bytes32"
        }
      ],
      "payable": false,
      "stateMutability": "view",
      "type": "function"
    },
    {
      "constant": false,
      "inputs": [
        {
          "name": "node",
          "type": "bytes32"
        },
        {
          "name": "hash",
          "type": "bytes32"
        }
      ],
      "name": "setContent",
      "outputs": [],
      "payable": false,
      "stateMutability": "nonpayable",
      "type": "function"
    },
    {
      "constant": true,
      "inputs": [
        {
          "name": "node",
          "type": "bytes32"
        }
      ],
      "name": "name",
      "outputs": [
        {
          "name": "ret",
          "type": "string"
        }
      ],
      "payable": false,
      "stateMutability": "view",
      "type": "function"
    },
    {
      "constant": false,
      "inputs": [
        {
          "name": "node",
          "type": "bytes32"
        },
        {
          "name": "name",
          "type": "string"
        }
      ],
      "name": "setName",
      "outputs": [],
      "payable": false,
      "stateMutability": "nonpayable",
      "type": "function"
    },
    {
      "constant": true,
      "inputs": [
        {
          "name": "node",
          "type": "bytes32"
        },
        {
          "name": "contentTypes",
          "type": "uint256"
        }
      ],
      "name": "ABI",
      "outputs": [
        {
          "name": "contentType",
          "type": "uint256"
        },
        {
          "name": "data",
          "type": "bytes"
        }
      ],
      "payable": false,
      "stateMutability": "view",
      "type": "function"
    },
    {
      "constant": false,
      "inputs": [
        {
          "name": "node",
          "type": "bytes32"
        },
        {
          "name": "contentType",
          "type": "uint256"
        },
        {
          "name": "data",
          "type": "bytes"
        }
      ],
      "name": "setABI",
      "outputs": [],
      "payable": false,
      "stateMutability": "nonpayable",
      "type": "function"
    },
    {
      "constant": true,
      "inputs": [
        {
          "name": "node",
          "type": "bytes32"
        }
      ],
      "name": "pubkey",
      "outputs": [
        {
          "name": "x",
          "type": "bytes32"
        },
        {
          "name": "y",
          "type": "bytes32"
        }
      ],
      "payable": false,
      "stateMutability": "view",
      "type": "function"
    },
    {
      "constant": false,
      "inputs": [
        {
          "name": "node",
          "type": "bytes32"
        },
        {
          "name": "x",
          "type": "bytes32"
        },
        {
          "name": "y",
          "type": "bytes32"
        }
      ],
      "name": "setPubkey",
      "outputs": [],
      "payable": false,
      "stateMutability": "nonpayable",
      "type": "function"
    },
    {
      "constant": true,
      "inputs": [
        {
          "name": "node",
          "type": "bytes32"
        },
        {
          "name": "key",
          "type": "string"
        }
      ],
      "name": "text",
      "outputs": [
        {
          "name": "ret",
          "type": "string"
        }
      ],
      "payable": false,
      "stateMutability": "view",
      "type": "function"
    },
    {
      "constant": false,
      "inputs": [
        {
          "name": "node",
          "type": "bytes32"
        },
        {
          "name": "key",
          "type": "string"
        },
        {
          "name": "value",
          "type": "string"
        }
      ],
      "name": "setText",
      "outputs": [],
      "payable": false,
      "stateMutability": "nonpayable",
      "type": "function"
    }
  ],
  "bytecode": "0x608060405234801561001057600080fd5b5060405160208061141e833981016040525160008054600160a060020a03909216600160a060020a03199092169190911790556113cc806100526000396000f3006080604052600436106100c45763ffffffff7c010000000000000000000000000000000000000000000000000000000060003504166301ffc9a781146100c957806310f13a8c146101175780632203ab56146101b557806329cd62ea1461024f5780632dff69411461026d5780633b3b57de1461029757806359d1d43c146102d8578063623195b0146103ab578063691f34311461040b5780637737221314610423578063c3d014d614610481578063c86902331461049c578063d5fa2b00146104cd575b600080fd5b3480156100d557600080fd5b506101037fffffffff00000000000000000000000000000000000000000000000000000000600435166104fe565b604080519115158252519081900360200190f35b34801561012357600080fd5b5060408051602060046024803582810135601f81018590048502860185019096528585526101b395833595369560449491939091019190819084018382808284375050604080516020601f89358b018035918201839004830284018301909452808352979a9998810197919650918201945092508291508401838280828437509497506107139650505050505050565b005b3480156101c157600080fd5b506101d060043560243561098f565b6040518083815260200180602001828103825283818151815260200191508051906020019080838360005b838110156102135781810151838201526020016101fb565b50505050905090810190601f1680156102405780820380516001836020036101000a031916815260200191505b50935050505060405180910390f35b34801561025b57600080fd5b506101b3600435602435604435610a9b565b34801561027957600080fd5b50610285600435610bcb565b60408051918252519081900360200190f35b3480156102a357600080fd5b506102af600435610be1565b6040805173ffffffffffffffffffffffffffffffffffffffff9092168252519081900360200190f35b3480156102e457600080fd5b5060408051602060046024803582810135601f8101859004850286018501909652858552610336958335953695604494919390910191908190840183828082843750949750610c099650505050505050565b6040805160208082528351818301528351919283929083019185019080838360005b83811015610370578181015183820152602001610358565b50505050905090810190601f16801561039d5780820380516001836020036101000a031916815260200191505b509250505060405180910390f35b3480156103b757600080fd5b50604080516020600460443581810135601f81018490048402850184019095528484526101b3948235946024803595369594606494920191908190840183828082843750949750610d309650505050505050565b34801561041757600080fd5b50610336600435610e61565b34801561042f57600080fd5b5060408051602060046024803582810135601f81018590048502860185019096528585526101b3958335953695604494919390910191908190840183828082843750949750610f059650505050505050565b34801561048d57600080fd5b506101b360043560243561108b565b3480156104a857600080fd5b506104b460043561119c565b6040805192835260208301919091528051918290030190f35b3480156104d957600080fd5b506101b360043573ffffffffffffffffffffffffffffffffffffffff602435166111b9565b60007fffffffff0000000000000000000000000000000000000000000000000000000082167f3b3b57de00000000000000000000000000000000000000000000000000000000148061059157507fffffffff0000000000000000000000000000000000000000000000000000000082167fd8389dc500000000000000000000000000000000000000000000000000000000145b806105dd57507fffffffff0000000000000000000000000000000000000000000000000000000082167f691f343100000000000000000000000000000000000000000000000000000000145b8061062957507fffffffff0000000000000000000000000000000000000000000000000000000082167f2203ab5600000000000000000000000000000000000000000000000000000000145b8061067557507fffffffff0000000000000000000000000000000000000000000000000000000082167fc869023300000000000000000000000000000000000000000000000000000000145b806106c157507fffffffff0000000000000000000000000000000000000000000000000000000082167f59d1d43c00000000000000000000000000000000000000000000000000000000145b8061070d57507fffffffff0000000000000000000000000000000000000000000000000000000082167f01ffc9a700000000000000000000000000000000000000000000000000000000145b92915050565b60008054604080517f02571be30000000000000000000000000000000000000000000000000000000081526004810187905290518693339373ffffffffffffffffffffffffffffffffffffffff16926302571be39260248083019360209383900390910190829087803b15801561078957600080fd5b505af115801561079d573d6000803e3d6000fd5b505050506040513d60208110156107b357600080fd5b505173ffffffffffffffffffffffffffffffffffffffff16146107d557600080fd5b6000848152600160209081526040918290209151855185936005019287929182918401908083835b6020831061083a57805182527fffffffffffffffffffffffffffffffffffffffffffffffffffffffffffffffe090920191602091820191016107fd565b51815160209384036101000a6000190180199092169116179052920194855250604051938490038101909320845161087b9591949190910192509050611305565b50826040518082805190602001908083835b602083106108ca57805182527fffffffffffffffffffffffffffffffffffffffffffffffffffffffffffffffe0909201916020918201910161088d565b51815160209384036101000a60001901801990921691161790526040805192909401829003822081835289518383015289519096508a95507fd8c9334b1a9c2f9da342a0a2b32629c1a229b6445dad78947f674b44444a7550948a94508392908301919085019080838360005b8381101561094f578181015183820152602001610937565b50505050905090810190601f16801561097c5780820380516001836020036101000a031916815260200191505b509250505060405180910390a350505050565b60008281526001602081905260409091206060905b838311610a8e57828416158015906109dd5750600083815260068201602052604081205460026000196101006001841615020190911604115b15610a8357600083815260068201602090815260409182902080548351601f600260001961010060018616150201909316929092049182018490048402810184019094528084529091830182828015610a775780601f10610a4c57610100808354040283529160200191610a77565b820191906000526020600020905b815481529060010190602001808311610a5a57829003601f168201915b50505050509150610a93565b6002909202916109a4565b600092505b509250929050565b60008054604080517f02571be30000000000000000000000000000000000000000000000000000000081526004810187905290518693339373ffffffffffffffffffffffffffffffffffffffff16926302571be39260248083019360209383900390910190829087803b158015610b1157600080fd5b505af1158015610b25573d6000803e3d6000fd5b505050506040513d6020811015610b3b57600080fd5b505173ffffffffffffffffffffffffffffffffffffffff1614610b5d57600080fd5b604080518082018252848152602080820185815260008881526001835284902092516003840155516004909201919091558151858152908101849052815186927f1d6f5e03d3f63eb58751986629a5439baee5079ff04f345becb66e23eb154e46928290030190a250505050565b6000908152600160208190526040909120015490565b60009081526001602052604090205473ffffffffffffffffffffffffffffffffffffffff1690565b600082815260016020908152604091829020915183516060936005019285929182918401908083835b60208310610c6f57805182527fffffffffffffffffffffffffffffffffffffffffffffffffffffffffffffffe09092019160209182019101610c32565b518151600019602094850361010090810a820192831692199390931691909117909252949092019687526040805197889003820188208054601f6002600183161590980290950116959095049283018290048202880182019052818752929450925050830182828015610d235780601f10610cf857610100808354040283529160200191610d23565b820191906000526020600020905b815481529060010190602001808311610d0657829003601f168201915b5050505050905092915050565b60008054604080517f02571be30000000000000000000000000000000000000000000000000000000081526004810187905290518693339373ffffffffffffffffffffffffffffffffffffffff16926302571be39260248083019360209383900390910190829087803b158015610da657600080fd5b505af1158015610dba573d6000803e3d6000fd5b505050506040513d6020811015610dd057600080fd5b505173ffffffffffffffffffffffffffffffffffffffff1614610df257600080fd5b6000198301831615610e0357600080fd5b600084815260016020908152604080832086845260060182529091208351610e2d92850190611305565b50604051839085907faa121bbeef5f32f5961a2a28966e769023910fc9479059ee3495d4c1a696efe390600090a350505050565b6000818152600160208181526040928390206002908101805485516000199582161561010002959095011691909104601f81018390048302840183019094528383526060939091830182828015610ef95780601f10610ece57610100808354040283529160200191610ef9565b820191906000526020600020905b815481529060010190602001808311610edc57829003601f168201915b50505050509050919050565b60008054604080517f02571be30000000000000000000000000000000000000000000000000000000081526004810186905290518593339373ffffffffffffffffffffffffffffffffffffffff16926302571be39260248083019360209383900390910190829087803b158015610f7b57600080fd5b505af1158015610f8f573d6000803e3d6000fd5b505050506040513d6020811015610fa557600080fd5b505173ffffffffffffffffffffffffffffffffffffffff1614610fc757600080fd5b60008381526001602090815260409091208351610fec92600290920191850190611305565b50604080516020808252845181830152845186937fb7d29e911041e8d9b843369e890bcb72c9388692ba48b65ac54e7214c4c348f79387939092839283019185019080838360005b8381101561104c578181015183820152602001611034565b50505050905090810190601f1680156110795780820380516001836020036101000a031916815260200191505b509250505060405180910390a2505050565b60008054604080517f02571be30000000000000000000000000000000000000000000000000000000081526004810186905290518593339373ffffffffffffffffffffffffffffffffffffffff16926302571be39260248083019360209383900390910190829087803b15801561110157600080fd5b505af1158015611115573d6000803e3d6000fd5b505050506040513d602081101561112b57600080fd5b505173ffffffffffffffffffffffffffffffffffffffff161461114d57600080fd5b6000838152600160208181526040928390209091018490558151848152915185927f0424b6fe0d9c3bdbece0e7879dc241bb0c22e900be8b6c168b4ee08bd9bf83bc92908290030190a2505050565b600090815260016020526040902060038101546004909101549091565b60008054604080517f02571be30000000000000000000000000000000000000000000000000000000081526004810186905290518593339373ffffffffffffffffffffffffffffffffffffffff16926302571be39260248083019360209383900390910190829087803b15801561122f57600080fd5b505af1158015611243573d6000803e3d6000fd5b505050506040513d602081101561125957600080fd5b505173ffffffffffffffffffffffffffffffffffffffff161461127b57600080fd5b60008381526001602090815260409182902080547fffffffffffffffffffffffff00000000000000000000000000000000000000001673ffffffffffffffffffffffffffffffffffffffff86169081179091558251908152915185927f52d7d861f09ab3d26239d492e8968629f95e9e318cf0b73bfddc441522a15fd292908290030190a2505050565b828054600181600116156101000203166002900490600052602060002090601f016020900481019282601f1061134657805160ff1916838001178555611373565b82800160010185558215611373579182015b82811115611373578251825591602001919060010190611358565b5061137f929150611383565b5090565b61139d91905b8082111561137f5760008155600101611389565b905600a165627a7a723058202d83ebac891d5a36b62bc49f24c41dfcfc1b0d3024eaabfa6cc6e9861823767d0029",
  "source": "// See https://github.com/ensdomains/ens/blob/7e377df83f/contracts/PublicResolver.sol\n\npragma solidity ^0.4.0;\n\nimport \"./AbstractENS.sol\";\n\n/**\n * A simple resolver anyone can use; only allows the owner of a node to set its\n * address.\n */\ncontract PublicResolver {\n    bytes4 constant INTERFACE_META_ID = 0x01ffc9a7;\n    bytes4 constant ADDR_INTERFACE_ID = 0x3b3b57de;\n    bytes4 constant CONTENT_INTERFACE_ID = 0xd8389dc5;\n    bytes4 constant NAME_INTERFACE_ID = 0x691f3431;\n    bytes4 constant ABI_INTERFACE_ID = 0x2203ab56;\n    bytes4 constant PUBKEY_INTERFACE_ID = 0xc8690233;\n    bytes4 constant TEXT_INTERFACE_ID = 0x59d1d43c;\n\n    event AddrChanged(bytes32 indexed node, address a);\n    event ContentChanged(bytes32 indexed node, bytes32 hash);\n    event NameChanged(bytes32 indexed node, string name);\n    event ABIChanged(bytes32 indexed node, uint256 indexed contentType);\n    event PubkeyChanged(bytes32 indexed node, bytes32 x, bytes32 y);\n    event TextChanged(bytes32 indexed node, string indexed indexedKey, string key);\n\n    struct PublicKey {\n        bytes32 x;\n        bytes32 y;\n    }\n\n    struct Record {\n        address addr;\n        bytes32 content;\n        string name;\n        PublicKey pubkey;\n        mapping(string=>string) text;\n        mapping(uint256=>bytes) abis;\n    }\n\n    AbstractENS ens;\n    mapping(bytes32=>Record) records;\n\n    modifier only_owner(bytes32 node) {\n        if (ens.owner(node) != msg.sender) throw;\n        _;\n    }\n\n    /**\n     * Constructor.\n     * @param ensAddr The ENS registrar contract.\n     */\n    function PublicResolver(AbstractENS ensAddr) public {\n        ens = ensAddr;\n    }\n\n    /**\n     * Returns true if the resolver implements the interface specified by the provided hash.\n     * @param interfaceID The ID of the interface to check for.\n     * @return True if the contract implements the requested interface.\n     */\n    function supportsInterface(bytes4 interfaceID) public pure returns (bool) {\n        return interfaceID == ADDR_INTERFACE_ID ||\n               interfaceID == CONTENT_INTERFACE_ID ||\n               interfaceID == NAME_INTERFACE_ID ||\n               interfaceID == ABI_INTERFACE_ID ||\n               interfaceID == PUBKEY_INTERFACE_ID ||\n               interfaceID == TEXT_INTERFACE_ID ||\n               interfaceID == INTERFACE_META_ID;\n    }\n\n    /**\n     * Returns the address associated with an ENS node.\n     * @param node The ENS node to query.\n     * @return The associated address.\n     */\n    function addr(bytes32 node) public constant returns (address ret) {\n        ret = records[node].addr;\n    }\n\n    /**\n     * Sets the address associated with an ENS node.\n     * May only be called by the owner of that node in the ENS registry.\n     * @param node The node to update.\n     * @param addr The address to set.\n     */\n    function setAddr(bytes32 node, address addr) only_owner(node) public {\n        records[node].addr = addr;\n        AddrChanged(node, addr);\n    }\n\n    /**\n     * Returns the content hash associated with an ENS node.\n     * Note that this resource type is not standardized, and will likely change\n     * in future to a resource type based on multihash.\n     * @param node The ENS node to query.\n     * @return The associated content hash.\n     */\n    function content(bytes32 node) public constant returns (bytes32 ret) {\n        ret = records[node].content;\n    }\n\n    /**\n     * Sets the content hash associated with an ENS node.\n     * May only be called by the owner of that node in the ENS registry.\n     * Note that this resource type is not standardized, and will likely change\n     * in future to a resource type based on multihash.\n     * @param node The node to update.\n     * @param hash The content hash to set\n     */\n    function setContent(bytes32 node, bytes32 hash) only_owner(node) public {\n        records[node].content = hash;\n        ContentChanged(node, hash);\n    }\n\n    /**\n     * Returns the name associated with an ENS node, for reverse records.\n     * Defined in EIP181.\n     * @param node The ENS node to query.\n     * @return The associated name.\n     */\n    function name(bytes32 node) public constant returns (string ret) {\n        ret = records[node].name;\n    }\n\n    /**\n     * Sets the name associated with an ENS node, for reverse records.\n     * May only be called by the owner of that node in the ENS registry.\n     * @param node The node to update.\n     * @param name The name to set.\n     */\n    function setName(bytes32 node, string name) only_owner(node) public {\n        records[node].name = name;\n        NameChanged(node, name);\n    }\n\n    /**\n     * Returns the ABI associated with an ENS node.\n     * Defined in EIP205.\n     * @param node The ENS node to query\n     * @param contentTypes A bitwise OR of the ABI formats accepted by the caller.\n     * @return contentType The content type of the return value\n     * @return data The ABI data\n     */\n    function ABI(bytes32 node, uint256 contentTypes) public constant returns (uint256 contentType, bytes data) {\n        var record = records[node];\n        for(contentType = 1; contentType <= contentTypes; contentType <<= 1) {\n            if ((contentType & contentTypes) != 0 && record.abis[contentType].length > 0) {\n                data = record.abis[contentType];\n                return;\n            }\n        }\n        contentType = 0;\n    }\n\n    /**\n     * Sets the ABI associated with an ENS node.\n     * Nodes may have one ABI of each content type. To remove an ABI, set it to\n     * the empty string.\n     * @param node The node to update.\n     * @param contentType The content type of the ABI\n     * @param data The ABI data.\n     */\n    function setABI(bytes32 node, uint256 contentType, bytes data) only_owner(node) public {\n        // Content types must be powers of 2\n        if (((contentType - 1) & contentType) != 0) throw;\n\n        records[node].abis[contentType] = data;\n        ABIChanged(node, contentType);\n    }\n\n    /**\n     * Returns the SECP256k1 public key associated with an ENS node.\n     * Defined in EIP 619.\n     * @param node The ENS node to query\n     * @return x, y the X and Y coordinates of the curve point for the public key.\n     */\n    function pubkey(bytes32 node) public constant returns (bytes32 x, bytes32 y) {\n        return (records[node].pubkey.x, records[node].pubkey.y);\n    }\n\n    /**\n     * Sets the SECP256k1 public key associated with an ENS node.\n     * @param node The ENS node to query\n     * @param x the X coordinate of the curve point for the public key.\n     * @param y the Y coordinate of the curve point for the public key.\n     */\n    function setPubkey(bytes32 node, bytes32 x, bytes32 y) only_owner(node) public {\n        records[node].pubkey = PublicKey(x, y);\n        PubkeyChanged(node, x, y);\n    }\n\n    /**\n     * Returns the text data associated with an ENS node and key.\n     * @param node The ENS node to query.\n     * @param key The text data key to query.\n     * @return The associated text data.\n     */\n    function text(bytes32 node, string key) public constant returns (string ret) {\n        ret = records[node].text[key];\n    }\n\n    /**\n     * Sets the text data associated with an ENS node and key.\n     * May only be called by the owner of that node in the ENS registry.\n     * @param node The node to update.\n     * @param key The key to set.\n     * @param value The text data value to set.\n     */\n    function setText(bytes32 node, string key, string value) only_owner(node) public {\n        records[node].text[key] = value;\n        TextChanged(node, key, key);\n    }\n}\n",
  "sourcePath": "@aragon/os/contracts/lib/ens/PublicResolver.sol",
  "compiler": {
    "name": "solc",
    "version": "0.4.24+commit.e67f0147.Emscripten.clang"
  },
  "schemaVersion": "2.0.1",
  "updatedAt": "2021-04-01T16:02:51.454Z"
}