{
  "contractName": "Survey",
  "abi": [
    {
      "constant": true,
      "inputs": [],
      "name": "hasInitialized",
      "outputs": [
        {
          "name": "",
          "type": "bool"
        }
      ],
      "payable": false,
      "stateMutability": "view",
      "type": "function"
    },
    {
      "constant": true,
      "inputs": [],
      "name": "minParticipationPct",
      "outputs": [
        {
          "name": "",
          "type": "uint64"
        }
      ],
      "payable": false,
      "stateMutability": "view",
      "type": "function"
    },
    {
      "constant": true,
      "inputs": [
        {
          "name": "_script",
          "type": "bytes"
        }
      ],
      "name": "getEVMScriptExecutor",
      "outputs": [
        {
          "name": "",
          "type": "address"
        }
      ],
      "payable": false,
      "stateMutability": "view",
      "type": "function"
    },
    {
      "constant": true,
      "inputs": [],
      "name": "getRecoveryVault",
      "outputs": [
        {
          "name": "",
          "type": "address"
        }
      ],
      "payable": false,
      "stateMutability": "view",
      "type": "function"
    },
    {
      "constant": true,
      "inputs": [],
      "name": "MODIFY_PARTICIPATION_ROLE",
      "outputs": [
        {
          "name": "",
          "type": "bytes32"
        }
      ],
      "payable": false,
      "stateMutability": "view",
      "type": "function"
    },
    {
      "constant": true,
      "inputs": [
        {
          "name": "token",
          "type": "address"
        }
      ],
      "name": "allowRecoverability",
      "outputs": [
        {
          "name": "",
          "type": "bool"
        }
      ],
      "payable": false,
      "stateMutability": "view",
      "type": "function"
    },
    {
      "constant": true,
      "inputs": [],
      "name": "appId",
      "outputs": [
        {
          "name": "",
          "type": "bytes32"
        }
      ],
      "payable": false,
      "stateMutability": "view",
      "type": "function"
    },
    {
      "constant": true,
      "inputs": [],
      "name": "getInitializationBlock",
      "outputs": [
        {
          "name": "",
          "type": "uint256"
        }
      ],
      "payable": false,
      "stateMutability": "view",
      "type": "function"
    },
    {
      "constant": true,
      "inputs": [],
      "name": "surveyTime",
      "outputs": [
        {
          "name": "",
          "type": "uint64"
        }
      ],
      "payable": false,
      "stateMutability": "view",
      "type": "function"
    },
    {
      "constant": false,
      "inputs": [
        {
          "name": "_token",
          "type": "address"
        }
      ],
      "name": "transferToVault",
      "outputs": [],
      "payable": false,
      "stateMutability": "nonpayable",
      "type": "function"
    },
    {
      "constant": true,
      "inputs": [
        {
          "name": "_sender",
          "type": "address"
        },
        {
          "name": "_role",
          "type": "bytes32"
        },
        {
          "name": "_params",
          "type": "uint256[]"
        }
      ],
      "name": "canPerform",
      "outputs": [
        {
          "name": "",
          "type": "bool"
        }
      ],
      "payable": false,
      "stateMutability": "view",
      "type": "function"
    },
    {
      "constant": true,
      "inputs": [],
      "name": "getEVMScriptRegistry",
      "outputs": [
        {
          "name": "",
          "type": "address"
        }
      ],
      "payable": false,
      "stateMutability": "view",
      "type": "function"
    },
    {
      "constant": true,
      "inputs": [],
      "name": "CREATE_SURVEYS_ROLE",
      "outputs": [
        {
          "name": "",
          "type": "bytes32"
        }
      ],
      "payable": false,
      "stateMutability": "view",
      "type": "function"
    },
    {
      "constant": true,
      "inputs": [],
      "name": "ABSTAIN_VOTE",
      "outputs": [
        {
          "name": "",
          "type": "uint256"
        }
      ],
      "payable": false,
      "stateMutability": "view",
      "type": "function"
    },
    {
      "constant": true,
      "inputs": [],
      "name": "kernel",
      "outputs": [
        {
          "name": "",
          "type": "address"
        }
      ],
      "payable": false,
      "stateMutability": "view",
      "type": "function"
    },
    {
      "constant": true,
      "inputs": [],
      "name": "isPetrified",
      "outputs": [
        {
          "name": "",
          "type": "bool"
        }
      ],
      "payable": false,
      "stateMutability": "view",
      "type": "function"
    },
    {
      "constant": true,
      "inputs": [],
      "name": "surveysLength",
      "outputs": [
        {
          "name": "",
          "type": "uint256"
        }
      ],
      "payable": false,
      "stateMutability": "view",
      "type": "function"
    },
    {
      "constant": true,
      "inputs": [],
      "name": "token",
      "outputs": [
        {
          "name": "",
          "type": "address"
        }
      ],
      "payable": false,
      "stateMutability": "view",
      "type": "function"
    },
    {
      "constant": true,
      "inputs": [],
      "name": "PCT_BASE",
      "outputs": [
        {
          "name": "",
          "type": "uint64"
        }
      ],
      "payable": false,
      "stateMutability": "view",
      "type": "function"
    },
    {
      "anonymous": false,
      "inputs": [
        {
          "indexed": true,
          "name": "surveyId",
          "type": "uint256"
        },
        {
          "indexed": true,
          "name": "creator",
          "type": "address"
        },
        {
          "indexed": false,
          "name": "metadata",
          "type": "string"
        }
      ],
      "name": "StartSurvey",
      "type": "event"
    },
    {
      "anonymous": false,
      "inputs": [
        {
          "indexed": true,
          "name": "surveyId",
          "type": "uint256"
        },
        {
          "indexed": true,
          "name": "voter",
          "type": "address"
        },
        {
          "indexed": false,
          "name": "option",
          "type": "uint256"
        },
        {
          "indexed": false,
          "name": "stake",
          "type": "uint256"
        },
        {
          "indexed": false,
          "name": "optionPower",
          "type": "uint256"
        }
      ],
      "name": "CastVote",
      "type": "event"
    },
    {
      "anonymous": false,
      "inputs": [
        {
          "indexed": true,
          "name": "surveyId",
          "type": "uint256"
        },
        {
          "indexed": true,
          "name": "voter",
          "type": "address"
        },
        {
          "indexed": false,
          "name": "option",
          "type": "uint256"
        },
        {
          "indexed": false,
          "name": "previousStake",
          "type": "uint256"
        },
        {
          "indexed": false,
          "name": "optionPower",
          "type": "uint256"
        }
      ],
      "name": "ResetVote",
      "type": "event"
    },
    {
      "anonymous": false,
      "inputs": [
        {
          "indexed": false,
          "name": "minParticipationPct",
          "type": "uint64"
        }
      ],
      "name": "ChangeMinParticipation",
      "type": "event"
    },
    {
      "anonymous": false,
      "inputs": [
        {
          "indexed": true,
          "name": "executor",
          "type": "address"
        },
        {
          "indexed": false,
          "name": "script",
          "type": "bytes"
        },
        {
          "indexed": false,
          "name": "input",
          "type": "bytes"
        },
        {
          "indexed": false,
          "name": "returnData",
          "type": "bytes"
        }
      ],
      "name": "ScriptResult",
      "type": "event"
    },
    {
      "anonymous": false,
      "inputs": [
        {
          "indexed": true,
          "name": "vault",
          "type": "address"
        },
        {
          "indexed": true,
          "name": "token",
          "type": "address"
        },
        {
          "indexed": false,
          "name": "amount",
          "type": "uint256"
        }
      ],
      "name": "RecoverToVault",
      "type": "event"
    },
    {
      "constant": false,
      "inputs": [
        {
          "name": "_token",
          "type": "address"
        },
        {
          "name": "_minParticipationPct",
          "type": "uint64"
        },
        {
          "name": "_surveyTime",
          "type": "uint64"
        }
      ],
      "name": "initialize",
      "outputs": [],
      "payable": false,
      "stateMutability": "nonpayable",
      "type": "function"
    },
    {
      "constant": false,
      "inputs": [
        {
          "name": "_minParticipationPct",
          "type": "uint64"
        }
      ],
      "name": "changeMinAcceptParticipationPct",
      "outputs": [],
      "payable": false,
      "stateMutability": "nonpayable",
      "type": "function"
    },
    {
      "constant": false,
      "inputs": [
        {
          "name": "_metadata",
          "type": "string"
        },
        {
          "name": "_options",
          "type": "uint256"
        }
      ],
      "name": "newSurvey",
      "outputs": [
        {
          "name": "surveyId",
          "type": "uint256"
        }
      ],
      "payable": false,
      "stateMutability": "nonpayable",
      "type": "function"
    },
    {
      "constant": false,
      "inputs": [
        {
          "name": "_surveyId",
          "type": "uint256"
        }
      ],
      "name": "resetVote",
      "outputs": [],
      "payable": false,
      "stateMutability": "nonpayable",
      "type": "function"
    },
    {
      "constant": false,
      "inputs": [
        {
          "name": "_surveyId",
          "type": "uint256"
        },
        {
          "name": "_optionIds",
          "type": "uint256[]"
        },
        {
          "name": "_stakes",
          "type": "uint256[]"
        }
      ],
      "name": "voteOptions",
      "outputs": [],
      "payable": false,
      "stateMutability": "nonpayable",
      "type": "function"
    },
    {
      "constant": false,
      "inputs": [
        {
          "name": "_surveyId",
          "type": "uint256"
        },
        {
          "name": "_optionId",
          "type": "uint256"
        }
      ],
      "name": "voteOption",
      "outputs": [],
      "payable": false,
      "stateMutability": "nonpayable",
      "type": "function"
    },
    {
      "constant": true,
      "inputs": [
        {
          "name": "_surveyId",
          "type": "uint256"
        },
        {
          "name": "_voter",
          "type": "address"
        }
      ],
      "name": "canVote",
      "outputs": [
        {
          "name": "",
          "type": "bool"
        }
      ],
      "payable": false,
      "stateMutability": "view",
      "type": "function"
    },
    {
      "constant": true,
      "inputs": [
        {
          "name": "_surveyId",
          "type": "uint256"
        }
      ],
      "name": "getSurvey",
      "outputs": [
        {
          "name": "open",
          "type": "bool"
        },
        {
          "name": "startDate",
          "type": "uint64"
        },
        {
          "name": "snapshotBlock",
          "type": "uint64"
        },
        {
          "name": "minParticipation",
          "type": "uint64"
        },
        {
          "name": "votingPower",
          "type": "uint256"
        },
        {
          "name": "participation",
          "type": "uint256"
        },
        {
          "name": "options",
          "type": "uint256"
        }
      ],
      "payable": false,
      "stateMutability": "view",
      "type": "function"
    },
    {
      "constant": true,
      "inputs": [
        {
          "name": "_surveyId",
          "type": "uint256"
        },
        {
          "name": "_voter",
          "type": "address"
        }
      ],
      "name": "getVoterState",
      "outputs": [
        {
          "name": "options",
          "type": "uint256[]"
        },
        {
          "name": "stakes",
          "type": "uint256[]"
        }
      ],
      "payable": false,
      "stateMutability": "view",
      "type": "function"
    },
    {
      "constant": true,
      "inputs": [
        {
          "name": "_surveyId",
          "type": "uint256"
        },
        {
          "name": "_optionId",
          "type": "uint256"
        }
      ],
      "name": "getOptionPower",
      "outputs": [
        {
          "name": "",
          "type": "uint256"
        }
      ],
      "payable": false,
      "stateMutability": "view",
      "type": "function"
    },
    {
      "constant": true,
      "inputs": [
        {
          "name": "_surveyId",
          "type": "uint256"
        }
      ],
      "name": "isParticipationAchieved",
      "outputs": [
        {
          "name": "",
          "type": "bool"
        }
      ],
      "payable": false,
      "stateMutability": "view",
      "type": "function"
    }
  ],
  "bytecode": "0x6080604052620000176401000000006200001d810204565b6200023b565b6200003064010000000062000125810204565b60408051808201909152601881527f494e49545f414c52454144595f494e495449414c495a45440000000000000000602082015290156200010c576040517f08c379a00000000000000000000000000000000000000000000000000000000081526004018080602001828103825283818151815260200191508051906020019080838360005b83811015620000d0578181015183820152602001620000b6565b50505050905090810190601f168015620000fe5780820380516001836020036101000a031916815260200191505b509250505060405180910390fd5b506200012360001964010000000062000154810204565b565b60006200014f600080516020620036a283398151915264010000000062002d986200023382021704565b905090565b6200016764010000000062000125810204565b60408051808201909152601881527f494e49545f414c52454144595f494e495449414c495a454400000000000000006020820152901562000206576040517f08c379a000000000000000000000000000000000000000000000000000000000815260040180806020018281038252838181518152602001915080519060200190808383600083811015620000d0578181015183820152602001620000b6565b5062000230600080516020620036a283398151915282640100000000620032f46200023782021704565b50565b5490565b9055565b613457806200024b6000396000f30060806040526004361061017e5763ffffffff7c01000000000000000000000000000000000000000000000000000000006000350416623c062781146101835780630803fac0146101a75780630cc3b1c8146101d05780631128915c146101e85780632914b9bd1461021a57806332f0a3b51461029c5780634b12311c146102b15780634c54b8c11461037b578063509bd337146103a25780636697a7be146103bd57806374609899146103d55780637e7db6e11461040557806380afdea81461043357806389670e15146104485780638b3dd749146104aa5780638cb4eb41146104bf578063989a8366146104d45780639d4941d814610515578063a1658fad14610543578063a479e508146105b7578063a83efef6146105cc578063bc6a48e9146105e1578063c6572023146105f6578063cdb2867b14610611578063d4aae0c414610642578063de4796ed14610657578063fb71098c1461066c578063fc0c546a14610681578063fc157cb414610696578063ffe2e9f2146106ab575b600080fd5b34801561018f57600080fd5b506101a567ffffffffffffffff600435166106cf565b005b3480156101b357600080fd5b506101bc61096d565b604080519115158252519081900360200190f35b3480156101dc57600080fd5b506101a5600435610996565b3480156101f457600080fd5b506101fd610aed565b6040805167ffffffffffffffff9092168252519081900360200190f35b34801561022657600080fd5b506040805160206004803580820135601f8101849004840285018401909552848452610273943694929360249392840191908190840183828082843750949750610b159650505050505050565b6040805173ffffffffffffffffffffffffffffffffffffffff9092168252519081900360200190f35b3480156102a857600080fd5b50610273610c21565b3480156102bd57600080fd5b506102e260043573ffffffffffffffffffffffffffffffffffffffff60243516610cbf565b604051808060200180602001838103835285818151815260200191508051906020019060200280838360005b8381101561032657818101518382015260200161030e565b50505050905001838103825284818151815260200191508051906020019060200280838360005b8381101561036557818101518382015260200161034d565b5050505090500194505050505060405180910390f35b34801561038757600080fd5b50610390610ea9565b60408051918252519081900360200190f35b3480156103ae57600080fd5b506101a5600435602435610ede565b3480156103c957600080fd5b506101bc600435611187565b3480156103e157600080fd5b506101a56004803590602480358082019290810135916044359081019101356112a0565b34801561041157600080fd5b506101bc73ffffffffffffffffffffffffffffffffffffffff60043516611501565b34801561043f57600080fd5b50610390611507565b34801561045457600080fd5b50610460600435611537565b60408051971515885267ffffffffffffffff968716602089015294861687860152929094166060860152608085015260a084019290925260c0830191909152519081900360e00190f35b3480156104b657600080fd5b5061039061165c565b3480156104cb57600080fd5b506101fd611687565b3480156104e057600080fd5b506101a573ffffffffffffffffffffffffffffffffffffffff6004351667ffffffffffffffff60243581169060443516611697565b34801561052157600080fd5b506101a573ffffffffffffffffffffffffffffffffffffffff600435166118ce565b34801561054f57600080fd5b5060408051602060046044358181013583810280860185019096528085526101bc95833573ffffffffffffffffffffffffffffffffffffffff16956024803596369695606495939492019291829185019084908082843750949750611bf09650505050505050565b3480156105c357600080fd5b50610273611d80565b3480156105d857600080fd5b50610390611e42565b3480156105ed57600080fd5b50610390611e77565b34801561060257600080fd5b50610390600435602435611e7c565b34801561061d57600080fd5b506101bc60043573ffffffffffffffffffffffffffffffffffffffff60243516611ff1565b34801561064e57600080fd5b50610273612182565b34801561066357600080fd5b506101bc6121ad565b34801561067857600080fd5b506103906121de565b34801561068d57600080fd5b506102736121e4565b3480156106a257600080fd5b506101fd612200565b3480156106b757600080fd5b5061039060246004803582810192910135903561220c565b604080517f4d4f444946595f50415254494349504154494f4e5f524f4c4500000000000000815290519081900360190190206000546107339067ffffffffffffffff80851691740100000000000000000000000000000000000000009004166125a5565b61073e338383611bf0565b60408051808201909152600f81527f4150505f415554485f4641494c454400000000000000000000000000000000006020820152901515610817576040517f08c379a00000000000000000000000000000000000000000000000000000000081526004018080602001828103825283818151815260200191508051906020019080838360005b838110156107dc5781810151838201526020016107c4565b50505050905090810190601f1680156108095780820380516001836020036101000a031916815260200191505b509250505060405180910390fd5b508260008167ffffffffffffffff161180156108455750670de0b6b3a764000067ffffffffffffffff821611155b60408051808201909152601881527f5355525645595f4d494e5f50415254494349504154494f4e000000000000000060208201529015156108e2576040517f08c379a0000000000000000000000000000000000000000000000000000000008152600401808060200182810382528381815181526020019150805190602001908083836000838110156107dc5781810151838201526020016107c4565b506000805467ffffffffffffffff86167401000000000000000000000000000000000000000081027fffffffff0000000000000000ffffffffffffffffffffffffffffffffffffffff9092169190911790915560408051918252517fcd5cfce8abc47dfd261ae8c03891adf6258e5727b8f0704986108033c25d8a719181900360200190a150505050565b60008061097861165c565b9050801580159061099057508061098d612600565b10155b91505090565b60035460408051808201909152601081527f5355525645595f4e4f5f53555256455900000000000000000000000000000000602082015282918210610a37576040517f08c379a0000000000000000000000000000000000000000000000000000000008152600401808060200182810382528381815181526020019150805190602001908083836000838110156107dc5781810151838201526020016107c4565b50610a428233611ff1565b60408051808201909152601381527f5355525645595f43414e5f4e4f545f564f5445000000000000000000000000006020820152901515610adf576040517f08c379a0000000000000000000000000000000000000000000000000000000008152600401808060200182810382528381815181526020019150805190602001908083836000838110156107dc5781810151838201526020016107c4565b50610ae982612604565b5050565b60005474010000000000000000000000000000000000000000900467ffffffffffffffff1681565b6000610b1f611d80565b73ffffffffffffffffffffffffffffffffffffffff166304bf2a7f836040518263ffffffff167c01000000000000000000000000000000000000000000000000000000000281526004018080602001828103825283818151815260200191508051906020019080838360005b83811015610ba3578181015183820152602001610b8b565b50505050905090810190601f168015610bd05780820380516001836020036101000a031916815260200191505b5092505050602060405180830381600087803b158015610bef57600080fd5b505af1158015610c03573d6000803e3d6000fd5b505050506040513d6020811015610c1957600080fd5b505192915050565b6000610c2b612182565b73ffffffffffffffffffffffffffffffffffffffff166332f0a3b56040518163ffffffff167c0100000000000000000000000000000000000000000000000000000000028152600401602060405180830381600087803b158015610c8e57600080fd5b505af1158015610ca2573d6000803e3d6000fd5b505050506040513d6020811015610cb857600080fd5b5051905090565b6060806000808560035481106040805190810160405280601081526020017f5355525645595f4e4f5f53555256455900000000000000000000000000000000815250901515610d6a576040517f08c379a0000000000000000000000000000000000000000000000000000000008152600401808060200182810382528381815181526020019150805190602001908083836000838110156107dc5781810151838201526020016107c4565b50600087815260026020908152604080832073ffffffffffffffffffffffffffffffffffffffff8a168452600501909152902080549093501515610dc7576040805160008082526020820190815281830190925295509350610e9f565b8260000154600101604051908082528060200260200182016040528015610df8578160200160208202803883390190505b5094508260000154600101604051908082528060200260200182016040528015610e2c578160200160208202803883390190505b509350600091505b82548211610e9f5760008281526001840160205260409020548551869084908110610e5b57fe5b6020908102909101810191909152600083815260018086019092526040902001548451859084908110610e8a57fe5b60209081029091010152600190910190610e34565b5050509250929050565b604080517f4d4f444946595f50415254494349504154494f4e5f524f4c45000000000000008152905190819003601901902081565b6000806060808560035481106040805190810160405280601081526020017f5355525645595f4e4f5f53555256455900000000000000000000000000000000815250901515610f89576040517f08c379a0000000000000000000000000000000000000000000000000000000008152600401808060200182810382528381815181526020019150805190602001908083836000838110156107dc5781810151838201526020016107c4565b50610f948733611ff1565b60408051808201909152601381527f5355525645595f43414e5f4e4f545f564f5445000000000000000000000000006020820152901515611031576040517f08c379a0000000000000000000000000000000000000000000000000000000008152600401808060200182810382528381815181526020019150805190602001908083836000838110156107dc5781810151838201526020016107c4565b5060008781526002602090815260408083208354815483517f4ee2cd7e0000000000000000000000000000000000000000000000000000000081523360048201526801000000000000000090910467ffffffffffffffff166024820152925191995073ffffffffffffffffffffffffffffffffffffffff1693634ee2cd7e93604480850194919392918390030190829087803b1580156110d057600080fd5b505af11580156110e4573d6000803e3d6000fd5b505050506040513d60208110156110fa57600080fd5b50516040805160018082528183019092529195506020808301908038833950506040805160018082528183019092529295509050602080830190803883390190505091508583600081518110151561114e57fe5b60209081029091010152815184908390600090811061116957fe5b6020908102909101015261117e878484612813565b50505050505050565b60008060008360035481106040805190810160405280601081526020017f5355525645595f4e4f5f53555256455900000000000000000000000000000000815250901515611231576040517f08c379a0000000000000000000000000000000000000000000000000000000008152600401808060200182810382528381815181526020019150805190602001908083836000838110156107dc5781810151838201526020016107c4565b5060008581526002602081905260409091209081015460038201549194509061126890670de0b6b3a764000063ffffffff612cca16565b81151561127157fe5b9354700100000000000000000000000000000000900467ffffffffffffffff1693049290921015949350505050565b60035460408051808201909152601081527f5355525645595f4e4f5f53555256455900000000000000000000000000000000602082015286918210611341576040517f08c379a0000000000000000000000000000000000000000000000000000000008152600401808060200182810382528381815181526020019150805190602001908083836000838110156107dc5781810151838201526020016107c4565b5083821480156113515750600084115b60408051808201909152601781527f5355525645595f564f54455f57524f4e475f494e50555400000000000000000060208201529015156113ee576040517f08c379a0000000000000000000000000000000000000000000000000000000008152600401808060200182810382528381815181526020019150805190602001908083836000838110156107dc5781810151838201526020016107c4565b506113f98633611ff1565b60408051808201909152601381527f5355525645595f43414e5f4e4f545f564f5445000000000000000000000000006020820152901515611496576040517f08c379a0000000000000000000000000000000000000000000000000000000008152600401808060200182810382528381815181526020019150805190602001908083836000838110156107dc5781810151838201526020016107c4565b506114f9868686808060200260200160405190810160405280939291908181526020018383602002808284375050604080516020808c0282810182019093528b82529095508b94508a935083925085019084908082843750612813945050505050565b505050505050565b50600190565b60006115327fd625496217aa6a3453eecb9c3489dc5a53e6c67b444329ea2b2cbc9ff547639b612d98565b905090565b6000806000806000806000808860035481106040805190810160405280601081526020017f5355525645595f4e4f5f535552564559000000000000000000000000000000008152509015156115e8576040517f08c379a0000000000000000000000000000000000000000000000000000000008152600401808060200182810382528381815181526020019150805190602001908083836000838110156107dc5781810151838201526020016107c4565b5060008a8152600260205260409020915061160282612d9c565b825460028401546003850154600190950154929d67ffffffffffffffff8084169e5068010000000000000000840481169d507001000000000000000000000000000000009093049092169a50985092965094509092505050565b60006115327febb05b386a8d34882b8711d156f463690983dc47815980fb82aeeff1aa43579e612d98565b60015467ffffffffffffffff1681565b61169f61165c565b60408051808201909152601881527f494e49545f414c52454144595f494e495449414c495a454400000000000000006020820152901561173b576040517f08c379a0000000000000000000000000000000000000000000000000000000008152600401808060200182810382528381815181526020019150805190602001908083836000838110156107dc5781810151838201526020016107c4565b508160008167ffffffffffffffff161180156117695750670de0b6b3a764000067ffffffffffffffff821611155b60408051808201909152601881527f5355525645595f4d494e5f50415254494349504154494f4e00000000000000006020820152901515611806576040517f08c379a0000000000000000000000000000000000000000000000000000000008152600401808060200182810382528381815181526020019150805190602001908083836000838110156107dc5781810151838201526020016107c4565b5061180f612de8565b50600080547fffffffffffffffffffffffff00000000000000000000000000000000000000001673ffffffffffffffffffffffffffffffffffffffff94909416939093177fffffffff0000000000000000ffffffffffffffffffffffffffffffffffffffff167401000000000000000000000000000000000000000067ffffffffffffffff9384160217909255600180547fffffffffffffffffffffffffffffffffffffffffffffffff00000000000000001692909116919091179055565b60008060006118dc84611501565b60408051808201909152601281527f5245434f5645525f444953414c4c4f57454400000000000000000000000000006020820152901515611979576040517f08c379a0000000000000000000000000000000000000000000000000000000008152600401808060200182810382528381815181526020019150805190602001908083836000838110156107dc5781810151838201526020016107c4565b50611982610c21565b925061198d83612ec7565b60408051808201909152601a81527f5245434f5645525f5641554c545f4e4f545f434f4e54524143540000000000006020820152901515611a2a576040517f08c379a0000000000000000000000000000000000000000000000000000000008152600401808060200182810382528381815181526020019150805190602001908083836000838110156107dc5781810151838201526020016107c4565b5073ffffffffffffffffffffffffffffffffffffffff84161515611a95576040513031925073ffffffffffffffffffffffffffffffffffffffff84169083156108fc029084906000818181858888f19350505050158015611a8f573d6000803e3d6000fd5b50611b85565b5082611abd73ffffffffffffffffffffffffffffffffffffffff82163063ffffffff612f0116565b9150611ae673ffffffffffffffffffffffffffffffffffffffff8216848463ffffffff61303a16565b60408051808201909152601d81527f5245434f5645525f544f4b454e5f5452414e534645525f4641494c45440000006020820152901515611b83576040517f08c379a0000000000000000000000000000000000000000000000000000000008152600401808060200182810382528381815181526020019150805190602001908083836000838110156107dc5781810151838201526020016107c4565b505b8373ffffffffffffffffffffffffffffffffffffffff168373ffffffffffffffffffffffffffffffffffffffff167f596caf56044b55fb8c4ca640089bbc2b63cae3e978b851f5745cbb7c5b288e02846040518082815260200191505060405180910390a350505050565b600080611bfb61096d565b1515611c0a5760009150611d78565b611c12612182565b905073ffffffffffffffffffffffffffffffffffffffff81161515611c3a5760009150611d78565b8073ffffffffffffffffffffffffffffffffffffffff1663fdef9106863087611c62886130c9565b6040517c010000000000000000000000000000000000000000000000000000000063ffffffff871602815273ffffffffffffffffffffffffffffffffffffffff808616600483019081529085166024830152604482018490526080606483019081528351608484015283519192909160a490910190602085019080838360005b83811015611cfa578181015183820152602001611ce2565b50505050905090810190601f168015611d275780820380516001836020036101000a031916815260200191505b5095505050505050602060405180830381600087803b158015611d4957600080fd5b505af1158015611d5d573d6000803e3d6000fd5b505050506040513d6020811015611d7357600080fd5b505191505b509392505050565b600080611d8b612182565b604080517fbe00bbd80000000000000000000000000000000000000000000000000000000081527fd6f028ca0e8edb4a8c9757ca4fdccab25fa1e0317da1188108f7d2dee14902fb60048201527fddbcfd564f642ab5627cf68b9b7d374fb4f8a36e941a75d89c87998cef03bd616024820152905173ffffffffffffffffffffffffffffffffffffffff929092169163be00bbd8916044808201926020929091908290030181600087803b158015610bef57600080fd5b604080517f4352454154455f535552564559535f524f4c45000000000000000000000000008152905190819003601301902081565b600081565b60035460408051808201909152601081527f5355525645595f4e4f5f535552564559000000000000000000000000000000006020820152600091829185918210611f22576040517f08c379a0000000000000000000000000000000000000000000000000000000008152600401808060200182810382528381815181526020019150805190602001908083836000838110156107dc5781810151838201526020016107c4565b5060008581526002602090815260409182902060018101548351808501909452601084527f5355525645595f4e4f5f4f5054494f4e00000000000000000000000000000000928401929092529350851115611fd9576040517f08c379a0000000000000000000000000000000000000000000000000000000008152600401808060200182810382528381815181526020019150805190602001908083836000838110156107dc5781810151838201526020016107c4565b50506000928352600401602052506040902054919050565b60035460408051808201909152601081527f5355525645595f4e4f5f535552564559000000000000000000000000000000006020820152600091829185918210612097576040517f08c379a0000000000000000000000000000000000000000000000000000000008152600401808060200182810382528381815181526020019150805190602001908083836000838110156107dc5781810151838201526020016107c4565b50600085815260026020526040902091506120b182612d9c565b80156121795750600080548354604080517f4ee2cd7e00000000000000000000000000000000000000000000000000000000815273ffffffffffffffffffffffffffffffffffffffff89811660048301526801000000000000000090930467ffffffffffffffff16602482015290519190921691634ee2cd7e91604480830192602092919082900301818787803b15801561214b57600080fd5b505af115801561215f573d6000803e3d6000fd5b505050506040513d602081101561217557600080fd5b5051115b95945050505050565b60006115327f4172f0f7d2289153072b0a6ca36959e0cbe2efc3afe50fc81636caa96338137b612d98565b60007fffffffffffffffffffffffffffffffffffffffffffffffffffffffffffffffff6121d861165c565b14905090565b60035481565b60005473ffffffffffffffffffffffffffffffffffffffff1681565b670de0b6b3a764000081565b604080517f4352454154455f535552564559535f524f4c45000000000000000000000000008152815190819003601301812060008083526020830190935282918291829161225d9033908390611bf0565b60408051808201909152600f81527f4150505f415554485f4641494c4544000000000000000000000000000000000060208201529015156122fa576040517f08c379a0000000000000000000000000000000000000000000000000000000008152600401808060200182810382528381815181526020019150805190602001908083836000838110156107dc5781810151838201526020016107c4565b5060016123056130d3565b60008054604080517f981b24d00000000000000000000000000000000000000000000000000000000081529490930367ffffffffffffffff81166004860152925192975073ffffffffffffffffffffffffffffffffffffffff169263981b24d09260248083019360209383900390910190829087803b15801561238757600080fd5b505af115801561239b573d6000803e3d6000fd5b505050506040513d60208110156123b157600080fd5b505160408051808201909152601681527f5355525645595f4e4f5f564f54494e475f504f57455200000000000000000000602082015290935060008411612454576040517f08c379a0000000000000000000000000000000000000000000000000000000008152600401808060200182810382528381815181526020019150805190602001908083836000838110156107dc5781810151838201526020016107c4565b5060038054600181019091556000818152600260205260409020909550915061247b6130e5565b82547fffffffffffffffffffffffffffffffffffffffffffffffff00000000000000001667ffffffffffffffff918216177fffffffffffffffffffffffffffffffff0000000000000000ffffffffffffffff166801000000000000000086831602178084556000547fffffffffffffffff0000000000000000ffffffffffffffffffffffffffffffff909116740100000000000000000000000000000000000000009091049091167001000000000000000000000000000000000217825560018201869055600282018390556040805160208082528101899052339187917fc3d5a5415194747f0a88ddaf6fd5b3a0bc7a38bdff4565302d65becfe38c9323918c918c918190810184848082843760405192018290039550909350505050a3505050509392505050565b6040805160028082526060808301845292602083019080388339019050509050828160008151811015156125d557fe5b6020908102909101015280518290829060019081106125f057fe5b6020908102909101015292915050565b4390565b60008181526002602090815260408083203384526005810190925282208054919290918190819081908190819081101561280857600195505b865486116126f35760008681526001808901602090815260408084208054855260048d019092529092205490820154919650945061268290859063ffffffff6130f216565b8554600090815260048a01602090815260409182902083905587546001890154835191825291810191909152808201839052905191945033918b917fe4778d6252fa7c1a38460bdeff43c5ea0736fecde4cf7ef98fbf23410f40d6a9919081900360600190a360019095019461263d565b600080548954604080517f4ee2cd7e0000000000000000000000000000000000000000000000000000000081523360048201526801000000000000000090920467ffffffffffffffff1660248301525173ffffffffffffffffffffffffffffffffffffffff90921692634ee2cd7e926044808401936020939083900390910190829087803b15801561278457600080fd5b505af1158015612798573d6000803e3d6000fd5b505050506040513d60208110156127ae57600080fd5b505160008080526001808a01602052604090912001549092506127d890839063ffffffff6130f216565b60038901549091506127f0908263ffffffff6130f216565b60038901553360009081526005890160205260408120555b505050505050505050565b600083815260026020908152604080832033845260058101909252822090918080808061283f8a612604565b604080518082018252600080825260208083018281528280526001808c0190925293822092518355925191830191909155955093505b88518411612bae57886001850381518110151561288e57fe5b90602001906020020151925087600185038151811015156128ab57fe5b906020019060200201519150600083141580156128cc575086600101548311155b60408051808201909152601881527f5355525645595f564f54455f57524f4e475f4f5054494f4e00000000000000006020820152901515612969576040517f08c379a0000000000000000000000000000000000000000000000000000000008152600401808060200182810382528381815181526020019150805190602001908083836000838110156107dc5781810151838201526020016107c4565b5060408051808201909152600f81527f5355525645595f4e4f5f5354414b450000000000000000000000000000000000602082015260008311612a08576040517f08c379a0000000000000000000000000000000000000000000000000000000008152600401808060200182810382528381815181526020019150805190602001908083836000838110156107dc5781810151838201526020016107c4565b507fffffffffffffffffffffffffffffffffffffffffffffffffffffffffffffffff84016000908152600187016020908152604091829020548251808401909352601a83527f5355525645595f4f5054494f4e535f4e4f545f4f524445524544000000000000918301919091528411612add576040517f08c379a0000000000000000000000000000000000000000000000000000000008152600401808060200182810382528381815181526020019150805190602001908083836000838110156107dc5781810151838201526020016107c4565b50604080518082018252848152602080820185815260008881526001808c018452858220945185559151939091019290925585825260048a0190522054612b2a908363ffffffff61319d16565b6000848152600489016020526040902055612b4b858363ffffffff61319d16565b600084815260048901602090815260409182902054825187815291820186905281830152905191965033918c917f1cfef7fb7190f56297ab36883b20210188115eb9dd9c097c1165dd170a64b289919081900360600190a3600190930192612875565b600080548854604080517f4ee2cd7e0000000000000000000000000000000000000000000000000000000081523360048201526801000000000000000090920467ffffffffffffffff1660248301525173ffffffffffffffffffffffffffffffffffffffff90921692634ee2cd7e926044808401936020939083900390910190829087803b158015612c3f57600080fd5b505af1158015612c53573d6000803e3d6000fd5b505050506040513d6020811015612c6957600080fd5b50519050612c7d818663ffffffff6130f216565b6000808052600180890160205260409091200155885186556003870154612caa908663ffffffff61319d16565b6003880181905560028801541015612cbe57fe5b50505050505050505050565b600080831515612cdd5760009150612d91565b50828202828482811515612ced57fe5b60408051808201909152601181527f4d4154485f4d554c5f4f564552464c4f5700000000000000000000000000000060208201529291900414612d8c576040517f08c379a0000000000000000000000000000000000000000000000000000000008152600401808060200182810382528381815181526020019150805190602001908083836000838110156107dc5781810151838201526020016107c4565b508091505b5092915050565b5490565b6001548154600091612dc19167ffffffffffffffff908116911663ffffffff61324216565b67ffffffffffffffff16612dd36130e5565b67ffffffffffffffff161092915050565b5490565b612df061165c565b60408051808201909152601881527f494e49545f414c52454144595f494e495449414c495a4544000000000000000060208201529015612e8c576040517f08c379a0000000000000000000000000000000000000000000000000000000008152600401808060200182810382528381815181526020019150805190602001908083836000838110156107dc5781810151838201526020016107c4565b50612ec5612e98612600565b7febb05b386a8d34882b8711d156f463690983dc47815980fb82aeeff1aa43579e9063ffffffff6132f416565b565b60008073ffffffffffffffffffffffffffffffffffffffff83161515612ef05760009150612efb565b823b90506000811191505b50919050565b6040805173ffffffffffffffffffffffffffffffffffffffff83166024808301919091528251808303909101815260449091019091526020810180517bffffffffffffffffffffffffffffffffffffffffffffffffffffffff167f70a08231000000000000000000000000000000000000000000000000000000001790526000908180612f8e86846132f8565b60408051808201909152601c81527f534146455f4552435f32305f42414c414e43455f52455645525445440000000060208201529193509150821515613030576040517f08c379a0000000000000000000000000000000000000000000000000000000008152600401808060200182810382528381815181526020019150805190602001908083836000838110156107dc5781810151838201526020016107c4565b5095945050505050565b6040805173ffffffffffffffffffffffffffffffffffffffff8416602482015260448082018490528251808303909101815260649091019091526020810180517bffffffffffffffffffffffffffffffffffffffffffffffffffffffff167fa9059cbb000000000000000000000000000000000000000000000000000000001790526000906121798582613329565b8051602002815290565b60006115326130e0612600565b613377565b60006115326130e0613427565b60408051808201909152601281527f4d4154485f5355425f554e444552464c4f5700000000000000000000000000006020820152600090819084841115613195576040517f08c379a0000000000000000000000000000000000000000000000000000000008152600401808060200182810382528381815181526020019150805190602001908083836000838110156107dc5781810151838201526020016107c4565b505050900390565b60408051808201909152601181527f4d4154485f4144445f4f564552464c4f5700000000000000000000000000000060208201526000908383019084821015612d8c576040517f08c379a0000000000000000000000000000000000000000000000000000000008152600401808060200182810382528381815181526020019150805190602001908083836000838110156107dc5781810151838201526020016107c4565b60408051808201909152601381527f4d41544836345f4144445f4f564552464c4f570000000000000000000000000060208201526000908383019067ffffffffffffffff8086169083161015612d8c576040517f08c379a0000000000000000000000000000000000000000000000000000000008152600401808060200182810382528381815181526020019150805190602001908083836000838110156107dc5781810151838201526020016107c4565b9055565b6000806000806040516020818751602089018a5afa9250600083111561331d57805191505b50909590945092505050565b6000806040516020818551602087016000895af1600081111561336d573d801561335a57602081146133635761336b565b6001935061336b565b600183511493505b505b5090949350505050565b60408051808201909152601581527f55494e5436345f4e554d4245525f544f4f5f4249470000000000000000000000602082015260009067ffffffffffffffff831115613420576040517f08c379a0000000000000000000000000000000000000000000000000000000008152600401808060200182810382528381815181526020019150805190602001908083836000838110156107dc5781810151838201526020016107c4565b5090919050565b42905600a165627a7a72305820974523168bdca9e0036cb5ff423d511366eaecd48bc99f8c0f0eda967dc50a0e0029ebb05b386a8d34882b8711d156f463690983dc47815980fb82aeeff1aa43579e",
  "source": "/*\n * SPDX-License-Identitifer:    GPL-3.0-or-later\n */\n\npragma solidity 0.4.24;\n\nimport \"@aragon/os/contracts/apps/AragonApp.sol\";\n\nimport \"@aragon/os/contracts/lib/math/SafeMath.sol\";\nimport \"@aragon/os/contracts/lib/math/SafeMath64.sol\";\n\nimport \"@aragon/apps-shared-minime/contracts/MiniMeToken.sol\";\n\n\ncontract Survey is AragonApp {\n    using SafeMath for uint256;\n    using SafeMath64 for uint64;\n\n    bytes32 public constant CREATE_SURVEYS_ROLE = keccak256(\"CREATE_SURVEYS_ROLE\");\n    bytes32 public constant MODIFY_PARTICIPATION_ROLE = keccak256(\"MODIFY_PARTICIPATION_ROLE\");\n\n    uint64 public constant PCT_BASE = 10 ** 18; // 0% = 0; 1% = 10^16; 100% = 10^18\n    uint256 public constant ABSTAIN_VOTE = 0;\n\n    string private constant ERROR_MIN_PARTICIPATION = \"SURVEY_MIN_PARTICIPATION\";\n    string private constant ERROR_NO_SURVEY = \"SURVEY_NO_SURVEY\";\n    string private constant ERROR_NO_VOTING_POWER = \"SURVEY_NO_VOTING_POWER\";\n    string private constant ERROR_CAN_NOT_VOTE = \"SURVEY_CAN_NOT_VOTE\";\n    string private constant ERROR_VOTE_WRONG_INPUT = \"SURVEY_VOTE_WRONG_INPUT\";\n    string private constant ERROR_VOTE_WRONG_OPTION = \"SURVEY_VOTE_WRONG_OPTION\";\n    string private constant ERROR_NO_STAKE = \"SURVEY_NO_STAKE\";\n    string private constant ERROR_OPTIONS_NOT_ORDERED = \"SURVEY_OPTIONS_NOT_ORDERED\";\n    string private constant ERROR_NO_OPTION = \"SURVEY_NO_OPTION\";\n\n    struct OptionCast {\n        uint256 optionId;\n        uint256 stake;\n    }\n\n    /* Allows for multiple option votes.\n     * Index 0 is always used for the ABSTAIN_VOTE option, that's calculated automatically by the\n     * contract.\n     */\n    struct MultiOptionVote {\n        uint256 optionsCastedLength;\n        // `castedVotes` simulates an array\n        // Each OptionCast in `castedVotes` must be ordered by ascending option IDs\n        mapping (uint256 => OptionCast) castedVotes;\n    }\n\n    struct SurveyStruct {\n        uint64 startDate;\n        uint64 snapshotBlock;\n        uint64 minParticipationPct;\n        uint256 options;\n        uint256 votingPower;                    // total tokens that can cast a vote\n        uint256 participation;                  // tokens that casted a vote\n\n        // Note that option IDs are from 1 to `options`, due to ABSTAIN_VOTE taking 0\n        mapping (uint256 => uint256) optionPower;       // option ID -> voting power for option\n        mapping (address => MultiOptionVote) votes;     // voter -> options voted, with its stakes\n    }\n\n    MiniMeToken public token;\n    uint64 public minParticipationPct;\n    uint64 public surveyTime;\n\n    // We are mimicing an array, we use a mapping instead to make app upgrade more graceful\n    mapping (uint256 => SurveyStruct) internal surveys;\n    uint256 public surveysLength;\n\n    event StartSurvey(uint256 indexed surveyId, address indexed creator, string metadata);\n    event CastVote(uint256 indexed surveyId, address indexed voter, uint256 option, uint256 stake, uint256 optionPower);\n    event ResetVote(uint256 indexed surveyId, address indexed voter, uint256 option, uint256 previousStake, uint256 optionPower);\n    event ChangeMinParticipation(uint64 minParticipationPct);\n\n    modifier acceptableMinParticipationPct(uint64 _minParticipationPct) {\n        require(_minParticipationPct > 0 && _minParticipationPct <= PCT_BASE, ERROR_MIN_PARTICIPATION);\n        _;\n    }\n\n    modifier surveyExists(uint256 _surveyId) {\n        require(_surveyId < surveysLength, ERROR_NO_SURVEY);\n        _;\n    }\n\n    /**\n    * @notice Initialize Survey app with `_token.symbol(): string` for governance, minimum acceptance participation of `@formatPct(_minParticipationPct)`%, and a voting duration of `@transformTime(_surveyTime)`\n    * @param _token MiniMeToken address that will be used as governance token\n    * @param _minParticipationPct Percentage of total voting power that must participate in a survey for it to be taken into account (expressed as a 10^18 percentage, (eg 10^16 = 1%, 10^18 = 100%)\n    * @param _surveyTime Seconds that a survey will be open for token holders to vote\n    */\n    function initialize(\n        MiniMeToken _token,\n        uint64 _minParticipationPct,\n        uint64 _surveyTime\n    )\n        external\n        onlyInit\n        acceptableMinParticipationPct(_minParticipationPct)\n    {\n        initialized();\n\n        token = _token;\n        minParticipationPct = _minParticipationPct;\n        surveyTime = _surveyTime;\n    }\n\n    /**\n    * @notice Change minimum acceptance participation to `@formatPct(_minParticipationPct)`%\n    * @param _minParticipationPct New acceptance participation\n    */\n    function changeMinAcceptParticipationPct(uint64 _minParticipationPct)\n        external\n        authP(MODIFY_PARTICIPATION_ROLE, arr(uint256(_minParticipationPct), uint256(minParticipationPct)))\n        acceptableMinParticipationPct(_minParticipationPct)\n    {\n        minParticipationPct = _minParticipationPct;\n\n        emit ChangeMinParticipation(_minParticipationPct);\n    }\n\n    /**\n    * @notice Create a new non-binding survey about \"`_metadata`\"\n    * @param _metadata Survey metadata\n    * @param _options Number of options voters can decide between\n    * @return surveyId id for newly created survey\n    */\n    function newSurvey(string _metadata, uint256 _options) external auth(CREATE_SURVEYS_ROLE) returns (uint256 surveyId) {\n        uint64 snapshotBlock = getBlockNumber64() - 1; // avoid double voting in this very block\n        uint256 votingPower = token.totalSupplyAt(snapshotBlock);\n        require(votingPower > 0, ERROR_NO_VOTING_POWER);\n\n        surveyId = surveysLength++;\n\n        SurveyStruct storage survey = surveys[surveyId];\n        survey.startDate = getTimestamp64();\n        survey.snapshotBlock = snapshotBlock; // avoid double voting in this very block\n        survey.minParticipationPct = minParticipationPct;\n        survey.options = _options;\n        survey.votingPower = votingPower;\n\n        emit StartSurvey(surveyId, msg.sender, _metadata);\n    }\n\n    /**\n    * @notice Reset previously casted vote in survey #`_surveyId`, if any.\n    * @dev Initialization check is implicitly provided by `surveyExists()` as new surveys can only\n    *      be created via `newSurvey(),` which requires initialization\n    * @param _surveyId Id for survey\n    */\n    function resetVote(uint256 _surveyId) external surveyExists(_surveyId) {\n        require(canVote(_surveyId, msg.sender), ERROR_CAN_NOT_VOTE);\n\n        _resetVote(_surveyId);\n    }\n\n    /**\n    * @notice Vote for multiple options in survey #`_surveyId`.\n    * @dev Initialization check is implicitly provided by `surveyExists()` as new surveys can only\n    *      be created via `newSurvey(),` which requires initialization\n    * @param _surveyId Id for survey\n    * @param _optionIds Array with indexes of supported options\n    * @param _stakes Number of tokens assigned to each option\n    */\n    function voteOptions(uint256 _surveyId, uint256[] _optionIds, uint256[] _stakes)\n        external\n        surveyExists(_surveyId)\n    {\n        require(_optionIds.length == _stakes.length && _optionIds.length > 0, ERROR_VOTE_WRONG_INPUT);\n        require(canVote(_surveyId, msg.sender), ERROR_CAN_NOT_VOTE);\n\n        _voteOptions(_surveyId, _optionIds, _stakes);\n    }\n\n    /**\n    * @notice Vote option #`_optionId` in survey #`_surveyId`.\n    * @dev Initialization check is implicitly provided by `surveyExists()` as new surveys can only\n    *      be created via `newSurvey(),` which requires initialization\n    * @dev It will use the whole balance.\n    * @param _surveyId Id for survey\n    * @param _optionId Index of supported option\n    */\n    function voteOption(uint256 _surveyId, uint256 _optionId) external surveyExists(_surveyId) {\n        require(canVote(_surveyId, msg.sender), ERROR_CAN_NOT_VOTE);\n\n        SurveyStruct storage survey = surveys[_surveyId];\n        // This could re-enter, though we can asume the governance token is not maliciuous\n        uint256 voterStake = token.balanceOfAt(msg.sender, survey.snapshotBlock);\n        uint256[] memory options = new uint256[](1);\n        uint256[] memory stakes = new uint256[](1);\n        options[0] = _optionId;\n        stakes[0] = voterStake;\n\n        _voteOptions(_surveyId, options, stakes);\n    }\n\n    // Getter fns\n\n    function canVote(uint256 _surveyId, address _voter) public view surveyExists(_surveyId) returns (bool) {\n        SurveyStruct storage survey = surveys[_surveyId];\n\n        return _isSurveyOpen(survey) && token.balanceOfAt(_voter, survey.snapshotBlock) > 0;\n    }\n\n    function getSurvey(uint256 _surveyId)\n        public\n        view\n        surveyExists(_surveyId)\n        returns (\n            bool open,\n            uint64 startDate,\n            uint64 snapshotBlock,\n            uint64 minParticipation,\n            uint256 votingPower,\n            uint256 participation,\n            uint256 options\n        )\n    {\n        SurveyStruct storage survey = surveys[_surveyId];\n\n        open = _isSurveyOpen(survey);\n        startDate = survey.startDate;\n        snapshotBlock = survey.snapshotBlock;\n        minParticipation = survey.minParticipationPct;\n        votingPower = survey.votingPower;\n        participation = survey.participation;\n        options = survey.options;\n    }\n\n    /**\n    * @dev This is not meant to be used on-chain\n    */\n    /* solium-disable-next-line function-order */\n    function getVoterState(uint256 _surveyId, address _voter)\n        external\n        view\n        surveyExists(_surveyId)\n        returns (uint256[] options, uint256[] stakes)\n    {\n        MultiOptionVote storage vote = surveys[_surveyId].votes[_voter];\n\n        if (vote.optionsCastedLength == 0) {\n            return (new uint256[](0), new uint256[](0));\n        }\n\n        options = new uint256[](vote.optionsCastedLength + 1);\n        stakes = new uint256[](vote.optionsCastedLength + 1);\n        for (uint256 i = 0; i <= vote.optionsCastedLength; i++) {\n            options[i] = vote.castedVotes[i].optionId;\n            stakes[i] = vote.castedVotes[i].stake;\n        }\n    }\n\n    function getOptionPower(uint256 _surveyId, uint256 _optionId) public view surveyExists(_surveyId) returns (uint256) {\n        SurveyStruct storage survey = surveys[_surveyId];\n        require(_optionId <= survey.options, ERROR_NO_OPTION);\n\n        return survey.optionPower[_optionId];\n    }\n\n    function isParticipationAchieved(uint256 _surveyId) public view surveyExists(_surveyId) returns (bool) {\n        SurveyStruct storage survey = surveys[_surveyId];\n        // votingPower is always > 0\n        uint256 participationPct = survey.participation.mul(PCT_BASE) / survey.votingPower;\n        return participationPct >= survey.minParticipationPct;\n    }\n\n    // Internal fns\n\n    /*\n    * @dev Assumes the survey exists and that msg.sender can vote\n    */\n    function _resetVote(uint256 _surveyId) internal {\n        SurveyStruct storage survey = surveys[_surveyId];\n        MultiOptionVote storage previousVote = survey.votes[msg.sender];\n        if (previousVote.optionsCastedLength > 0) {\n            // Voter removes their vote (index 0 is the abstain vote)\n            for (uint256 i = 1; i <= previousVote.optionsCastedLength; i++) {\n                OptionCast storage previousOptionCast = previousVote.castedVotes[i];\n                uint256 previousOptionPower = survey.optionPower[previousOptionCast.optionId];\n                uint256 currentOptionPower = previousOptionPower.sub(previousOptionCast.stake);\n                survey.optionPower[previousOptionCast.optionId] = currentOptionPower;\n\n                emit ResetVote(_surveyId, msg.sender, previousOptionCast.optionId, previousOptionCast.stake, currentOptionPower);\n            }\n\n            // Compute previously casted votes (i.e. substract non-used tokens from stake)\n            uint256 voterStake = token.balanceOfAt(msg.sender, survey.snapshotBlock);\n            uint256 previousParticipation = voterStake.sub(previousVote.castedVotes[0].stake);\n            // And remove it from total participation\n            survey.participation = survey.participation.sub(previousParticipation);\n\n            // Reset previously voted options\n            delete survey.votes[msg.sender];\n        }\n    }\n\n    /*\n    * @dev Assumes the survey exists and that msg.sender can vote\n    */\n    function _voteOptions(uint256 _surveyId, uint256[] _optionIds, uint256[] _stakes) internal {\n        SurveyStruct storage survey = surveys[_surveyId];\n        MultiOptionVote storage senderVotes = survey.votes[msg.sender];\n\n        // Revert previous votes, if any\n        _resetVote(_surveyId);\n\n        uint256 totalVoted = 0;\n        // Reserve first index for ABSTAIN_VOTE\n        senderVotes.castedVotes[0] = OptionCast({ optionId: ABSTAIN_VOTE, stake: 0 });\n        for (uint256 optionIndex = 1; optionIndex <= _optionIds.length; optionIndex++) {\n            // Voters don't specify that they're abstaining,\n            // but we still keep track of this by reserving the first index of a survey's votes.\n            // We subtract 1 from the indexes of the arrays passed in by the voter to account for this.\n            uint256 optionId = _optionIds[optionIndex - 1];\n            uint256 stake = _stakes[optionIndex - 1];\n\n            require(optionId != ABSTAIN_VOTE && optionId <= survey.options, ERROR_VOTE_WRONG_OPTION);\n            require(stake > 0, ERROR_NO_STAKE);\n            // Let's avoid repeating an option by making sure that ascending order is preserved in\n            // the options array by checking that the current optionId is larger than the last one\n            // we added\n            require(senderVotes.castedVotes[optionIndex - 1].optionId < optionId, ERROR_OPTIONS_NOT_ORDERED);\n\n            // Register voter amount\n            senderVotes.castedVotes[optionIndex] = OptionCast({ optionId: optionId, stake: stake });\n\n            // Add to total option support\n            survey.optionPower[optionId] = survey.optionPower[optionId].add(stake);\n\n            // Keep track of stake used so far\n            totalVoted = totalVoted.add(stake);\n\n            emit CastVote(_surveyId, msg.sender, optionId, stake, survey.optionPower[optionId]);\n        }\n\n        // Compute and register non used tokens\n        // Implictly we are doing require(totalVoted <= voterStake) too\n        // (as stated before, index 0 is for ABSTAIN_VOTE option)\n        uint256 voterStake = token.balanceOfAt(msg.sender, survey.snapshotBlock);\n        senderVotes.castedVotes[0].stake = voterStake.sub(totalVoted);\n\n        // Register number of options voted\n        senderVotes.optionsCastedLength = _optionIds.length;\n\n        // Add voter tokens to participation\n        survey.participation = survey.participation.add(totalVoted);\n        assert(survey.participation <= survey.votingPower);\n    }\n\n    function _isSurveyOpen(SurveyStruct storage _survey) internal view returns (bool) {\n        return getTimestamp64() < _survey.startDate.add(surveyTime);\n    }\n}\n",
  "sourcePath": "@aragon/apps-survey/contracts/Survey.sol",
  "compiler": {
    "name": "solc",
    "version": "0.4.24+commit.e67f0147.Emscripten.clang"
  },
  "schemaVersion": "2.0.1",
  "updatedAt": "2021-04-01T16:02:51.575Z"
}