{
  "_format": "hh-sol-artifact-1",
  "contractName": "Api3Pool",
  "sourceName": "contracts/Api3Pool.sol",
  "abi": [
    {
      "inputs": [
        {
          "internalType": "address",
          "name": "api3TokenAddress",
          "type": "address"
        }
      ],
      "stateMutability": "nonpayable",
      "type": "constructor"
    },
    {
      "anonymous": false,
      "inputs": [
        {
          "indexed": true,
          "internalType": "address",
          "name": "user",
          "type": "address"
        },
        {
          "indexed": true,
          "internalType": "address",
          "name": "delegate",
          "type": "address"
        }
      ],
      "name": "Delegated",
      "type": "event"
    },
    {
      "anonymous": false,
      "inputs": [
        {
          "indexed": true,
          "internalType": "address",
          "name": "user",
          "type": "address"
        },
        {
          "indexed": false,
          "internalType": "uint256",
          "name": "amount",
          "type": "uint256"
        }
      ],
      "name": "Deposited",
      "type": "event"
    },
    {
      "anonymous": false,
      "inputs": [
        {
          "indexed": true,
          "internalType": "address",
          "name": "user",
          "type": "address"
        },
        {
          "indexed": false,
          "internalType": "uint256",
          "name": "amount",
          "type": "uint256"
        },
        {
          "indexed": false,
          "internalType": "uint256",
          "name": "start",
          "type": "uint256"
        },
        {
          "indexed": false,
          "internalType": "uint256",
          "name": "end",
          "type": "uint256"
        }
      ],
      "name": "DepositedVesting",
      "type": "event"
    },
    {
      "anonymous": false,
      "inputs": [
        {
          "indexed": true,
          "internalType": "address",
          "name": "recipient",
          "type": "address"
        },
        {
          "indexed": false,
          "internalType": "uint256",
          "name": "amount",
          "type": "uint256"
        }
      ],
      "name": "PaidOutClaim",
      "type": "event"
    },
    {
      "anonymous": false,
      "inputs": [
        {
          "indexed": true,
          "internalType": "uint256",
          "name": "epoch",
          "type": "uint256"
        },
        {
          "indexed": false,
          "internalType": "uint256",
          "name": "rewardAmount",
          "type": "uint256"
        },
        {
          "indexed": false,
          "internalType": "uint256",
          "name": "apr",
          "type": "uint256"
        }
      ],
      "name": "PaidReward",
      "type": "event"
    },
    {
      "anonymous": false,
      "inputs": [
        {
          "indexed": true,
          "internalType": "address",
          "name": "votingApp",
          "type": "address"
        },
        {
          "indexed": true,
          "internalType": "uint256",
          "name": "proposalIndex",
          "type": "uint256"
        },
        {
          "indexed": false,
          "internalType": "address",
          "name": "userAddress",
          "type": "address"
        },
        {
          "indexed": false,
          "internalType": "string",
          "name": "specsUrl",
          "type": "string"
        }
      ],
      "name": "PublishedSpecsUrl",
      "type": "event"
    },
    {
      "anonymous": false,
      "inputs": [
        {
          "indexed": true,
          "internalType": "address",
          "name": "user",
          "type": "address"
        },
        {
          "indexed": false,
          "internalType": "uint256",
          "name": "amount",
          "type": "uint256"
        },
        {
          "indexed": false,
          "internalType": "uint256",
          "name": "scheduledFor",
          "type": "uint256"
        }
      ],
      "name": "ScheduledUnstake",
      "type": "event"
    },
    {
      "anonymous": false,
      "inputs": [
        {
          "indexed": false,
          "internalType": "uint256",
          "name": "oldAprUpdateCoefficient",
          "type": "uint256"
        },
        {
          "indexed": false,
          "internalType": "uint256",
          "name": "aprUpdateCoefficient",
          "type": "uint256"
        }
      ],
      "name": "SetAprUpdateCoefficient",
      "type": "event"
    },
    {
      "anonymous": false,
      "inputs": [
        {
          "indexed": false,
          "internalType": "address",
          "name": "claimsManager",
          "type": "address"
        },
        {
          "indexed": false,
          "internalType": "bool",
          "name": "status",
          "type": "bool"
        }
      ],
      "name": "SetClaimsManagerStatus",
      "type": "event"
    },
    {
      "anonymous": false,
      "inputs": [
        {
          "indexed": false,
          "internalType": "address",
          "name": "agentAppPrimary",
          "type": "address"
        },
        {
          "indexed": false,
          "internalType": "address",
          "name": "agentAppSecondary",
          "type": "address"
        },
        {
          "indexed": false,
          "internalType": "address",
          "name": "votingAppPrimary",
          "type": "address"
        },
        {
          "indexed": false,
          "internalType": "address",
          "name": "votingAppSecondary",
          "type": "address"
        }
      ],
      "name": "SetDaoApps",
      "type": "event"
    },
    {
      "anonymous": false,
      "inputs": [
        {
          "indexed": false,
          "internalType": "uint256",
          "name": "oldMaxApr",
          "type": "uint256"
        },
        {
          "indexed": false,
          "internalType": "uint256",
          "name": "maxApr",
          "type": "uint256"
        }
      ],
      "name": "SetMaxApr",
      "type": "event"
    },
    {
      "anonymous": false,
      "inputs": [
        {
          "indexed": false,
          "internalType": "uint256",
          "name": "oldMinApr",
          "type": "uint256"
        },
        {
          "indexed": false,
          "internalType": "uint256",
          "name": "minApr",
          "type": "uint256"
        }
      ],
      "name": "SetMinApr",
      "type": "event"
    },
    {
      "anonymous": false,
      "inputs": [
        {
          "indexed": false,
          "internalType": "uint256",
          "name": "oldProposalVotingPowerThreshold",
          "type": "uint256"
        },
        {
          "indexed": false,
          "internalType": "uint256",
          "name": "proposalVotingPowerThreshold",
          "type": "uint256"
        }
      ],
      "name": "SetProposalVotingPowerThreshold",
      "type": "event"
    },
    {
      "anonymous": false,
      "inputs": [
        {
          "indexed": false,
          "internalType": "uint256",
          "name": "oldTarget",
          "type": "uint256"
        },
        {
          "indexed": false,
          "internalType": "uint256",
          "name": "newTarget",
          "type": "uint256"
        }
      ],
      "name": "SetStakeTarget",
      "type": "event"
    },
    {
      "anonymous": false,
      "inputs": [
        {
          "indexed": false,
          "internalType": "uint256",
          "name": "oldUnstakeWaitPeriod",
          "type": "uint256"
        },
        {
          "indexed": false,
          "internalType": "uint256",
          "name": "unstakeWaitPeriod",
          "type": "uint256"
        }
      ],
      "name": "SetUnstakeWaitPeriod",
      "type": "event"
    },
    {
      "anonymous": false,
      "inputs": [
        {
          "indexed": true,
          "internalType": "address",
          "name": "user",
          "type": "address"
        },
        {
          "indexed": false,
          "internalType": "uint256",
          "name": "amount",
          "type": "uint256"
        },
        {
          "indexed": false,
          "internalType": "uint256",
          "name": "totalShares",
          "type": "uint256"
        }
      ],
      "name": "Staked",
      "type": "event"
    },
    {
      "anonymous": false,
      "inputs": [
        {
          "indexed": true,
          "internalType": "address",
          "name": "user",
          "type": "address"
        },
        {
          "indexed": true,
          "internalType": "address",
          "name": "delegate",
          "type": "address"
        }
      ],
      "name": "Undelegated",
      "type": "event"
    },
    {
      "anonymous": false,
      "inputs": [
        {
          "indexed": true,
          "internalType": "address",
          "name": "user",
          "type": "address"
        },
        {
          "indexed": false,
          "internalType": "uint256",
          "name": "amount",
          "type": "uint256"
        },
        {
          "indexed": false,
          "internalType": "uint256",
          "name": "totalShares",
          "type": "uint256"
        }
      ],
      "name": "Unstaked",
      "type": "event"
    },
    {
      "anonymous": false,
      "inputs": [
        {
          "indexed": false,
          "internalType": "address",
          "name": "votingApp",
          "type": "address"
        },
        {
          "indexed": false,
          "internalType": "uint256",
          "name": "lastVoteSnapshotBlock",
          "type": "uint256"
        },
        {
          "indexed": false,
          "internalType": "uint256",
          "name": "lastVoteSnapshotBlockUpdateTimestamp",
          "type": "uint256"
        }
      ],
      "name": "UpdatedLastVoteSnapshotBlock",
      "type": "event"
    },
    {
      "anonymous": false,
      "inputs": [
        {
          "indexed": true,
          "internalType": "address",
          "name": "user",
          "type": "address"
        },
        {
          "indexed": true,
          "internalType": "address",
          "name": "timelockManagerAddress",
          "type": "address"
        },
        {
          "indexed": false,
          "internalType": "uint256",
          "name": "remainingAmount",
          "type": "uint256"
        }
      ],
      "name": "UpdatedTimelock",
      "type": "event"
    },
    {
      "anonymous": false,
      "inputs": [
        {
          "indexed": true,
          "internalType": "address",
          "name": "user",
          "type": "address"
        },
        {
          "indexed": true,
          "internalType": "address",
          "name": "destination",
          "type": "address"
        },
        {
          "indexed": false,
          "internalType": "uint256",
          "name": "amount",
          "type": "uint256"
        }
      ],
      "name": "Withdrawn",
      "type": "event"
    },
    {
      "inputs": [],
      "name": "EPOCH_LENGTH",
      "outputs": [
        {
          "internalType": "uint256",
          "name": "",
          "type": "uint256"
        }
      ],
      "stateMutability": "view",
      "type": "function"
    },
    {
      "inputs": [],
      "name": "MAX_INTERACTION_FREQUENCY",
      "outputs": [
        {
          "internalType": "uint256",
          "name": "",
          "type": "uint256"
        }
      ],
      "stateMutability": "view",
      "type": "function"
    },
    {
      "inputs": [],
      "name": "REWARD_VESTING_PERIOD",
      "outputs": [
        {
          "internalType": "uint256",
          "name": "",
          "type": "uint256"
        }
      ],
      "stateMutability": "view",
      "type": "function"
    },
    {
      "inputs": [],
      "name": "agentAppPrimary",
      "outputs": [
        {
          "internalType": "address",
          "name": "",
          "type": "address"
        }
      ],
      "stateMutability": "view",
      "type": "function"
    },
    {
      "inputs": [],
      "name": "agentAppSecondary",
      "outputs": [
        {
          "internalType": "address",
          "name": "",
          "type": "address"
        }
      ],
      "stateMutability": "view",
      "type": "function"
    },
    {
      "inputs": [],
      "name": "api3Token",
      "outputs": [
        {
          "internalType": "contract IApi3Token",
          "name": "",
          "type": "address"
        }
      ],
      "stateMutability": "view",
      "type": "function"
    },
    {
      "inputs": [],
      "name": "aprUpdateCoefficient",
      "outputs": [
        {
          "internalType": "uint256",
          "name": "",
          "type": "uint256"
        }
      ],
      "stateMutability": "view",
      "type": "function"
    },
    {
      "inputs": [
        {
          "internalType": "address",
          "name": "userAddress",
          "type": "address"
        }
      ],
      "name": "balanceOf",
      "outputs": [
        {
          "internalType": "uint256",
          "name": "",
          "type": "uint256"
        }
      ],
      "stateMutability": "view",
      "type": "function"
    },
    {
      "inputs": [
        {
          "internalType": "address",
          "name": "userAddress",
          "type": "address"
        },
        {
          "internalType": "uint256",
          "name": "_block",
          "type": "uint256"
        }
      ],
      "name": "balanceOfAt",
      "outputs": [
        {
          "internalType": "uint256",
          "name": "",
          "type": "uint256"
        }
      ],
      "stateMutability": "view",
      "type": "function"
    },
    {
      "inputs": [
        {
          "internalType": "address",
          "name": "",
          "type": "address"
        }
      ],
      "name": "claimsManagerStatus",
      "outputs": [
        {
          "internalType": "bool",
          "name": "",
          "type": "bool"
        }
      ],
      "stateMutability": "view",
      "type": "function"
    },
    {
      "inputs": [],
      "name": "currentApr",
      "outputs": [
        {
          "internalType": "uint256",
          "name": "",
          "type": "uint256"
        }
      ],
      "stateMutability": "view",
      "type": "function"
    },
    {
      "inputs": [
        {
          "internalType": "address",
          "name": "delegate",
          "type": "address"
        }
      ],
      "name": "delegateVotingPower",
      "outputs": [],
      "stateMutability": "nonpayable",
      "type": "function"
    },
    {
      "inputs": [
        {
          "internalType": "address",
          "name": "source",
          "type": "address"
        },
        {
          "internalType": "uint256",
          "name": "amount",
          "type": "uint256"
        },
        {
          "internalType": "address",
          "name": "userAddress",
          "type": "address"
        }
      ],
      "name": "deposit",
      "outputs": [],
      "stateMutability": "nonpayable",
      "type": "function"
    },
    {
      "inputs": [
        {
          "internalType": "address",
          "name": "source",
          "type": "address"
        },
        {
          "internalType": "uint256",
          "name": "amount",
          "type": "uint256"
        },
        {
          "internalType": "address",
          "name": "userAddress",
          "type": "address"
        }
      ],
      "name": "depositAndStake",
      "outputs": [],
      "stateMutability": "nonpayable",
      "type": "function"
    },
    {
      "inputs": [
        {
          "internalType": "address",
          "name": "source",
          "type": "address"
        },
        {
          "internalType": "uint256",
          "name": "amount",
          "type": "uint256"
        },
        {
          "internalType": "address",
          "name": "userAddress",
          "type": "address"
        },
        {
          "internalType": "uint256",
          "name": "releaseStart",
          "type": "uint256"
        },
        {
          "internalType": "uint256",
          "name": "releaseEnd",
          "type": "uint256"
        }
      ],
      "name": "depositWithVesting",
      "outputs": [],
      "stateMutability": "nonpayable",
      "type": "function"
    },
    {
      "inputs": [],
      "name": "epochIndexOfLastRewardPayment",
      "outputs": [
        {
          "internalType": "uint256",
          "name": "",
          "type": "uint256"
        }
      ],
      "stateMutability": "view",
      "type": "function"
    },
    {
      "inputs": [
        {
          "internalType": "uint256",
          "name": "",
          "type": "uint256"
        }
      ],
      "name": "epochIndexToReward",
      "outputs": [
        {
          "internalType": "uint256",
          "name": "atBlock",
          "type": "uint256"
        },
        {
          "internalType": "uint256",
          "name": "amount",
          "type": "uint256"
        },
        {
          "internalType": "uint256",
          "name": "totalSharesThen",
          "type": "uint256"
        }
      ],
      "stateMutability": "view",
      "type": "function"
    },
    {
      "inputs": [],
      "name": "genesisEpoch",
      "outputs": [
        {
          "internalType": "uint256",
          "name": "",
          "type": "uint256"
        }
      ],
      "stateMutability": "view",
      "type": "function"
    },
    {
      "inputs": [
        {
          "internalType": "address",
          "name": "userAddress",
          "type": "address"
        }
      ],
      "name": "getUserLocked",
      "outputs": [
        {
          "internalType": "uint256",
          "name": "locked",
          "type": "uint256"
        }
      ],
      "stateMutability": "view",
      "type": "function"
    },
    {
      "inputs": [],
      "name": "maxApr",
      "outputs": [
        {
          "internalType": "uint256",
          "name": "",
          "type": "uint256"
        }
      ],
      "stateMutability": "view",
      "type": "function"
    },
    {
      "inputs": [],
      "name": "minApr",
      "outputs": [
        {
          "internalType": "uint256",
          "name": "",
          "type": "uint256"
        }
      ],
      "stateMutability": "view",
      "type": "function"
    },
    {
      "inputs": [
        {
          "internalType": "address",
          "name": "recipient",
          "type": "address"
        },
        {
          "internalType": "uint256",
          "name": "amount",
          "type": "uint256"
        }
      ],
      "name": "payOutClaim",
      "outputs": [],
      "stateMutability": "nonpayable",
      "type": "function"
    },
    {
      "inputs": [],
      "name": "payReward",
      "outputs": [],
      "stateMutability": "nonpayable",
      "type": "function"
    },
    {
      "inputs": [],
      "name": "proposalVotingPowerThreshold",
      "outputs": [
        {
          "internalType": "uint256",
          "name": "",
          "type": "uint256"
        }
      ],
      "stateMutability": "view",
      "type": "function"
    },
    {
      "inputs": [
        {
          "internalType": "address",
          "name": "votingApp",
          "type": "address"
        },
        {
          "internalType": "uint256",
          "name": "proposalIndex",
          "type": "uint256"
        },
        {
          "internalType": "string",
          "name": "specsUrl",
          "type": "string"
        }
      ],
      "name": "publishSpecsUrl",
      "outputs": [],
      "stateMutability": "nonpayable",
      "type": "function"
    },
    {
      "inputs": [
        {
          "internalType": "uint256",
          "name": "amount",
          "type": "uint256"
        }
      ],
      "name": "scheduleUnstake",
      "outputs": [],
      "stateMutability": "nonpayable",
      "type": "function"
    },
    {
      "inputs": [
        {
          "internalType": "uint256",
          "name": "_aprUpdateCoefficient",
          "type": "uint256"
        }
      ],
      "name": "setAprUpdateCoefficient",
      "outputs": [],
      "stateMutability": "nonpayable",
      "type": "function"
    },
    {
      "inputs": [
        {
          "internalType": "address",
          "name": "claimsManager",
          "type": "address"
        },
        {
          "internalType": "bool",
          "name": "status",
          "type": "bool"
        }
      ],
      "name": "setClaimsManagerStatus",
      "outputs": [],
      "stateMutability": "nonpayable",
      "type": "function"
    },
    {
      "inputs": [
        {
          "internalType": "address",
          "name": "_agentAppPrimary",
          "type": "address"
        },
        {
          "internalType": "address",
          "name": "_agentAppSecondary",
          "type": "address"
        },
        {
          "internalType": "address",
          "name": "_votingAppPrimary",
          "type": "address"
        },
        {
          "internalType": "address",
          "name": "_votingAppSecondary",
          "type": "address"
        }
      ],
      "name": "setDaoApps",
      "outputs": [],
      "stateMutability": "nonpayable",
      "type": "function"
    },
    {
      "inputs": [
        {
          "internalType": "uint256",
          "name": "_maxApr",
          "type": "uint256"
        }
      ],
      "name": "setMaxApr",
      "outputs": [],
      "stateMutability": "nonpayable",
      "type": "function"
    },
    {
      "inputs": [
        {
          "internalType": "uint256",
          "name": "_minApr",
          "type": "uint256"
        }
      ],
      "name": "setMinApr",
      "outputs": [],
      "stateMutability": "nonpayable",
      "type": "function"
    },
    {
      "inputs": [
        {
          "internalType": "uint256",
          "name": "_proposalVotingPowerThreshold",
          "type": "uint256"
        }
      ],
      "name": "setProposalVotingPowerThreshold",
      "outputs": [],
      "stateMutability": "nonpayable",
      "type": "function"
    },
    {
      "inputs": [
        {
          "internalType": "uint256",
          "name": "_stakeTarget",
          "type": "uint256"
        }
      ],
      "name": "setStakeTarget",
      "outputs": [],
      "stateMutability": "nonpayable",
      "type": "function"
    },
    {
      "inputs": [
        {
          "internalType": "uint256",
          "name": "_unstakeWaitPeriod",
          "type": "uint256"
        }
      ],
      "name": "setUnstakeWaitPeriod",
      "outputs": [],
      "stateMutability": "nonpayable",
      "type": "function"
    },
    {
      "inputs": [
        {
          "internalType": "uint256",
          "name": "amount",
          "type": "uint256"
        }
      ],
      "name": "stake",
      "outputs": [],
      "stateMutability": "nonpayable",
      "type": "function"
    },
    {
      "inputs": [],
      "name": "stakeTarget",
      "outputs": [
        {
          "internalType": "uint256",
          "name": "",
          "type": "uint256"
        }
      ],
      "stateMutability": "view",
      "type": "function"
    },
    {
      "inputs": [],
      "name": "totalStake",
      "outputs": [
        {
          "internalType": "uint256",
          "name": "",
          "type": "uint256"
        }
      ],
      "stateMutability": "view",
      "type": "function"
    },
    {
      "inputs": [],
      "name": "totalSupply",
      "outputs": [
        {
          "internalType": "uint256",
          "name": "",
          "type": "uint256"
        }
      ],
      "stateMutability": "view",
      "type": "function"
    },
    {
      "inputs": [],
      "name": "totalSupplyOneBlockAgo",
      "outputs": [
        {
          "internalType": "uint256",
          "name": "",
          "type": "uint256"
        }
      ],
      "stateMutability": "view",
      "type": "function"
    },
    {
      "inputs": [],
      "name": "undelegateVotingPower",
      "outputs": [],
      "stateMutability": "nonpayable",
      "type": "function"
    },
    {
      "inputs": [],
      "name": "unstake",
      "outputs": [
        {
          "internalType": "uint256",
          "name": "",
          "type": "uint256"
        }
      ],
      "stateMutability": "nonpayable",
      "type": "function"
    },
    {
      "inputs": [
        {
          "internalType": "address",
          "name": "destination",
          "type": "address"
        }
      ],
      "name": "unstakeAndWithdraw",
      "outputs": [],
      "stateMutability": "nonpayable",
      "type": "function"
    },
    {
      "inputs": [],
      "name": "unstakeWaitPeriod",
      "outputs": [
        {
          "internalType": "uint256",
          "name": "",
          "type": "uint256"
        }
      ],
      "stateMutability": "view",
      "type": "function"
    },
    {
      "inputs": [
        {
          "internalType": "uint256",
          "name": "snapshotBlock",
          "type": "uint256"
        }
      ],
      "name": "updateLastVoteSnapshotBlock",
      "outputs": [],
      "stateMutability": "nonpayable",
      "type": "function"
    },
    {
      "inputs": [
        {
          "internalType": "address",
          "name": "userAddress",
          "type": "address"
        },
        {
          "internalType": "address",
          "name": "timelockManagerAddress",
          "type": "address"
        }
      ],
      "name": "updateTimelockStatus",
      "outputs": [],
      "stateMutability": "nonpayable",
      "type": "function"
    },
    {
      "inputs": [
        {
          "internalType": "address",
          "name": "",
          "type": "address"
        },
        {
          "internalType": "address",
          "name": "",
          "type": "address"
        },
        {
          "internalType": "uint256",
          "name": "",
          "type": "uint256"
        }
      ],
      "name": "userAddressToVotingAppToProposalIndexToSpecsUrl",
      "outputs": [
        {
          "internalType": "string",
          "name": "",
          "type": "string"
        }
      ],
      "stateMutability": "view",
      "type": "function"
    },
    {
      "inputs": [
        {
          "internalType": "address",
          "name": "userAddress",
          "type": "address"
        }
      ],
      "name": "userDelegate",
      "outputs": [
        {
          "internalType": "address",
          "name": "",
          "type": "address"
        }
      ],
      "stateMutability": "view",
      "type": "function"
    },
    {
      "inputs": [
        {
          "internalType": "address",
          "name": "userAddress",
          "type": "address"
        },
        {
          "internalType": "uint256",
          "name": "_block",
          "type": "uint256"
        }
      ],
      "name": "userDelegateAt",
      "outputs": [
        {
          "internalType": "address",
          "name": "",
          "type": "address"
        }
      ],
      "stateMutability": "view",
      "type": "function"
    },
    {
      "inputs": [
        {
          "internalType": "address",
          "name": "userAddress",
          "type": "address"
        }
      ],
      "name": "userReceivedDelegation",
      "outputs": [
        {
          "internalType": "uint256",
          "name": "",
          "type": "uint256"
        }
      ],
      "stateMutability": "view",
      "type": "function"
    },
    {
      "inputs": [
        {
          "internalType": "address",
          "name": "userAddress",
          "type": "address"
        },
        {
          "internalType": "uint256",
          "name": "_block",
          "type": "uint256"
        }
      ],
      "name": "userReceivedDelegationAt",
      "outputs": [
        {
          "internalType": "uint256",
          "name": "",
          "type": "uint256"
        }
      ],
      "stateMutability": "view",
      "type": "function"
    },
    {
      "inputs": [
        {
          "internalType": "address",
          "name": "userAddress",
          "type": "address"
        }
      ],
      "name": "userShares",
      "outputs": [
        {
          "internalType": "uint256",
          "name": "",
          "type": "uint256"
        }
      ],
      "stateMutability": "view",
      "type": "function"
    },
    {
      "inputs": [
        {
          "internalType": "address",
          "name": "userAddress",
          "type": "address"
        },
        {
          "internalType": "uint256",
          "name": "_block",
          "type": "uint256"
        }
      ],
      "name": "userSharesAt",
      "outputs": [
        {
          "internalType": "uint256",
          "name": "",
          "type": "uint256"
        }
      ],
      "stateMutability": "view",
      "type": "function"
    },
    {
      "inputs": [
        {
          "internalType": "address",
          "name": "userAddress",
          "type": "address"
        },
        {
          "internalType": "uint256",
          "name": "_block",
          "type": "uint256"
        }
      ],
      "name": "userSharesAtWithBinarySearch",
      "outputs": [
        {
          "internalType": "uint256",
          "name": "",
          "type": "uint256"
        }
      ],
      "stateMutability": "view",
      "type": "function"
    },
    {
      "inputs": [
        {
          "internalType": "address",
          "name": "userAddress",
          "type": "address"
        }
      ],
      "name": "userStake",
      "outputs": [
        {
          "internalType": "uint256",
          "name": "",
          "type": "uint256"
        }
      ],
      "stateMutability": "view",
      "type": "function"
    },
    {
      "inputs": [
        {
          "internalType": "address",
          "name": "",
          "type": "address"
        },
        {
          "internalType": "address",
          "name": "",
          "type": "address"
        }
      ],
      "name": "userToDepositorToTimelock",
      "outputs": [
        {
          "internalType": "uint256",
          "name": "totalAmount",
          "type": "uint256"
        },
        {
          "internalType": "uint256",
          "name": "remainingAmount",
          "type": "uint256"
        },
        {
          "internalType": "uint256",
          "name": "releaseStart",
          "type": "uint256"
        },
        {
          "internalType": "uint256",
          "name": "releaseEnd",
          "type": "uint256"
        }
      ],
      "stateMutability": "view",
      "type": "function"
    },
    {
      "inputs": [
        {
          "internalType": "address",
          "name": "",
          "type": "address"
        }
      ],
      "name": "users",
      "outputs": [
        {
          "internalType": "uint256",
          "name": "unstaked",
          "type": "uint256"
        },
        {
          "internalType": "uint256",
          "name": "vesting",
          "type": "uint256"
        },
        {
          "internalType": "uint256",
          "name": "lastDelegationUpdateTimestamp",
          "type": "uint256"
        },
        {
          "internalType": "uint256",
          "name": "unstakeScheduledFor",
          "type": "uint256"
        },
        {
          "internalType": "uint256",
          "name": "unstakeAmount",
          "type": "uint256"
        }
      ],
      "stateMutability": "view",
      "type": "function"
    },
    {
      "inputs": [],
      "name": "votingAppPrimary",
      "outputs": [
        {
          "internalType": "address",
          "name": "",
          "type": "address"
        }
      ],
      "stateMutability": "view",
      "type": "function"
    },
    {
      "inputs": [],
      "name": "votingAppSecondary",
      "outputs": [
        {
          "internalType": "address",
          "name": "",
          "type": "address"
        }
      ],
      "stateMutability": "view",
      "type": "function"
    },
    {
      "inputs": [
        {
          "internalType": "address",
          "name": "destination",
          "type": "address"
        },
        {
          "internalType": "uint256",
          "name": "amount",
          "type": "uint256"
        }
      ],
      "name": "withdraw",
      "outputs": [],
      "stateMutability": "nonpayable",
      "type": "function"
    }
  ],
  "bytecode": "0x60a06040526302faf080600a55622625a0600b5563047868c0600c55620f4240600d5562093a80600e55620186a0600f55600c546010553480156200004357600080fd5b50604051620037c8380380620037c88339810160408190526200006691620000f5565b600080546001600160a01b0319166001600160a01b038316179055806200008e6001620000b6565b60016009556000620000a462093a804262000125565b60808190526007555062000146915050565b601454431415620000c657601555565b601654431415620000d657601755565b6016546014541015620000ec5743601455601555565b43601655601755565b60006020828403121562000107578081fd5b81516001600160a01b03811681146200011e578182fd5b9392505050565b6000826200014157634e487b7160e01b81526012600452602481fd5b500490565b60805161365862000170600039600081816107100152818161209c01526120d001526136586000f3fe608060405234801561001057600080fd5b50600436106103985760003560e01c80637fd63875116101e9578063b8f051831161010f578063e7460a52116100ad578063f45346dc1161007c578063f45346dc14610846578063f68308c714610859578063fc5da2aa1461086c578063fcde28cc1461087f57600080fd5b8063e7460a5214610804578063ea26afd71461080d578063f3fef3a314610820578063f3ff955a1461083357600080fd5b8063e14b5fac116100e9578063e14b5fac1461076b578063e3b341741461077e578063e45bebc114610791578063e685dee0146107f157600080fd5b8063b8f0518314610732578063cad2ab2514610745578063de69b3aa1461075857600080fd5b8063a17824fe11610187578063ac4746ab11610156578063ac4746ab146106e5578063b330fc53146106ef578063b3609b5314610702578063b70e6be61461070b57600080fd5b8063a17824fe14610647578063a694fc3a1461065a578063a78c6ddc1461066d578063a87430ba1461068057600080fd5b80639745f563116101c35780639745f563146105fb578063975f25341461062e5780639b9708b514610637578063a11798b41461063f57600080fd5b80637fd63875146105d65780638b0e9f3f146105e957806392093b36146105f257600080fd5b80634c44bbea116102ce578063613d517d1161026c57806370a082311161023b57806370a082311461059f578063756b2a8b146105b25780637842a3a4146105c5578063784b3c5d146105cd57600080fd5b8063613d517d146105535780636367f36f14610566578063681a9ad71461057957806368e5585d1461058c57600080fd5b80634f322ae8116102a85780634f322ae81461051c57806352f52ddd1461052557806356d4a7fe146105385780635856130a1461054b57600080fd5b80634c44bbea146104ed5780634eb05c47146105005780634ee2cd7e1461050957600080fd5b8063213d7e7c1161033b578063344965e211610315578063344965e21461047f5780633c37d05a146104925780634091fd3f1461049a5780634b6be8d2146104e457600080fd5b8063213d7e7c146104445780632cacc0cb146104645780632def66201461047757600080fd5b80630c1961f3116103775780630c1961f3146103f5578063106d08df1461041657806311281a191461042957806318160ddd1461043c57600080fd5b80626091871461039d57806302b6e964146103cd578063054fbb84146103e2575b600080fd5b6003546103b0906001600160a01b031681565b6040516001600160a01b0390911681526020015b60405180910390f35b6103e06103db3660046133ba565b610892565b005b6103e06103f0366004613213565b610915565b610408610403366004613309565b610b14565b6040519081526020016103c4565b6103e0610424366004613458565b610b67565b6103e0610437366004613332565b610c58565b610408610cbe565b610457610452366004613298565b610ccd565b6040516103c491906134c8565b6103e0610472366004613309565b610d78565b610408610f01565b6002546103b0906001600160a01b031681565b6103e061111c565b6104c96104a8366004613458565b60066020526000908152604090208054600182015460029092015490919083565b604080519384526020840192909252908201526060016103c4565b610408600d5481565b6103e06104fb366004613458565b611241565b610408600a5481565b610408610517366004613309565b611347565b61040860105481565b610408610533366004613309565b611390565b6103e061054636600461336d565b611561565b610408603481565b6000546103b0906001600160a01b031681565b6103e06105743660046131f9565b6117b5565b6001546103b0906001600160a01b031681565b61040861059a3660046131f9565b6117cf565b6104086105ad3660046131f9565b6117f9565b6103e06105c0366004613458565b611805565b6103e06118f5565b610408600b5481565b6103e06105e4366004613458565b611ad1565b61040860095481565b610408600c5481565b61061e6106093660046131f9565b60056020526000908152604090205460ff1681565b60405190151581526020016103c4565b61040860075481565b610408611bb5565b610408601481565b6104086106553660046131f9565b611bbf565b6103e0610668366004613458565b611bcb565b6103e061067b366004613245565b611d30565b6106bd61068e3660046131f9565b600860205260009081526040902080546001820154600583015460068401546007909401549293919290919085565b604080519586526020860194909452928401919091526060830152608082015260a0016103c4565b61040862093a8081565b6103b06106fd3660046131f9565b611ec0565b610408600f5481565b6104087f000000000000000000000000000000000000000000000000000000000000000081565b6103e0610740366004613458565b611ecc565b6103b0610753366004613309565b611f8d565b6104086107663660046131f9565b612061565b6104086107793660046131f9565b61206d565b6103e061078c366004613458565b6121fd565b6107d161079f366004613213565b601860209081526000928352604080842090915290825290208054600182015460028301546003909301549192909184565b6040805194855260208501939093529183015260608201526080016103c4565b6004546103b0906001600160a01b031681565b610408600e5481565b6103e061081b366004613458565b6122ed565b6103e061082e366004613309565b6123e9565b6103e06108413660046131f9565b6125b1565b6103e0610854366004613332565b6127c8565b6103e06108673660046132d3565b6128db565b61040861087a366004613309565b612987565b6103e061088d366004613458565b6129b4565b3360009081526011602090815260408083206001600160a01b0388168452825280832086845290915290206108c8908383613144565b5082846001600160a01b03167f95cb14f699b3d2961f51c4f757e613372327456b717ec4478d0a55d0a41522d633858560405161090793929190613488565b60405180910390a350505050565b6001600160a01b03808316600090815260186020908152604080832093851683529281529082902060028101548351808501909452600c84526b155b985d5d1a1bdc9a5e995960a21b928401929092529190421161098f5760405162461bcd60e51b815260040161098691906134c8565b60405180910390fd5b5060008160010154116040518060400160405280600c81526020016b155b985d5d1a1bdc9a5e995960a21b815250906109db5760405162461bcd60e51b815260040161098691906134c8565b506000816003015442106109f157508054610a3d565b6000826002015442610a039190613572565b9050600083600201548460030154610a1b9190613572565b905080828560000154610a2e9190613553565b610a389190613533565b925050505b60018201548254600091610a5091613572565b90506000610a5e8284613572565b6001600160a01b0387166000908152600860205260409020600181015491925090610a8a908390613572565b81600101819055506000828660010154610aa49190613572565b6001600160a01b038981166000818152601860209081526040808320948d16808452948252918290206001018590559051848152939450919290917f760cee05d81d0fd6dddc4db40caa8754661e5fb9f9910b9b2390e43c728d1816910160405180910390a35050505050505050565b6001600160a01b038216600090815260086020526040812060040180548290601410610b41576000610b4f565b8154610b4f90601490613572565b9050610b5c828583612a8b565b925050505b92915050565b610b6f6118f5565b33600081815260086020526040812091610b8890612061565b90506000610b94612b80565b600954610ba19084613553565b610bab9190613533565b9050838110156040518060400160405280600d81526020016c496e76616c69642076616c756560981b81525090610bf55760405162461bcd60e51b815260040161098691906134c8565b50600e54610c03904261351b565b600684018190556007840185905560405133917fe0ac335d66944a141a2309a52c28f3ebe4313106ef590045c27a46336d66254891610c4a91888252602082015260400190565b60405180910390a250505050565b60408051808201909152600c81526b155b985d5d1a1bdc9a5e995960a21b60208201526001600160a01b0382163314610ca45760405162461bcd60e51b815260040161098691906134c8565b50610cb08383836127c8565b610cb982611bcb565b505050565b6000610cc8612b80565b905090565b601160209081526000938452604080852082529284528284209052825290208054610cf7906135a0565b80601f0160208091040260200160405190810160405280929190818152602001828054610d23906135a0565b8015610d705780601f10610d4557610100808354040283529160200191610d70565b820191906000526020600020905b815481529060010190602001808311610d5357829003601f168201915b505050505081565b33600090815260056020908152604091829020548251808401909352600c83526b155b985d5d1a1bdc9a5e995960a21b9183019190915260ff16610dcf5760405162461bcd60e51b815260040161098691906134c8565b50610dd86118f5565b80600954116040518060400160405280600d81526020016c496e76616c69642076616c756560981b81525090610e215760405162461bcd60e51b815260040161098691906134c8565b5080600954610e309190613572565b60095560005460405163a9059cbb60e01b81526001600160a01b038481166004830152602482018490529091169063a9059cbb90604401602060405180830381600087803b158015610e8157600080fd5b505af1158015610e95573d6000803e3d6000fd5b505050506040513d601f19601f82011682018060405250810190610eb9919061343c565b50816001600160a01b03167f69012b8bdee54006564cf8bf08b89cccd4d86713e4ebc2443760c02fe9a9a09282604051610ef591815260200190565b60405180910390a25050565b6000610f0b6118f5565b3360009081526008602090815260409182902060068101548351808501909452600c84526b155b985d5d1a1bdc9a5e995960a21b9284019290925291904211610f675760405162461bcd60e51b815260040161098691906134c8565b5062093a808160060154610f7b919061351b565b42106040518060400160405280600c81526020016b155b985d5d1a1bdc9a5e995960a21b81525090610fc05760405162461bcd60e51b815260040161098691906134c8565b5060078101546000610fd0612b80565b90506000610fdd33612061565b905060006009548484610ff09190613553565b610ffa9190613533565b9050818111156110235781905082600954826110169190613553565b6110209190613533565b93505b845461103090859061351b565b8555604080518082019091524381526002860190602081016110528486613572565b905281546001818101845560009384526020808520845160029094020192835590920151910155818411611087576001611091565b6110918285613572565b905061109c81612b9d565b6110a7826000612bd9565b84600954116110b75760016110c5565b846009546110c59190613572565b6009556000600687018190556007870155604080518681526020810183905233917f7fc4727e062e336010f2c282598ef5f14facb3de68cf8195c2f23e1454b2b74e910160405180910390a2509295945050505050565b6111246118f5565b3360008181526008602052604081209161113d90611ec0565b90506001600160a01b03811615801590611167575061115f62093a8042613572565b826005015411155b6040518060400160405280600c81526020016b155b985d5d1a1bdc9a5e995960a21b815250906111aa5760405162461bcd60e51b815260040161098691906134c8565b5060006111b633612061565b6001600160a01b03831660009081526008602052604090209091506111f160048201836111e286611bbf565b6111ec9190613572565b612c66565b6111ff846003016000612e18565b4260058501556040516001600160a01b0384169033907f1af5b1c85495b3618ea659a1ba256c8b8974b437297d3b914e321e086a28da7290600090a350505050565b6001546001600160a01b031633148061126457506002546001600160a01b031633145b6040518060400160405280600c81526020016b155b985d5d1a1bdc9a5e995960a21b815250906112a75760405162461bcd60e51b815260040161098691906134c8565b50633b9aca0081111580156112bc5750600081115b6040518060400160405280600d81526020016c496e76616c69642076616c756560981b815250906113005760405162461bcd60e51b815260040161098691906134c8565b50600d80549082905560408051828152602081018490527f4de420187ffacdcdd815dbe0650c4876104766f6b77ab447b45613747c23903791015b60405180910390a15050565b6000806113548484611f8d565b6001600160a01b03161461136a57506000610b61565b60006113768484612987565b905060006113848585610b14565b9050610b5c818361351b565b6001600160a01b038216600090815260086020526040812060020180546113bb576000915050610b61565b805481906113cb90600190613572565b815481106113e957634e487b7160e01b600052603260045260246000fd5b9060005260206000209060020201600001548310611449578054819061141190600190613572565b8154811061142f57634e487b7160e01b600052603260045260246000fd5b906000526020600020906002020160010154915050610b61565b8060008154811061146a57634e487b7160e01b600052603260045260246000fd5b90600052602060002090600202016000015483101561148d576000915050610b61565b805460009081906114a090600190613572565b90505b8181111561152457600060026114b9848461351b565b6114c490600161351b565b6114ce9190613533565b9050858482815481106114f157634e487b7160e01b600052603260045260246000fd5b906000526020600020906002020160000154116115105780925061151e565b61151b600182613572565b91505b506114a3565b82828154811061154457634e487b7160e01b600052603260045260246000fd5b906000526020600020906002020160010154935050505092915050565b6001600160a01b0383166000908152601860209081526040808320338452825291829020600101548251808401909352600c83526b155b985d5d1a1bdc9a5e995960a21b91830191909152156115ca5760405162461bcd60e51b815260040161098691906134c8565b5081811180156115d957508315155b6040518060400160405280600d81526020016c496e76616c69642076616c756560981b8152509061161d5760405162461bcd60e51b815260040161098691906134c8565b506001600160a01b03831660009081526008602052604090205461164290859061351b565b6001600160a01b03841660009081526008602052604090209081556001015461166c90859061351b565b6001600160a01b03848116600081815260086020908152604080832060019081019690965580516080810182528a81528083018b81528183018a8152606083018a815296865260188552838620338752909452828520915182555196810196909655905160028601559151600390940193909355915491516323b872dd60e01b81528782166004820152306024820152604481018790529116906323b872dd90606401602060405180830381600087803b15801561172957600080fd5b505af115801561173d573d6000803e3d6000fd5b505050506040513d601f19601f82011682018060405250810190611761919061343c565b5060408051858152602081018490529081018290526001600160a01b038416907f4d2c5169b0ade12232f4f69bf95492a67a25767a255e750d3bc5c7505a4ec0da9060600160405180910390a25050505050565b60006117bf610f01565b90506117cb82826123e9565b5050565b60006117d9612b80565b6009546117e584612061565b6117ef9190613553565b610b619190613533565b6000610b618243611347565b6001546001600160a01b031633148061182857506002546001600160a01b031633145b6040518060400160405280600c81526020016b155b985d5d1a1bdc9a5e995960a21b8152509061186b5760405162461bcd60e51b815260040161098691906134c8565b50600c548111156040518060400160405280600d81526020016c496e76616c69642076616c756560981b815250906118b65760405162461bcd60e51b815260040161098691906134c8565b50600b80549082905560408051828152602081018490527fb716ede46671849441c512fd11a9c5a2dc35c8e2527f276d423088a871be09e1910161133b565b600061190462093a8042613533565b9050806007541015611ace5760005460405163bbb30c5d60e01b81523060048201526001600160a01b039091169063bbb30c5d9060240160206040518083038186803b15801561195357600080fd5b505afa158015611967573d6000803e3d6000fd5b505050506040513d601f19601f8201168201806040525081019061198b919061343c565b15611ac857611998612f4a565b60006305f5e10060346010546009546119b19190613553565b6119bb9190613533565b6119c59190613533565b905060405180606001604052804381526020018281526020016119e6612b80565b9052600083815260066020908152604080832084518155918401516001830155928301516002909101555490516340c10f1960e01b8152306004820152602481018390526001600160a01b03909116906340c10f1990604401600060405180830381600087803b158015611a5957600080fd5b505af1158015611a6d573d6000803e3d6000fd5b5050505080600954611a7f919061351b565b60095560105460405183917f460c3d9eee711013ca19dcb5315db471a382857fbd2d4361958a465c93bf9aad91611abe91858252602082015260400190565b60405180910390a2505b60078190555b50565b60015460408051808201909152600c81526b155b985d5d1a1bdc9a5e995960a21b6020820152906001600160a01b03163314611b205760405162461bcd60e51b815260040161098691906134c8565b50611b2f620f4240600a613553565b8111156040518060400160405280600d81526020016c496e76616c69642076616c756560981b81525090611b765760405162461bcd60e51b815260040161098691906134c8565b50600f80549082905560408051828152602081018490527fc0f8b066382313a28d6946c6b16228545528bfc5bdf98fcc5c481aa0c85654ef910161133b565b6000610cc8613117565b6000610b618243610b14565b611bd36118f5565b3360009081526008602090815260409182902080548351808501909452600d84526c496e76616c69642076616c756560981b928401929092529190831115611c2e5760405162461bcd60e51b815260040161098691906134c8565b508054611c3c908390613572565b81556000611c48612b80565b905060006009548483611c5b9190613553565b611c659190613533565b90506000611c7233612061565b90508360020160405180604001604052804381526020018484611c95919061351b565b905281546001818101845560009384526020808520845160029094020192835590920151910155611cc6838561351b565b9050611cd181612b9d565b85600954611cdf919061351b565b600955611ced836001612bd9565b604080518781526020810183905233917f1449c6dd7851abc30abf37f57715f492010519147cc2652fbc38202c18a6ee90910160405180910390a2505050505050565b6001546001600160a01b03161580611d5257506001546001600160a01b031633145b6040518060400160405280600c81526020016b155b985d5d1a1bdc9a5e995960a21b81525090611d955760405162461bcd60e51b815260040161098691906134c8565b506001600160a01b03841615801590611db657506001600160a01b03831615155b8015611dca57506001600160a01b03821615155b8015611dde57506001600160a01b03811615155b6040518060400160405280600f81526020016e496e76616c6964206164647265737360881b81525090611e245760405162461bcd60e51b815260040161098691906134c8565b50600180546001600160a01b038681166001600160a01b031992831681179093556002805487831690841681179091556003805487841690851681179091556004805493871693909416831790935560408051948552602085019190915283019190915260608201527f71b1ce304e98c2a645f0c32f4c9e3ae4d5dbe6717a8c17ccefb0083635afdc159060800160405180910390a150505050565b6000610b618243611f8d565b6003546001600160a01b0316331480611eef57506004546001600160a01b031633145b6040518060400160405280600c81526020016b155b985d5d1a1bdc9a5e995960a21b81525090611f325760405162461bcd60e51b815260040161098691906134c8565b506012819055600081815260136020908152604091829020429081905582513381529182018490528183015290517ff1e6ba87fa2be9c4c96e901e65cf0909457dc8a11cbed4280387501fade7f3b19181900360600190a150565b6001600160a01b038216600090815260086020526040812060030180545b8015612056578382611fbe600184613572565b81548110611fdc57634e487b7160e01b600052603260045260246000fd5b906000526020600020906002020160000154116120445781611fff600183613572565b8154811061201d57634e487b7160e01b600052603260045260246000fd5b60009182526020909120600160029092020101546001600160a01b03169250610b61915050565b8061204e81613589565b915050611fab565b506000949350505050565b6000610b618243612987565b6001600160a01b03811660009081526008602052604081206002018161209662093a8042613533565b905060007f00000000000000000000000000000000000000000000000000000000000000006120c6603484613572565b116120fb576120f67f0000000000000000000000000000000000000000000000000000000000000000600161351b565b612111565b612106603483613572565b61211190600161351b565b835490915061212557506000949350505050565b825460009061213690600190613572565b9050825b8281106121f35760008181526006602052604090208054156121e0575b600086848154811061217957634e487b7160e01b600052603260045260246000fd5b9060005260206000209060020201905081600001548160000154116121cd578160020154816001015483600101546121b19190613553565b6121bb9190613533565b6121c5908961351b565b9750506121e0565b50826121d881613589565b935050612157565b50806121eb81613589565b91505061213a565b5050505050919050565b6001546001600160a01b031633148061222057506002546001600160a01b031633145b6040518060400160405280600c81526020016b155b985d5d1a1bdc9a5e995960a21b815250906122635760405162461bcd60e51b815260040161098691906134c8565b50600b548110156040518060400160405280600d81526020016c496e76616c69642076616c756560981b815250906122ae5760405162461bcd60e51b815260040161098691906134c8565b50600c80549082905560408051828152602081018490527f5fcfc26d11c92c09c71d9eae2b49aea32896b4203b9b9ec08b3d13e574eb5ec3910161133b565b6001546001600160a01b031633148061231057506002546001600160a01b031633145b6040518060400160405280600c81526020016b155b985d5d1a1bdc9a5e995960a21b815250906123535760405162461bcd60e51b815260040161098691906134c8565b506305f5e1008111158015612366575060015b6040518060400160405280600d81526020016c496e76616c69642076616c756560981b815250906123aa5760405162461bcd60e51b815260040161098691906134c8565b50600a80549082905560408051828152602081018490527f700ec58170a757bdf5c02a43e18d9708f88d1159fc6eb3b446f421dfe769ef36910161133b565b6123f16118f5565b3360008181526008602052604081209161240a9061206d565b9050600082600101548261241e919061351b565b9050600061242b336117cf565b8454612437919061351b565b9050612443858361351b565b8110156040518060400160405280600d81526020016c496e76616c69642076616c756560981b8152509061248a5760405162461bcd60e51b815260040161098691906134c8565b50835460408051808201909152600d81526c496e76616c69642076616c756560981b6020820152908611156124d25760405162461bcd60e51b815260040161098691906134c8565b5083546124e0908690613572565b845560005460405163a9059cbb60e01b81526001600160a01b038881166004830152602482018890529091169063a9059cbb90604401602060405180830381600087803b15801561253057600080fd5b505af1158015612544573d6000803e3d6000fd5b505050506040513d601f19601f82011682018060405250810190612568919061343c565b506040518581526001600160a01b0387169033907fd1c19fbcd4551a5edfb66d43d2e337c04837afda3482b42bdf569a8fccdae5fb9060200160405180910390a3505050505050565b6125b96118f5565b6001600160a01b038116158015906125da57506001600160a01b0381163314155b80156125f7575060006125ec82611ec0565b6001600160a01b0316145b6040518060400160405280600f81526020016e496e76616c6964206164647265737360881b8152509061263d5760405162461bcd60e51b815260040161098691906134c8565b5033600090815260086020526040902061265a62093a8042613572565b816005015411156040518060400160405280600c81526020016b155b985d5d1a1bdc9a5e995960a21b815250906126a45760405162461bcd60e51b815260040161098691906134c8565b5042600582015560006126b633612061565b905060006126c333611ec0565b9050836001600160a01b0316816001600160a01b0316141560405180606001604052806023815260200161360060239139906127125760405162461bcd60e51b815260040161098691906134c8565b506001600160a01b0381161561274b576001600160a01b038116600090815260086020526040902061274b90600401836111e284611bbf565b6001600160a01b038416600090815260086020526040902061277e600482018461277488611bbf565b6111ec919061351b565b61278b8460030186612e18565b6040516001600160a01b0386169033907f4bc154dd35d6a5cb9206482ecb473cdbf2473006d6bce728b9cc0741bcc59ea290600090a35050505050565b6127d06118f5565b6001600160a01b0381166000908152600860205260409020546127f490839061351b565b6001600160a01b03828116600090815260086020526040808220939093555491516323b872dd60e01b81528582166004820152306024820152604481018590529116906323b872dd90606401602060405180830381600087803b15801561285a57600080fd5b505af115801561286e573d6000803e3d6000fd5b505050506040513d601f19601f82011682018060405250810190612892919061343c565b50806001600160a01b03167f2da466a7b24304f47e87fa2e1e5a81b9831ce54fec19055ce277ca2f39ba42c4836040516128ce91815260200190565b60405180910390a2505050565b60015460408051808201909152600c81526b155b985d5d1a1bdc9a5e995960a21b6020820152906001600160a01b0316331461292a5760405162461bcd60e51b815260040161098691906134c8565b506001600160a01b038216600081815260056020908152604091829020805460ff19168515159081179091558251938452908301527fbf0d659300b2b4f4ddd43c45c5f2a7deafbf3e8bc8617173b6ef8937b19ca321910161133b565b6001600160a01b03821660009081526008602052604081206129ad906002018383612a8b565b9392505050565b60015460408051808201909152600c81526b155b985d5d1a1bdc9a5e995960a21b6020820152906001600160a01b03163314612a035760405162461bcd60e51b815260040161098691906134c8565b5060408051808201909152600d81526c496e76616c69642076616c756560981b602082015262093a80821015612a4c5760405162461bcd60e51b815260040161098691906134c8565b50600e80549082905560408051828152602081018490527f2a566195a06f0ea25345d21a827d0a95deae8b4cb308a2c85c89deb35071aff9910161133b565b82546000905b82811115612b31578385612aa6600184613572565b81548110612ac457634e487b7160e01b600052603260045260246000fd5b90600052602060002090600202016000015411612b1f5784612ae7600183613572565b81548110612b0557634e487b7160e01b600052603260045260246000fd5b9060005260206000209060020201600101549150506129ad565b80612b2981613589565b915050612a91565b60408051808201909152600d81526c496e76616c69642076616c756560981b60208201528115612b745760405162461bcd60e51b815260040161098691906134c8565b50600095945050505050565b6016546014546000911115612b96575060175490565b5060155490565b601454431415612bac57601555565b601654431415612bbb57601755565b6016546014541015612bd05743601455601555565b43601655601755565b6000612be433611ec0565b90506001600160a01b038116612bf957505050565b6001600160a01b038116600090815260086020526040812090612c1b83611bbf565b905060008415612c3657612c2f868361351b565b9050612c51565b858211612c44576000612c4e565b612c4e8683613572565b90505b612c5e8360040182612c66565b505050505050565b8154612ca9576040805180820190915260125481526020808201928352835460018082018655600095865291909420915160029094029091019283559051910155565b8154601490612cb990600161351b565b10612d845760006013600084601486805490506001612cd8919061351b565b612ce29190613572565b81548110612d0057634e487b7160e01b600052603260045260246000fd5b906000526020600020906002020160000154815260200190815260200160002054905062093a808142612d339190613572565b11604051806040016040528060168152602001752a393c9030b3b0b4b71030903bb2b2b5903630ba32b960511b81525090612d815760405162461bcd60e51b815260040161098691906134c8565b50505b81546000908390612d9790600190613572565b81548110612db557634e487b7160e01b600052603260045260246000fd5b9060005260206000209060020201905060125481600001541015612e1157506040805180820190915260125481526020808201928352835460018082018655600095865291909420915160029094029091019283559051910155565b6001015550565b8154612e7a576040805180820190915260125481526001600160a01b0391821660208083019182528454600180820187556000968752919095209251600290950290920193845551920180546001600160a01b03191692909116919091179055565b81546000908390612e8d90600190613572565b81548110612eab57634e487b7160e01b600052603260045260246000fd5b9060005260206000209060020201905060125481600001541015612f2657506040805180820190915260125481526001600160a01b0391821660208083019182528454600180820187556000968752919095209251600290950290920193845551920180546001600160a01b03191692909116919091179055565b6001810180546001600160a01b0384166001600160a01b0319909116179055505050565b600a54612f5957600b54601055565b60008060009054906101000a90046001600160a01b03166001600160a01b03166318160ddd6040518163ffffffff1660e01b815260040160206040518083038186803b158015612fa857600080fd5b505afa158015612fbc573d6000803e3d6000fd5b505050506040513d601f19601f82011682018060405250810190612fe09190613470565b6305f5e100600954612ff29190613553565b612ffc9190613533565b90506000600a54821061301b57600a546130169083613572565b613029565b81600a546130299190613572565b90506000600a546305f5e100836130409190613553565b61304a9190613533565b90506000620f4240600d54836130609190613553565b61306a9190613533565b90506000600a548510156130a5576305f5e100613087838261351b565b6010546130949190613553565b61309e9190613533565b90506130e0565b816305f5e100116130b75760006130dd565b6305f5e1006130c68382613572565b6010546130d39190613553565b6130dd9190613533565b90505b600b548110156130f557600b54601055613110565b600c5481111561310a57600c54601055613110565b60108190555b5050505050565b60165460009043141561312b575060155490565b60145443141561313c575060175490565b610cc8612b80565b828054613150906135a0565b90600052602060002090601f01602090048101928261317257600085556131b8565b82601f1061318b5782800160ff198235161785556131b8565b828001600101855582156131b8579182015b828111156131b857823582559160200191906001019061319d565b506131c49291506131c8565b5090565b5b808211156131c457600081556001016131c9565b80356001600160a01b03811681146131f457600080fd5b919050565b60006020828403121561320a578081fd5b6129ad826131dd565b60008060408385031215613225578081fd5b61322e836131dd565b915061323c602084016131dd565b90509250929050565b6000806000806080858703121561325a578182fd5b613263856131dd565b9350613271602086016131dd565b925061327f604086016131dd565b915061328d606086016131dd565b905092959194509250565b6000806000606084860312156132ac578283fd5b6132b5846131dd565b92506132c3602085016131dd565b9150604084013590509250925092565b600080604083850312156132e5578182fd5b6132ee836131dd565b915060208301356132fe816135f1565b809150509250929050565b6000806040838503121561331b578182fd5b613324836131dd565b946020939093013593505050565b600080600060608486031215613346578283fd5b61334f846131dd565b925060208401359150613364604085016131dd565b90509250925092565b600080600080600060a08688031215613384578081fd5b61338d866131dd565b9450602086013593506133a2604087016131dd565b94979396509394606081013594506080013592915050565b600080600080606085870312156133cf578384fd5b6133d8856131dd565b935060208501359250604085013567ffffffffffffffff808211156133fb578384fd5b818701915087601f83011261340e578384fd5b81358181111561341c578485fd5b88602082850101111561342d578485fd5b95989497505060200194505050565b60006020828403121561344d578081fd5b81516129ad816135f1565b600060208284031215613469578081fd5b5035919050565b600060208284031215613481578081fd5b5051919050565b6001600160a01b03841681526040602082018190528101829052818360608301376000818301606090810191909152601f909201601f1916010192915050565b6000602080835283518082850152825b818110156134f4578581018301518582016040015282016134d8565b818111156135055783604083870101525b50601f01601f1916929092016040019392505050565b6000821982111561352e5761352e6135db565b500190565b60008261354e57634e487b7160e01b81526012600452602481fd5b500490565b600081600019048311821515161561356d5761356d6135db565b500290565b600082821015613584576135846135db565b500390565b600081613598576135986135db565b506000190190565b600181811c908216806135b457607f821691505b602082108114156135d557634e487b7160e01b600052602260045260246000fd5b50919050565b634e487b7160e01b600052601160045260246000fd5b8015158114611ace57600080fdfe43616e6e6f742064656c656761746520746f207468652073616d652061646472657373a2646970667358221220b6cc766f50dd73ac594c9c802f41ba78b3e1e949704f4fab2e84e3c6bf769d9364736f6c63430008040033",
  "linkReferences": {},
  "deployedLinkReferences": {}
}