{
  "address": "0x0E7FdA608937489f410377745dAE331d14965bB0",
  "abi": [
    {
      "inputs": [
        {
          "internalType": "address",
          "name": "contractOwner",
          "type": "address"
        },
        {
          "internalType": "address",
          "name": "mintingDestination",
          "type": "address"
        }
      ],
      "stateMutability": "nonpayable",
      "type": "constructor"
    },
    {
      "anonymous": false,
      "inputs": [
        {
          "indexed": true,
          "internalType": "address",
          "name": "owner",
          "type": "address"
        },
        {
          "indexed": true,
          "internalType": "address",
          "name": "spender",
          "type": "address"
        },
        {
          "indexed": false,
          "internalType": "uint256",
          "name": "value",
          "type": "uint256"
        }
      ],
      "name": "Approval",
      "type": "event"
    },
    {
      "anonymous": false,
      "inputs": [
        {
          "indexed": true,
          "internalType": "address",
          "name": "burnerAddress",
          "type": "address"
        },
        {
          "indexed": false,
          "internalType": "bool",
          "name": "burnerStatus",
          "type": "bool"
        }
      ],
      "name": "BurnerStatusUpdated",
      "type": "event"
    },
    {
      "anonymous": false,
      "inputs": [
        {
          "indexed": true,
          "internalType": "address",
          "name": "minterAddress",
          "type": "address"
        },
        {
          "indexed": false,
          "internalType": "bool",
          "name": "minterStatus",
          "type": "bool"
        }
      ],
      "name": "MinterStatusUpdated",
      "type": "event"
    },
    {
      "anonymous": false,
      "inputs": [
        {
          "indexed": true,
          "internalType": "address",
          "name": "previousOwner",
          "type": "address"
        },
        {
          "indexed": true,
          "internalType": "address",
          "name": "newOwner",
          "type": "address"
        }
      ],
      "name": "OwnershipTransferred",
      "type": "event"
    },
    {
      "anonymous": false,
      "inputs": [
        {
          "indexed": true,
          "internalType": "address",
          "name": "from",
          "type": "address"
        },
        {
          "indexed": true,
          "internalType": "address",
          "name": "to",
          "type": "address"
        },
        {
          "indexed": false,
          "internalType": "uint256",
          "name": "value",
          "type": "uint256"
        }
      ],
      "name": "Transfer",
      "type": "event"
    },
    {
      "inputs": [
        {
          "internalType": "address",
          "name": "owner",
          "type": "address"
        },
        {
          "internalType": "address",
          "name": "spender",
          "type": "address"
        }
      ],
      "name": "allowance",
      "outputs": [
        {
          "internalType": "uint256",
          "name": "",
          "type": "uint256"
        }
      ],
      "stateMutability": "view",
      "type": "function"
    },
    {
      "inputs": [
        {
          "internalType": "address",
          "name": "spender",
          "type": "address"
        },
        {
          "internalType": "uint256",
          "name": "amount",
          "type": "uint256"
        }
      ],
      "name": "approve",
      "outputs": [
        {
          "internalType": "bool",
          "name": "",
          "type": "bool"
        }
      ],
      "stateMutability": "nonpayable",
      "type": "function"
    },
    {
      "inputs": [
        {
          "internalType": "address",
          "name": "account",
          "type": "address"
        }
      ],
      "name": "balanceOf",
      "outputs": [
        {
          "internalType": "uint256",
          "name": "",
          "type": "uint256"
        }
      ],
      "stateMutability": "view",
      "type": "function"
    },
    {
      "inputs": [
        {
          "internalType": "uint256",
          "name": "amount",
          "type": "uint256"
        }
      ],
      "name": "burn",
      "outputs": [],
      "stateMutability": "nonpayable",
      "type": "function"
    },
    {
      "inputs": [],
      "name": "decimals",
      "outputs": [
        {
          "internalType": "uint8",
          "name": "",
          "type": "uint8"
        }
      ],
      "stateMutability": "view",
      "type": "function"
    },
    {
      "inputs": [
        {
          "internalType": "address",
          "name": "spender",
          "type": "address"
        },
        {
          "internalType": "uint256",
          "name": "subtractedValue",
          "type": "uint256"
        }
      ],
      "name": "decreaseAllowance",
      "outputs": [
        {
          "internalType": "bool",
          "name": "",
          "type": "bool"
        }
      ],
      "stateMutability": "nonpayable",
      "type": "function"
    },
    {
      "inputs": [
        {
          "internalType": "address",
          "name": "burnerAddress",
          "type": "address"
        }
      ],
      "name": "getBurnerStatus",
      "outputs": [
        {
          "internalType": "bool",
          "name": "burnerStatus",
          "type": "bool"
        }
      ],
      "stateMutability": "view",
      "type": "function"
    },
    {
      "inputs": [
        {
          "internalType": "address",
          "name": "minterAddress",
          "type": "address"
        }
      ],
      "name": "getMinterStatus",
      "outputs": [
        {
          "internalType": "bool",
          "name": "minterStatus",
          "type": "bool"
        }
      ],
      "stateMutability": "view",
      "type": "function"
    },
    {
      "inputs": [
        {
          "internalType": "address",
          "name": "spender",
          "type": "address"
        },
        {
          "internalType": "uint256",
          "name": "addedValue",
          "type": "uint256"
        }
      ],
      "name": "increaseAllowance",
      "outputs": [
        {
          "internalType": "bool",
          "name": "",
          "type": "bool"
        }
      ],
      "stateMutability": "nonpayable",
      "type": "function"
    },
    {
      "inputs": [
        {
          "internalType": "address",
          "name": "account",
          "type": "address"
        },
        {
          "internalType": "uint256",
          "name": "amount",
          "type": "uint256"
        }
      ],
      "name": "mint",
      "outputs": [],
      "stateMutability": "nonpayable",
      "type": "function"
    },
    {
      "inputs": [],
      "name": "name",
      "outputs": [
        {
          "internalType": "string",
          "name": "",
          "type": "string"
        }
      ],
      "stateMutability": "view",
      "type": "function"
    },
    {
      "inputs": [],
      "name": "owner",
      "outputs": [
        {
          "internalType": "address",
          "name": "",
          "type": "address"
        }
      ],
      "stateMutability": "view",
      "type": "function"
    },
    {
      "inputs": [],
      "name": "renounceOwnership",
      "outputs": [],
      "stateMutability": "nonpayable",
      "type": "function"
    },
    {
      "inputs": [],
      "name": "symbol",
      "outputs": [
        {
          "internalType": "string",
          "name": "",
          "type": "string"
        }
      ],
      "stateMutability": "view",
      "type": "function"
    },
    {
      "inputs": [],
      "name": "totalSupply",
      "outputs": [
        {
          "internalType": "uint256",
          "name": "",
          "type": "uint256"
        }
      ],
      "stateMutability": "view",
      "type": "function"
    },
    {
      "inputs": [
        {
          "internalType": "address",
          "name": "recipient",
          "type": "address"
        },
        {
          "internalType": "uint256",
          "name": "amount",
          "type": "uint256"
        }
      ],
      "name": "transfer",
      "outputs": [
        {
          "internalType": "bool",
          "name": "",
          "type": "bool"
        }
      ],
      "stateMutability": "nonpayable",
      "type": "function"
    },
    {
      "inputs": [
        {
          "internalType": "address",
          "name": "sender",
          "type": "address"
        },
        {
          "internalType": "address",
          "name": "recipient",
          "type": "address"
        },
        {
          "internalType": "uint256",
          "name": "amount",
          "type": "uint256"
        }
      ],
      "name": "transferFrom",
      "outputs": [
        {
          "internalType": "bool",
          "name": "",
          "type": "bool"
        }
      ],
      "stateMutability": "nonpayable",
      "type": "function"
    },
    {
      "inputs": [
        {
          "internalType": "address",
          "name": "newOwner",
          "type": "address"
        }
      ],
      "name": "transferOwnership",
      "outputs": [],
      "stateMutability": "nonpayable",
      "type": "function"
    },
    {
      "inputs": [
        {
          "internalType": "bool",
          "name": "burnerStatus",
          "type": "bool"
        }
      ],
      "name": "updateBurnerStatus",
      "outputs": [],
      "stateMutability": "nonpayable",
      "type": "function"
    },
    {
      "inputs": [
        {
          "internalType": "address",
          "name": "minterAddress",
          "type": "address"
        },
        {
          "internalType": "bool",
          "name": "minterStatus",
          "type": "bool"
        }
      ],
      "name": "updateMinterStatus",
      "outputs": [],
      "stateMutability": "nonpayable",
      "type": "function"
    }
  ],
  "transactionHash": "0x8a18c29f2d3a6d97bd3fff5af6e668e8bda68d405063e598a01e6dfdbe34a3bd",
  "args": [
    "0xEFc3a819695932394D89b8AF6f49e0D89EDf9A40",
    "0xEFc3a819695932394D89b8AF6f49e0D89EDf9A40"
  ],
  "solcInputHash": "66b5f3a455b1a1999717cd98c6639600",
  "bytecode": "0x60806040523480156200001157600080fd5b506040516200183638038062001836833981810160405260408110156200003757600080fd5b5080516020918201516040805180820182526004808252634150493360e01b8287018181528451808601909552918452958301959095528051939492939092620000859160039190620003ca565b5080516200009b906004906020840190620003ca565b50506005805460ff19166012179055506000620000b762000126565b60058054610100600160a81b0319166101006001600160a01b038416908102919091179091556040519192509060009060008051602062001816833981519152908290a35062000107826200012a565b6200011e816a52b7d2dcc80cd2e400000062000240565b505062000466565b3390565b6200013462000126565b6001600160a01b0316620001476200034f565b6001600160a01b031614620001a3576040805162461bcd60e51b815260206004820181905260248201527f4f776e61626c653a2063616c6c6572206973206e6f7420746865206f776e6572604482015290519081900360640190fd5b6001600160a01b038116620001ea5760405162461bcd60e51b8152600401808060200182810382526026815260200180620017f06026913960400191505060405180910390fd5b6005546040516001600160a01b0380841692610100900416906000805160206200181683398151915290600090a3600580546001600160a01b0390921661010002610100600160a81b0319909216919091179055565b6001600160a01b0382166200029c576040805162461bcd60e51b815260206004820152601f60248201527f45524332303a206d696e7420746f20746865207a65726f206164647265737300604482015290519081900360640190fd5b620002aa6000838362000363565b620002c6816002546200036860201b62000c491790919060201c565b6002556001600160a01b03821660009081526020818152604090912054620002f991839062000c4962000368821b17901c565b6001600160a01b0383166000818152602081815260408083209490945583518581529351929391927fddf252ad1be2c89b69c2b068fc378daa952ba7f163c4a11628f55a4df523b3ef9281900390910190a35050565b60055461010090046001600160a01b031690565b505050565b600082820183811015620003c3576040805162461bcd60e51b815260206004820152601b60248201527f536166654d6174683a206164646974696f6e206f766572666c6f770000000000604482015290519081900360640190fd5b9392505050565b828054600181600116156101000203166002900490600052602060002090601f016020900481019282601f106200040d57805160ff19168380011785556200043d565b828001600101855582156200043d579182015b828111156200043d57825182559160200191906001019062000420565b506200044b9291506200044f565b5090565b5b808211156200044b576000815560010162000450565b61137a80620004766000396000f3fe608060405234801561001057600080fd5b506004361061012c5760003560e01c80638da5cb5b116100ad578063bbb30c5d11610071578063bbb30c5d146103ab578063d37cd55d146103d1578063dd62ed3e146103f0578063efc8f3c81461041e578063f2fde38b1461044c5761012c565b80638da5cb5b1461030157806395d89b4114610325578063a457c2d71461032d578063a9059cbb14610359578063b168dc5b146103855761012c565b806339509351116100f4578063395093511461025c57806340c10f191461028857806342966c68146102b657806370a08231146102d3578063715018a6146102f95761012c565b806306fdde0314610131578063095ea7b3146101ae57806318160ddd146101ee57806323b872dd14610208578063313ce5671461023e575b600080fd5b610139610472565b6040805160208082528351818301528351919283929083019185019080838360005b8381101561017357818101518382015260200161015b565b50505050905090810190601f1680156101a05780820380516001836020036101000a031916815260200191505b509250505060405180910390f35b6101da600480360360408110156101c457600080fd5b506001600160a01b038135169060200135610508565b604080519115158252519081900360200190f35b6101f6610525565b60408051918252519081900360200190f35b6101da6004803603606081101561021e57600080fd5b506001600160a01b0381358116916020810135909116906040013561052b565b6102466105b2565b6040805160ff9092168252519081900360200190f35b6101da6004803603604081101561027257600080fd5b506001600160a01b0381351690602001356105bb565b6102b46004803603604081101561029e57600080fd5b506001600160a01b038135169060200135610609565b005b6102b4600480360360208110156102cc57600080fd5b503561067b565b6101f6600480360360208110156102e957600080fd5b50356001600160a01b03166106ec565b6102b4610707565b6103096107c8565b604080516001600160a01b039092168252519081900360200190f35b6101396107dc565b6101da6004803603604081101561034357600080fd5b506001600160a01b03813516906020013561083d565b6101da6004803603604081101561036f57600080fd5b506001600160a01b0381351690602001356108a5565b6101da6004803603602081101561039b57600080fd5b50356001600160a01b03166108b9565b6101da600480360360208110156103c157600080fd5b50356001600160a01b03166108d7565b6102b4600480360360208110156103e757600080fd5b503515156108f5565b6101f66004803603604081101561040657600080fd5b506001600160a01b03813581169160200135166109b6565b6102b46004803603604081101561043457600080fd5b506001600160a01b03813516906020013515156109e1565b6102b46004803603602081101561046257600080fd5b50356001600160a01b0316610b29565b60038054604080516020601f60026000196101006001881615020190951694909404938401819004810282018101909252828152606093909290918301828280156104fe5780601f106104d3576101008083540402835291602001916104fe565b820191906000526020600020905b8154815290600101906020018083116104e157829003601f168201915b5050505050905090565b600061051c610515610caa565b8484610cae565b50600192915050565b60025490565b6000610538848484610d9a565b6105a884610544610caa565b6105a38560405180606001604052806028815260200161128e602891396001600160a01b038a16600090815260016020526040812090610582610caa565b6001600160a01b031681526020810191909152604001600020549190610ef5565b610cae565b5060019392505050565b60055460ff1690565b600061051c6105c8610caa565b846105a385600160006105d9610caa565b6001600160a01b03908116825260208083019390935260409182016000908120918c168152925290205490610c49565b3360009081526006602052604090205460ff1661066d576040805162461bcd60e51b815260206004820181905260248201527f4f6e6c79206d696e746572732061726520616c6c6f77656420746f206d696e74604482015290519081900360640190fd5b6106778282610f8c565b5050565b3360009081526007602052604090205460ff166106df576040805162461bcd60e51b815260206004820181905260248201527f4f6e6c79206275726e6572732061726520616c6c6f77656420746f206275726e604482015290519081900360640190fd5b6106e9338261107c565b50565b6001600160a01b031660009081526020819052604090205490565b61070f610caa565b6001600160a01b03166107206107c8565b6001600160a01b03161461077b576040805162461bcd60e51b815260206004820181905260248201527f4f776e61626c653a2063616c6c6572206973206e6f7420746865206f776e6572604482015290519081900360640190fd5b6040805162461bcd60e51b815260206004820152601d60248201527f4f776e6572736869702063616e6e6f742062652072656e6f756e636564000000604482015290519081900360640190fd5b60055461010090046001600160a01b031690565b60048054604080516020601f60026000196101006001881615020190951694909404938401819004810282018101909252828152606093909290918301828280156104fe5780601f106104d3576101008083540402835291602001916104fe565b600061051c61084a610caa565b846105a3856040518060600160405280602581526020016113206025913960016000610874610caa565b6001600160a01b03908116825260208083019390935260409182016000908120918d16815292529020549190610ef5565b600061051c6108b2610caa565b8484610d9a565b6001600160a01b031660009081526007602052604090205460ff1690565b6001600160a01b031660009081526006602052604090205460ff1690565b3360009081526007602052604090205460ff1615158115151415610960576040805162461bcd60e51b815260206004820152601b60248201527f496e7075742077696c6c206e6f74207570646174652073746174650000000000604482015290519081900360640190fd5b33600081815260076020908152604091829020805460ff1916851515908117909155825190815291517f5217d618731e650419668d9b99f95d662e37d7b87d4689cd98e92e1c176cc7059281900390910190a250565b6001600160a01b03918216600090815260016020908152604080832093909416825291909152205490565b6109e9610caa565b6001600160a01b03166109fa6107c8565b6001600160a01b031614610a55576040805162461bcd60e51b815260206004820181905260248201527f4f776e61626c653a2063616c6c6572206973206e6f7420746865206f776e6572604482015290519081900360640190fd5b6001600160a01b03821660009081526006602052604090205460ff1615158115151415610ac9576040805162461bcd60e51b815260206004820152601b60248201527f496e7075742077696c6c206e6f74207570646174652073746174650000000000604482015290519081900360640190fd5b6001600160a01b038216600081815260066020908152604091829020805460ff1916851515908117909155825190815291517fd7f05487ae3002c125e5927b52b19827dd903ac7cb2e69c4f7f2fdbc17d1145c9281900390910190a25050565b610b31610caa565b6001600160a01b0316610b426107c8565b6001600160a01b031614610b9d576040805162461bcd60e51b815260206004820181905260248201527f4f776e61626c653a2063616c6c6572206973206e6f7420746865206f776e6572604482015290519081900360640190fd5b6001600160a01b038116610be25760405162461bcd60e51b81526004018080602001828103825260268152602001806112206026913960400191505060405180910390fd5b6005546040516001600160a01b0380841692610100900416907f8be0079c531659141344cd1fd0a4f28419497f9722a3daafe3b4186f6b6457e090600090a3600580546001600160a01b0390921661010002610100600160a81b0319909216919091179055565b600082820183811015610ca3576040805162461bcd60e51b815260206004820152601b60248201527f536166654d6174683a206164646974696f6e206f766572666c6f770000000000604482015290519081900360640190fd5b9392505050565b3390565b6001600160a01b038316610cf35760405162461bcd60e51b81526004018080602001828103825260248152602001806112fc6024913960400191505060405180910390fd5b6001600160a01b038216610d385760405162461bcd60e51b81526004018080602001828103825260228152602001806112466022913960400191505060405180910390fd5b6001600160a01b03808416600081815260016020908152604080832094871680845294825291829020859055815185815291517f8c5be1e5ebec7d5bd14f71427d1e84f3dd0314c0f7b2291e5b200ac8c7c3b9259281900390910190a3505050565b6001600160a01b038316610ddf5760405162461bcd60e51b81526004018080602001828103825260258152602001806112d76025913960400191505060405180910390fd5b6001600160a01b038216610e245760405162461bcd60e51b81526004018080602001828103825260238152602001806111db6023913960400191505060405180910390fd5b610e2f838383611178565b610e6c81604051806060016040528060268152602001611268602691396001600160a01b0386166000908152602081905260409020549190610ef5565b6001600160a01b038085166000908152602081905260408082209390935590841681522054610e9b9082610c49565b6001600160a01b038084166000818152602081815260409182902094909455805185815290519193928716927fddf252ad1be2c89b69c2b068fc378daa952ba7f163c4a11628f55a4df523b3ef92918290030190a3505050565b60008184841115610f845760405162461bcd60e51b81526004018080602001828103825283818151815260200191508051906020019080838360005b83811015610f49578181015183820152602001610f31565b50505050905090810190601f168015610f765780820380516001836020036101000a031916815260200191505b509250505060405180910390fd5b505050900390565b6001600160a01b038216610fe7576040805162461bcd60e51b815260206004820152601f60248201527f45524332303a206d696e7420746f20746865207a65726f206164647265737300604482015290519081900360640190fd5b610ff360008383611178565b6002546110009082610c49565b6002556001600160a01b0382166000908152602081905260409020546110269082610c49565b6001600160a01b0383166000818152602081815260408083209490945583518581529351929391927fddf252ad1be2c89b69c2b068fc378daa952ba7f163c4a11628f55a4df523b3ef9281900390910190a35050565b6001600160a01b0382166110c15760405162461bcd60e51b81526004018080602001828103825260218152602001806112b66021913960400191505060405180910390fd5b6110cd82600083611178565b61110a816040518060600160405280602281526020016111fe602291396001600160a01b0385166000908152602081905260409020549190610ef5565b6001600160a01b038316600090815260208190526040902055600254611130908261117d565b6002556040805182815290516000916001600160a01b038516917fddf252ad1be2c89b69c2b068fc378daa952ba7f163c4a11628f55a4df523b3ef9181900360200190a35050565b505050565b6000828211156111d4576040805162461bcd60e51b815260206004820152601e60248201527f536166654d6174683a207375627472616374696f6e206f766572666c6f770000604482015290519081900360640190fd5b5090039056fe45524332303a207472616e7366657220746f20746865207a65726f206164647265737345524332303a206275726e20616d6f756e7420657863656564732062616c616e63654f776e61626c653a206e6577206f776e657220697320746865207a65726f206164647265737345524332303a20617070726f766520746f20746865207a65726f206164647265737345524332303a207472616e7366657220616d6f756e7420657863656564732062616c616e636545524332303a207472616e7366657220616d6f756e74206578636565647320616c6c6f77616e636545524332303a206275726e2066726f6d20746865207a65726f206164647265737345524332303a207472616e736665722066726f6d20746865207a65726f206164647265737345524332303a20617070726f76652066726f6d20746865207a65726f206164647265737345524332303a2064656372656173656420616c6c6f77616e63652062656c6f77207a65726fa26469706673582212201a5d8c073cf262456df91f316c458c94d5309c0de8d261a8b16cc091228eb3c264736f6c634300060c00334f776e61626c653a206e6577206f776e657220697320746865207a65726f20616464726573738be0079c531659141344cd1fd0a4f28419497f9722a3daafe3b4186f6b6457e0",
  "devdoc": {
    "kind": "dev",
    "methods": {
      "allowance(address,address)": {
        "details": "See {IERC20-allowance}."
      },
      "approve(address,uint256)": {
        "details": "See {IERC20-approve}. Requirements: - `spender` cannot be the zero address."
      },
      "balanceOf(address)": {
        "details": "See {IERC20-balanceOf}."
      },
      "burn(uint256)": {
        "params": {
          "amount": "Amount that will be burned"
        }
      },
      "constructor": {
        "params": {
          "contractOwner": "Address that will receive the ownership of the token contract",
          "mintingDestination": "Address that the tokens will be minted to"
        }
      },
      "decimals()": {
        "details": "Returns the number of decimals used to get its user representation. For example, if `decimals` equals `2`, a balance of `505` tokens should be displayed to a user as `5,05` (`505 / 10 ** 2`). Tokens usually opt for a value of 18, imitating the relationship between Ether and Wei. This is the value {ERC20} uses, unless {_setupDecimals} is called. NOTE: This information is only used for _display_ purposes: it in no way affects any of the arithmetic of the contract, including {IERC20-balanceOf} and {IERC20-transfer}."
      },
      "decreaseAllowance(address,uint256)": {
        "details": "Atomically decreases the allowance granted to `spender` by the caller. This is an alternative to {approve} that can be used as a mitigation for problems described in {IERC20-approve}. Emits an {Approval} event indicating the updated allowance. Requirements: - `spender` cannot be the zero address. - `spender` must have allowance for the caller of at least `subtractedValue`."
      },
      "getBurnerStatus(address)": {
        "params": {
          "burnerAddress": "Address whose burner authorization status will be returned"
        },
        "returns": {
          "burnerStatus": "Burner authorization status"
        }
      },
      "getMinterStatus(address)": {
        "params": {
          "minterAddress": "Address whose minter authorization status will be returned"
        },
        "returns": {
          "minterStatus": "Minter authorization status"
        }
      },
      "increaseAllowance(address,uint256)": {
        "details": "Atomically increases the allowance granted to `spender` by the caller. This is an alternative to {approve} that can be used as a mitigation for problems described in {IERC20-approve}. Emits an {Approval} event indicating the updated allowance. Requirements: - `spender` cannot be the zero address."
      },
      "mint(address,uint256)": {
        "params": {
          "account": "Address that will receive the minted tokens",
          "amount": "Amount that will be minted"
        }
      },
      "name()": {
        "details": "Returns the name of the token."
      },
      "owner()": {
        "details": "Returns the address of the current owner."
      },
      "symbol()": {
        "details": "Returns the symbol of the token, usually a shorter version of the name."
      },
      "totalSupply()": {
        "details": "See {IERC20-totalSupply}."
      },
      "transfer(address,uint256)": {
        "details": "See {IERC20-transfer}. Requirements: - `recipient` cannot be the zero address. - the caller must have a balance of at least `amount`."
      },
      "transferFrom(address,address,uint256)": {
        "details": "See {IERC20-transferFrom}. Emits an {Approval} event indicating the updated allowance. This is not required by the EIP. See the note at the beginning of {ERC20}. Requirements: - `sender` and `recipient` cannot be the zero address. - `sender` must have a balance of at least `amount`. - the caller must have allowance for ``sender``'s tokens of at least `amount`."
      },
      "transferOwnership(address)": {
        "details": "Transfers ownership of the contract to a new account (`newOwner`). Can only be called by the current owner."
      },
      "updateBurnerStatus(bool)": {
        "params": {
          "burnerStatus": "Updated minter authorization status"
        }
      },
      "updateMinterStatus(address,bool)": {
        "params": {
          "minterAddress": "Address whose minter authorization status will be updated",
          "minterStatus": "Updated minter authorization status"
        }
      }
    },
    "stateVariables": {
      "isBurner": {
        "details": "If an address is authorized to burn tokens. Token burning authorization is granted by the address itself, i.e., anyone can declare themselves a token burner."
      },
      "isMinter": {
        "details": "If an address is authorized to mint tokens. Token minting authorization is granted by the token contract owner (i.e., the API3 DAO)."
      }
    },
    "title": "API3 token contract",
    "version": 1
  },
  "userdoc": {
    "kind": "user",
    "methods": {
      "burn(uint256)": {
        "notice": "Burns caller's tokens"
      },
      "getBurnerStatus(address)": {
        "notice": "Returns if an address is authorized to burn tokens"
      },
      "getMinterStatus(address)": {
        "notice": "Returns if an address is authorized to mint tokens"
      },
      "mint(address,uint256)": {
        "notice": "Mints tokens"
      },
      "renounceOwnership()": {
        "notice": "The OpenZeppelin renounceOwnership() implementation is overriden to prevent ownership from being renounced accidentally."
      },
      "updateBurnerStatus(bool)": {
        "notice": "Updates if the caller is authorized to burn tokens"
      },
      "updateMinterStatus(address,bool)": {
        "notice": "Updates if an address is authorized to mint tokens"
      }
    },
    "notice": "The API3 token contract is owned by the API3 DAO, which can grant minting privileges to addresses. Any account is allowed to burn their  tokens, but this functionality is put behind a barrier that requires the account to make a call to remove.",
    "version": 1
  },
  "storageLayout": {
    "storage": [
      {
        "astId": 481,
        "contract": "contracts/auxiliary/Api3Token.sol:Api3Token",
        "label": "_balances",
        "offset": 0,
        "slot": "0",
        "type": "t_mapping(t_address,t_uint256)"
      },
      {
        "astId": 487,
        "contract": "contracts/auxiliary/Api3Token.sol:Api3Token",
        "label": "_allowances",
        "offset": 0,
        "slot": "1",
        "type": "t_mapping(t_address,t_mapping(t_address,t_uint256))"
      },
      {
        "astId": 489,
        "contract": "contracts/auxiliary/Api3Token.sol:Api3Token",
        "label": "_totalSupply",
        "offset": 0,
        "slot": "2",
        "type": "t_uint256"
      },
      {
        "astId": 491,
        "contract": "contracts/auxiliary/Api3Token.sol:Api3Token",
        "label": "_name",
        "offset": 0,
        "slot": "3",
        "type": "t_string_storage"
      },
      {
        "astId": 493,
        "contract": "contracts/auxiliary/Api3Token.sol:Api3Token",
        "label": "_symbol",
        "offset": 0,
        "slot": "4",
        "type": "t_string_storage"
      },
      {
        "astId": 495,
        "contract": "contracts/auxiliary/Api3Token.sol:Api3Token",
        "label": "_decimals",
        "offset": 0,
        "slot": "5",
        "type": "t_uint8"
      },
      {
        "astId": 7,
        "contract": "contracts/auxiliary/Api3Token.sol:Api3Token",
        "label": "_owner",
        "offset": 1,
        "slot": "5",
        "type": "t_address"
      },
      {
        "astId": 1085,
        "contract": "contracts/auxiliary/Api3Token.sol:Api3Token",
        "label": "isMinter",
        "offset": 0,
        "slot": "6",
        "type": "t_mapping(t_address,t_bool)"
      },
      {
        "astId": 1090,
        "contract": "contracts/auxiliary/Api3Token.sol:Api3Token",
        "label": "isBurner",
        "offset": 0,
        "slot": "7",
        "type": "t_mapping(t_address,t_bool)"
      }
    ],
    "types": {
      "t_address": {
        "encoding": "inplace",
        "label": "address",
        "numberOfBytes": "20"
      },
      "t_bool": {
        "encoding": "inplace",
        "label": "bool",
        "numberOfBytes": "1"
      },
      "t_mapping(t_address,t_bool)": {
        "encoding": "mapping",
        "key": "t_address",
        "label": "mapping(address => bool)",
        "numberOfBytes": "32",
        "value": "t_bool"
      },
      "t_mapping(t_address,t_mapping(t_address,t_uint256))": {
        "encoding": "mapping",
        "key": "t_address",
        "label": "mapping(address => mapping(address => uint256))",
        "numberOfBytes": "32",
        "value": "t_mapping(t_address,t_uint256)"
      },
      "t_mapping(t_address,t_uint256)": {
        "encoding": "mapping",
        "key": "t_address",
        "label": "mapping(address => uint256)",
        "numberOfBytes": "32",
        "value": "t_uint256"
      },
      "t_string_storage": {
        "encoding": "bytes",
        "label": "string",
        "numberOfBytes": "32"
      },
      "t_uint256": {
        "encoding": "inplace",
        "label": "uint256",
        "numberOfBytes": "32"
      },
      "t_uint8": {
        "encoding": "inplace",
        "label": "uint8",
        "numberOfBytes": "1"
      }
    }
  }
}